:1000000028C04CC0A7C24AC049C05AC247C046C057
:1000100045C044C043C042C041C040C03FC00000D2
:10002000000037000000000038000000000036002B
:10003000020202020202020202020102040810206D
:1000400020041008010200000400000000007304F6
:10005000120511241FBECFE5D2E0DEBFCDBF10E0F8
:10006000A0E6B0E0EEECFAE002C005900D92A23FEF
:10007000B107D9F721E0A2EFB0E001C01D92AD3683
:10008000B207E1F710E0C8E2D0E003C02197FE011B
:100090000CD5C732D107D1F706D30DC5B1CFAF927A
:1000A000BF92CF92DF92EF92FF920F931F93CF9365
:1000B000DF936C017B018B01040F151FEB015E01C7
:1000C000AE18BF08C017D10759F06991D601ED915C
:1000D000FC910190F081E02DC6010995892B79F7FB
:1000E000C501DF91CF911F910F91FF90EF90DF90AD
:1000F000CF90BF90AF900895823089F018F481308E
:1001000051F00895833019F0843009F008958CB5CA
:100110008F7D8CBD08958AB58F778ABD08958AB585
:100120008F7DFBCF1F93CF93DF93282F30E0F90112
:10013000EC5BFF4F8491F901E65CFF4FD491F9012C
:10014000E05DFF4FC491CC23A1F0162F8111D4DFC5
:10015000EC2FF0E0EE0FFF1FEC5DFF4FA591B49187
:100160008FB7F894EC91111108C0D095DE23DC9381
:100170008FBFDF91CF911F910895DE2BF8CF833091
:10018000910528F0880F991F04970197F1F70895BA
:10019000CF92DF92EF92FF920F931F93CF93DF9353
:1001A0007C01EB01219710E000E0D7FD52C02091C7
:1001B0006501309166013327F901EC5BFF4F8491B3
:1001C000F901E65CFF4FD490F901E05DFF4FC49068
:1001D000CC2009F43BC081118FDFEC2DF0E0EE0F55
:1001E000FF1FE65DFF4FA591B491EC91DE2231E057
:1001F00020E009F430E0832F922F0C2E02C0880FEC
:10020000991F0A94E2F7082B192B8091630197013B
:100210000C2E02C0359527950A94E2F761E020FF85
:1002200060E080DF80916B0190916C01A8DF61E05C
:100230008091610177DF80916B0190916C019FDF6C
:1002400060E0809161016EDF2197AFCF90E080E0A8
:10025000D4CF60E08091630165DFB801110F880B96
:10026000990BDF91CF911F910F91FF90EF90DF904D
:10027000CF9008951F93CF93DF93182FCFE5D1E050
:1002800061E08A814FDF8C859D8579DF60E08A811E
:1002900049DF61E0888146DF61E08C8143DF812FA7
:1002A000846063E070E0082E000C990BDF91CF9121
:1002B0001F916ECF3FB7F89480913701909138012C
:1002C000A0913901B0913A0122B708B601FE05C0EC
:1002D0002F3F19F00196A11DB11D3FBFBA2FA92FC5
:1002E000982F8827BC01CD01620F711D811D911DC2
:1002F00043E0660F771F881F991F4A95D1F708952D
:100300008F929F92AF92BF92CF92DF92EF92FF9225
:100310004B015C01CFDF6B017C01CCDF6C197D09E7
:100320008E099F09683E734081059105B0F321E075
:10033000821A9108A108B10888EEC80E83E0D81E81
:10034000E11CF11C81149104A104B10431F7FF9068
:10035000EF90DF90CF90BF90AF909F908F900895D7
:1003600020913D0130913E012817390771F4909199
:100370003B0180913C01981741F0E0913B01F0E096
:10038000EE50FF4F808190E008958FEF9FEF08952A
:100390000895EF92FF920F931F93CF93DF93DC01A9
:1003A0005C96ED90FC905D97E114F10479F481E0A6
:1003B00090E013969C938E93129790E080E0DF91EB
:1003C000CF911F910F91FF90EF9008955196ED916D
:1003D000FC91529750968C915097982F90950FB70B
:1003E0005E962C915E97122F127021FD6095F89405
:1003F0002081112319F1282B2083E7012197F1F7A0
:1004000028E0462F50E0308160FF1AC0382B30833F
:10041000E7012197F1F7BA0175956795215089F7A2
:10042000112381F08081892380830FBF5C968D9199
:100430009C910197F1F781E090E0C1CF2923DCCFB7
:100440003923E5CF9081892BEFCF20913D01309169
:100450003E012817390769F480913C0120913B0146
:1004600090E0805C9F4F821B910960E470E0F6D2BF
:10047000089590E080E0089520913D0130913E0183
:1004800028173907B9F490913B0180913C019817E6
:1004900089F0E0913B01F0E0EE50FF4F8081209128
:1004A0003B0130E02F5F3F4F2F73332720933B01F9
:1004B00090E008958FEF9FEF089590E080E0089519
:1004C0001F920F920FB60F9211242F933F938F9389
:1004D0009F93AF93BF938091330190913401A0918A
:1004E0003501B09136013091320126E0230F2D37CE
:1004F00058F50296A11DB11D20933201809333015E
:1005000090933401A0933501B09336018091370167
:1005100090913801A0913901B0913A010196A11D45
:10052000B11D8093370190933801A0933901B093A6
:100530003A01BF91AF919F918F913F912F910F9071
:100540000FBE0F901F90189529E8230F0396A11D49
:10055000B11DD2CF1F920F920FB60F9211242F937D
:100560003F934F935F936F937F938F939F93AF933B
:10057000BF93EF93FF93E0913D01F0913E013097DF
:1005800049F0A685B7858585968D91FF14C09C910D
:100590008923A1F4FF91EF91BF91AF919F918F912A
:1005A0007F916F915F914F913F912F910F900FBE6F
:1005B0000F901F9018959C91892361F7A389B489A6
:1005C0009C918589809589238C9386899789019749
:1005D000F1F7608D718DA685B785558538E020E0EF
:1005E000CB010197F1F7822F90E095958795282F01
:1005F0004C91452309F02068315091F7868D81FD9B
:10060000209580913C0190E001968F73992730915D
:100610003B01381799F0A0913C01B0E0AE50BF4FBC
:100620002C9380933C01828D938D0197F1F7A389E0
:10063000B4898C919589892B8C93ACCF868D816000
:10064000868FF1CFCF93DF9390E0FC01E65CFF4F04
:100650002491805D9F4FFC0184918823D1F090E02C
:10066000880F991FFC01E25EFF4FA591B491FC0138
:10067000EC5DFF4FC591D49161110EC09FB7F89406
:100680008C91E22FE0958E238C932881E223E883DE
:100690009FBFDF91CF9108958FB7F894EC91E22B33
:1006A000EC938FBFF6CF78948AB582608ABD8AB505
:1006B00081608ABD83B7826083BF83B7816083BF57
:1006C00089B7826089BF80B7826080BF80B7816050
:1006D00080BF329A319A3098379A8CB580648CBD3D
:1006E00010925A011092590110925801109257011C
:1006F00010925601109255018DEC90E090935C01A0
:1007000080935B0130914B01353020F545E550E099
:1007100050935601409355014BEC50E050935801D3
:100720004093570140E950E050935A0140935901DA
:100730002BB720622BBF45E350E050935301409309
:10074000520121E001C0220F3A95EAF720935401AB
:100750000197F1F78091590190915A01892B49F144
:10076000E0913D01F0913E0181E0EF33F80709F19E
:10077000309739F0A389B4899C9185898095892324
:100780008C9380915D018E7F80935D0110923C017E
:1007900010923B018FE391E090933E0180933D01E5
:1007A000E0915201F0915301808190915401892B85
:1007B000808380E05FDD6091690170916A016F5F05
:1007C0007F4F8FEF91E0E4DC60E080915F01AADC75
:1007D00080916B0190916C01D2DC10925E01C0910E
:1007E0005E01C03420F50C2F10E0F801EE0FFF1F62
:1007F000EE58FF4FE080F18081E03CDD60916901BF
:1008000070916A01C801C4DC609167017091680150
:10081000C701BEDC60E080915F0184DC66E070E0CF
:1008200080E090E06DDDCF5FC0935E01D8CF80E0C7
:1008300021DD6091690170916A016F5F7F4F90E0E7
:1008400080E0A6DC60E080915F016CDC80916B0150
:1008500090916C0194DC90E0E92E90E0F92E1092DA
:100860005E0100E010915E01103458F5C12FD0E018
:1008700082E000DD6091690170916A01CE0188DC3F
:1008800060916701709168016F5F7F4F90E080E039
:100890007FDC4B0160E080915F0144DC80916B0163
:1008A00090916C016CDCCC0FDD1FCE58DF4F88813E
:1008B00099818815990509F00FEF1F5F10935E016C
:1008C000D1CF65E4011101C06FE48FE391E061DDF8
:1008D00064EF71E080E090E013DDE114F10409F4CD
:1008E000BECF8EDBBCCF109242011092410188EE48
:1008F00093E0A0E0B0E08093430190934401A09383
:100900004501B093460184E690E0909340018093C6
:100910003F01109256011092550110925801109209
:10092000570110925A011092590110925C011092D5
:100930005B0160915D016E7F6D7F60935D016695E7
:10094000617081E0682782E0EDDB61E082E07ADEC1
:10095000ECE3F0E0E491E0934F01E2E3F0E0E491B6
:10096000F0E0EE0FFF1FEC5DFF4F859194919093A7
:1009700051018093500160E085E064DE80915D016B
:1009800081FD03C061E085E0CDDB85E080934B0114
:10099000EFE3F0E0E491E0934C01E5E3F0E0E49173
:1009A000F0E0EE0FFF1FE65DFF4F8591949190936D
:1009B0004E0180934D011092600110925F0183E01F
:1009C00090E0909362018093610181E090E09093C8
:1009D00064018093630184E090E0909366018093CA
:1009E000650186E090E090936A018093690180E15F
:1009F00090E0909368018093670184E690E0909383
:100A00006C0180936B0161E080E01CDE61E080910D
:100A1000610118DE61E08091630114DE60E0809185
:100A2000650110CE84E690E09093400180933F01F1
:100A300080913D0190913E018F53914071F4E0917E
:100A40005201F09153019081809154018095892346
:100A5000808310923E0110923D01089597FB072E6E
:100A600016F4009406D077FD08D00BD007FC05D013
:100A70003EF4909581959F4F0895709561957F4FB5
:100A80000895AA1BBB1B51E107C0AA1FBB1FA617D5
:100A9000B70710F0A61BB70B881F991F5A95A9F727
:100AA00080959095BC01CD010895EE0FFF1F059034
:100AB000F491E02D099410E0C8E2D0E003C0FE01FB
:0E0AC000F4DF2196C932D107D1F7F894FFCFA9
:100ACE0000000000C9014F005D02C80125023C0272
:100ADE00B0014800650072006500200069007300D7
:100AEE0020006100200066006C006100670020009D
:100AFE0047004800310039007B0055006E006B0046
:100B0E006E006F0077006E00430068006900700091
:100B1E007D0041006E00640020006D006F007200C9
:100B2E0065002000620079007400650020007400EA
:100B3E006F006800610073006800200061006E00A5
:100B4E00640020007300650065002E002E002E004C
:020B5E00000095
:00000001FF
