:100000000C94751B0C949D1B0C949D1B0C94D72C6D
:100010000C94B22C0C948D2C0C949D1B0C949D1B59
:100020000C949D1B0C949D1B0C949D1B0C949D1B70
:100030000C949D1B0C949D1B0C949D1B0C949D1B60
:100040000C94242B0C949D1B0C94F22A0C94CC2A17
:100050000C949D1B0C949D1B0C949D1B0C949D1B40
:100060000C946E2B0C949D1B000000006410B71DB7
:10007000C8206E3BAC30D9269041DC76F4516B6BD6
:100080005861B24D3C7105502083B8ED44930FF098
:10009000E8A3D6D68CB361CBB0C2649BD4D2D3864E
:1000A00078E20AA01CF2BDBDCA0B247C2A064CDAF9
:1000B000D9BE0552922E1ED4E7C38B0F8BEF153796
:1000C00010B2D909D025D8904E2D47EF819208580B
:1000D000B811A885A219EC67EAE16B47B09B9D2691
:1000E00003BAFACFD85CE1D6A026D68210E44EE956
:1000F00004771216D0B53D34A29FADBE7CDE1BB096
:1001000005D59D548AE631EDAF079A579695859CA3
:10011000D8E76A7C30D6DD01D87BC5DB64F950E0D6
:100120004310C9D9EA348765894207C6C9475DE3E8
:10013000EB242FD31FBC80AAF511429D0C11CF4593
:10014000FA25CA9846FA86A80C1738AF594B168B71
:100150009D829A8B799B3D1C16203CEAD79B43A934
:10016000A8F9160C674E5C820754A74AB72499EA8F
:100170002FFF66A6D3E1938002FCA1F54D0C65E14B
:10018000218AE7D78599FFF61253FA27448CC4FBDE
:10019000B66D8BC791A538FA71DCB8ADA50E6A2D86
:1001A000EDC7F0299337812D0000000024002700BF
:1001B0002A000000000800020100000304070000FC
:1001C000000000000000424D3E040000000000005E
:1001D0003E000000280000008000000040000000F9
:1001E000010001000000000000040000C40E000037
:1001F000C40E00000000000000000000000000002D
:10020000FFFFFF00FFFFFFFFFFFFFFFFFFFFFFFFFD
:10021000FFFFFFFFFFFFFFC0FFFFFFFFFFFFFE7FAE
:10022000FFFFFFFFFFFFFF807FFFFFFFFFFFFC00DF
:1002300000000000FFFFFE001FFFFFFFFFFFFC00AC
:1002400000000000FFF07E001F83FFFFFFFFFE7F26
:10025000FFFFFFFFFFC01C000F00FFFFFFFCFFFFC1
:10026000FFFFFFFFFF800C000C007FFFFFF8000086
:10027000000000FFFF000C000C003FFFFFF8000033
:100280000000007FFF00000000001FFFFFFCFFFFD9
:10029000FFFFFE1FFE00000000001FFFFFFFFFFF2B
:1002A000FFFFFF8FFE00000000001FFFFFFFFFFFAA
:1002B000FFFFFFC7FE00000000000FFFFFFFFFFF72
:1002C000FFFFFFE1FC00000000000FFFFFFFFFFF4A
:1002D000FFFFFFF8FC00000000000FFFFFFFFFFF23
:1002E000FFFFFFFCFC00000000000FFFFFFFFFFF0F
:1002F000FFFFFFFEFE00000000000FFFFFFFFFFFFB
:10030000FFFFFFFFFE00000000001FFFFFFFFFFFD9
:10031000FFFFFFFFFE00000000001FFFFFFFFFFFC9
:10032000FFFFFFFFFF00000000001FFFFFFFFFFFB8
:10033000FFFFFFFFFF00000000001FFFFFFFFFFFA8
:10034000FFFFFFFFFE00000000000FFFFFFFFFFFA9
:10035000FFFFFFFFFE000000000007FFFFFFFFFFA1
:10036000FFFFFFFFFC000000000007FFFFFFFFFF93
:10037000FFFFFFFFFC000000000007FFFFFFFFFF83
:10038000FFFFFFFFF8000000000003FFFFFFFFFF7B
:10039000FFFFFFFFF8000000000003FFFFFFFFFF6B
:1003A000FFFFFFFFF8000200000023FFFFFFFFFF39
:1003B000FFFFFFFFF8000300000031FFFFFFFFFF1A
:1003C000FFFFFFFFF0000100000019FFFFFFFFFF2C
:1003D000FFFFFFFFF0000180000019FFFFFFFFFF9C
:1003E000FFFFFFFFF0000180000019FFFFFFFFFF8C
:1003F000FFFFFFFFF0000180000019FFFFFFFFFF7C
:10040000FFFFFFFFF0000180000019FFFFFFFFFF6B
:10041000FFFFFFFFF0000180000019FFFFFFFFFF5B
:10042000FFFFFFFFF0000180000019FFFFFFFFFF4B
:10043000FFFFFFFFF0000180000019FFFFFFFFFF3B
:10044000FFFFFFFFF0000380000038FFFFFFFFFF0A
:10045000FFFFFFFEC3000F003800F07FFFFFFFFF2C
:10046000FFFFFFFCC1FFFE000FFFF07FFFFFFFFF5C
:10047000FFFFFFF8C07FF80003FFC07FFFFFFFFF13
:10048000FFFFFFE1C00000000000007FFFFFFFFF53
:10049000FFFFFFC7F8000000000003FFFFFFFFFFA2
:1004A000FFFFFF8FFC000000000007FFFFFCFFFFC5
:1004B000FFFFFE1FFE000000000007FFFFF8000026
:1004C0000000007FFE00000000000FFFFFF80000AA
:1004D000000000FFFF00000000001FFFFFFCFFFF07
:1004E000FFFFFFFFFF00000000001FFFFFFFF9FFFD
:1004F000FFFFFFFFFF80000000003FFFFFFFF00055
:1005000000000000FFC0000000007FFFFFFFF000C0
:1005100000000000FFE0000000007FFFFFFFF9FF88
:10052000FFFFFFFFFFF000000000FFFFFFFCFFFFE9
:10053000FFFFFFFFFFF800000001FFFFFFF80000D2
:1005400000000000FFFC00000007FFFFFFF80000B4
:1005500000000000FFFE0000000FFFFFFFFCFFFF98
:10056000FFFFFFFFFFFF8000003FFFFFFFFFFFFFD8
:10057000FFFFFFFFFFFFE000007FFFFFFFFFF9FF2E
:10058000FFFFFFFFFFFFF80003FFFFFFFFFFF0008B
:10059000000001FFFFFFFF801FFFFFFFFFFFF000D4
:1005A000000000FFFFFFFFFFFFFFFFFFFFFFF9FF5E
:1005B000FFFFFC7FFFFFFFFFFFFFFFFFFFFFFFFFCE
:1005C000FFFFFE3FFFFFFFFFFFFFFFFFFFFFFFFFFC
:1005D000FFFFFF1FFFFFFFFFFFFFFFFFFFFFFFFF0B
:1005E000FFFFFF8FFFFFFFFFFFFFFFFFFFFFFFFF8B
:1005F000FFFFFFCFFFFFFFFFFFFFFFFFFFFFFFFF3B
:10060000FFFFFFCF424D3E040000000000003E000F
:1006100000002800000080000000400000000100F1
:1006200001000000000000040000C40E0000C40E21
:100630000000000000000000000000000000FFFFBC
:10064000FF00ED673997A6DC8EB79106F4D7B1E6C7
:100650008DDDCFD9603E56A100712905E5A066CB9E
:1006600018BB9FB0C786434F09E84C17D3592205E2
:100670002763530EF864DAFE77B7EA5FD3BC398597
:1006800035BE8E379EE59059CF4DE38B944B4B2C66
:100690005541F989DE2ACAAB72743DEEDC6963A864
:1006A000597203E14BA16AB21D129430703927B31D
:1006B000D5009A590CDA47FAAFB2ABE165F5C3E958
:1006C000E1884DC066C8F9832E1731A7AB88EEB913
:1006D000CD7D6F763F6109FE20D189A6BAFF39949E
:1006E000481B3F0F9926FC106948ECB08C0582DA54
:1006F0007FC3F391B8C47BA137174AF88C9C992A21
:100700006D1E2EE8BE4530848FED4324C8EBEB8F81
:1007100089E159567E8A6A0722D49D518CC9C30843
:10072000C5D2A3BFEB01CA1445B2348F1099871309
:100730004BA03A01AC7AE75A77120B7E0A752C6906
:100740001F28ADD886281963B2F7D1791BC85EF986
:10075000539D8E66DF81E91E7C31693AC9A189E427
:1007600087FBDE0F79C61CF077A80C28BCC4328A40
:10077000A82312B158249B41A9F7AAE03C5D296A3D
:10078000BAFECF885EA5D066110DA33467B5444F7D
:10079000DA01B8369E6A8AE4AD347C516C2923E8CC
:1007A000DE32405F0BE12AF5C252D58FF07967F354
:1007B000D2C0D9E14C9A07BB2072EA5EA5B583A9E5
:1007C000A6480E782688B9C3A1D77219EBC8AEF92E
:1007D000AABD2CC67F2149BE2F11CA1AFABF79D4EF
:1007E0001FDB7CAFD966BC502688AF08C267E59A8C
:1007F0002003B011F8843BE150970940DDFEF9EA8F
:1008000016DE6D28FE0570C6E86D04949F958C4F2A
:1008100076611A963ECA2A445554DAF1DCAB6BC8AD
:100820007A52E4FFAB418A557A12732F40FBAFD363
:1008300076207D41EC3AA71BC8B244FE0A37040972
:1008400002A86A1846E8D9A389D71E798BA8CE9941
:100850008E9D48A61F4129DE8701B67A9ADF19B41A
:100860001BFB18CFB906DC318E90F368AC25A2FAD9
:10087000A403DC7198E45B80F0C89520ACBCB90A95
:10088000B2DE01489E6510A540329CF4E8CBCBAEA9
:10089000D23166D65EAA4A2BFD0B4289ACE9E32B26
:1008A000DE02FC8FCB21EA0A826DEB4330B9A73C14
:1008B000DA7C653D8C5AC48430CDD499A5754356F5
:1008C000AEF4B2B7164886FC91684EDED4C871C645
:1008D000B2019001401E76815FAEF6D9C58046EB2D
:1008E0000767C06CE659836ED63793C8F37AFDA5C7
:1008F00078BD0CD1C7BB04D9A857C58033E3E654F3
:10090000EA60D1E8013A4FC6116DC2544B9494F796
:100910008A9FA656FEF56A84A2541DF10C48BF8832
:1009200086AC5C3F6B814A95FD32B41790190793F2
:100930008ADE85812CFA67D88F928BC145D5E3C9B1
:10094000FE582D5806A899DC4E7751C63BE88ED943
:10095000B11D0F195F016661C0B1E9C5257F59FB63
:10096000D87B5F7006B9638FC9288CD7139A1D4551
:10097000E7A393CE275BE43EB7772A9F130306B520
:10098000F57E4EF721DAAF190F8D234B5774741093
:1009900095813949E115F59BB2B4FD2E13565C974C
:1009A00099B2C320749E558ADDD254F08F06188CFC
:1009B00095C05A9E33AD8438917264E61EED185688
:1009C000E1488D0759BF463C6ED7F94EB0D3D1866A
:1009D000EDBDAFB90016B641E011414DA16406ABC3
:1009E00078DBFFD0A6BD33AFE988245F961D39655B
:1009F0004703336E875FC41E97D782179587A295EA
:100A000055DEEE5781DE8F392F2D8BC3D3F0D030DA
:100A1000352199E94111A9BB9214524977D118B7F0
:100A200039126380D43EF52A7D72F4502FA6B82C7B
:100A30003560FA3E9345D864CFD2CB817A6A5C7632
:100A400041E8424D3E040000000000003E0000006E
:100A500028000000800000004000000001000100AC
:100A60000000000000040000C40E0000C40E0000DE
:100A7000000000000000000000000000FFFFFF0079
:100A8000BC51AA8E014D28D16104D09768584F28D7
:100A90006DB5470C19824DBDC801AD20D5B69D502E
:100AA000DA68881D3D0993718F1F435BBA7F2CB4B0
:100AB000D9877B5D197242846D4FF2C10880231182
:100AC0009B6ED88795C0A52BECABD5B0293B791E82
:100AD000D37C53FB0169A6B823AE579EA78001CCF7
:100AE000575A5015BC2EB48BA8B046D6AEE3E57D60
:100AF00032233AB0EBCCFC81D3E0082AD0494072D3
:100B00001C970A35A1ED8871C1A47037C8F8EF8829
:100B1000CD73E7B7B922ED1D68A10D8075163DF0C4
:100B20007AAC28A69DA933D12FBFE3FB1ADF8C1422
:100B3000797BDBE8B9D2E224CDEF5261A82083B102
:100B40003B987830B56005F4B3F48AEF7665C65EFD
:100B50007383F34D61C906677CF108C1F8DEBE8C72
:100B6000F7A9F0A3DC8E1454F7EF1989F1BD5A3DB3
:100B700092199A324B6C5C5E8CBF57758F17E732B7
:100B8000FCEFEAB1A10D68EEDEBB6F28D7E00C8860
:100B90002C0AF8B3A9C20D8277BE129F6A06CEF066
:100BA0009BD737A28D49D34E30A0FCE405CD7F14EE
:100BB0009A00C4ECA13202BBD2F04D7EB73270B1C4
:100BC000D8EB6734A980E51453146A0F96892ABEBE
:100BD00090F0EC497D29E6879C11E82118325E6C83
:100BE00014D2EFA7C26EF4B4170FF969115DBADD24
:100BF00071FA8516D58CBCBE6C5FB7956FF71FD2A6
:100C00005F4EB5911EADC84E7E1BCF8877479028AA
:100C10008EAA58130662AD22D71EB23FCAA98250CF
:100C20003977970222E973EE90005C44A56033B4F3
:100C30003AA0644C0692A21B7250EDDE179F3C1145
:100C4000784BC7940A2045B4F3B4CAAF3624661E65
:100C500032504CE9DE8946273CB14881B89F1ECC12
:100C6000B7724F0763CE5414B7AF59C9B1FCFA7DC0
:100C7000D29A25B6742C1C1ECCFF1735CF565F7246
:100C80003CD6D10D7ECDA8298C549BF6E7BB2648D7
:100C9000ED35C78F6602CD4A255FF05DBD5DC03082
:100CA0005AE8089E438912056E4F5D3A379C10D46E
:100CB000593FFBD266F2C5F30059AD2C666FDE7169
:100CC0001BD458086A403A5301FB9A91A6D9007E7A
:100CD00053CFD375BEE959C75CD128E1D8FF7EACAC
:100CE000D7EDD09B02AECBF4D7CF39A9D19C9A1DBA
:100CF000B2C5BA2A154D83FEAC9F7755AF363F1269
:100D00009C718AADDF8D088EBEDB0F48B78790E8F7
:100D10004D95672FC6526DE217DE72FF0A69429049
:100D2000FA48A83EE2C9B351AF3F637B9A5F0C9487
:100D3000F99F5B72C69262A44D6FD2E128A0033185
:100D4000BB74F8AACA60850BCC8BF590091B593E81
:100D5000F36F73D61EC98698038E77BE87A021ECE9
:100D6000774D7038A38E94AB889066F68EC3C55DC0
:100D700012651A8937ECDCA1F3C0280AF0696052C9
:100D80007C916A4ED28DE811A1C41057A8988FE8C3
:100D9000AD7587CCC0C28D7D08C16DE015765D90C4
:100DA0001AA848DDFDC68C61EEFE8394B2FDF37493
:100DB000197FBB93D9BA92540CAE3201E002E31111
:100DC0005B94184BD50875FB894E157083B9B95ED5
:100DD000138F933601A1766746519759A882CE0C9E
:100DE00097AD90D8BCE6645BD351861A666635BD74
:100DF000F285FA69AB042C4E323EC8E9F7010F7256
:100E0000DC31CAEE612558B12064B0F708382F48AC
:100E10000DD5276C79E22DDDA861CD40B5D6FD302A
:100E2000BA08E87D5D69F311EF7F233BDA1F4CD4EC
:100E3000B9DF1B33791222E40D2F92A168E04371D0
:100E4000FB34B8EB75A0C54B8CCBB5D0495B197E94
:100E5000B32F3396A109C6D843CE37FEC7E061ACA5
:100E6000370D30781C4ED4EBC8D026B6CE83851D06
:100E700052255AC90BAC9CE1B380684AB0292012B4
:100E8000424D3E040000000000003E00000028002B
:100E90000000800000004000000001000100000090
:100EA000000000040000C40E0000C40E000000009A
:100EB00000000000000000000000FFFFFF000661CE
:100EC000904ED6F74C69CF3F89936EA1409618D5C6
:100ED000338DB6F785CC95771F28D945832D30A85B
:100EE000601E62E3029335F3264BA298104E0C3E2F
:100EF000AA55A7A76141189638E1384F5BE43057EF
:100F00007B97686BE3A0061840F049A489F58449F3
:100F100012F25B3E2AAFF6C97C1E67BFE01BF96187
:100F200019B7B980ADA5037E10D72F9D26D26F5D6E
:100F3000D016BC91CEDD847DA428D3B5C72DA6D113
:100F4000C7314897ECC9689F2933CE01E036B86DA8
:100F500060E228A7256C2BD7BF8879E5238D9014F4
:100F6000F17DFCBFA2336A5386EB0238B0EEAF824C
:100F70000EACB9F801EE4736984198EFFB44937BED
:100F80005C39AE34BCFF59B8E050E90429552569F5
:100F90005391AB6175F0A969DCBEC71F40BB59C155
:100FA0008957175FF2FA5CDEB0778F3D8672CFED1E
:100FB00070B61E2E9182DBDD04887315678D463D69
:100FC000A3C1A8B4F3D7F07FC9D32EE100D65B89C3
:100FD000631C48B7FA6CAA375F689905C36D7364E0
:100FE00026422CA35ED30AB3660BE2D8500E4FFA0A
:100FF0002D8A84E73D0127D678A1780F1BA470972E
:10100000CC18102BBFE0395800B009E4C9B5C41999
:10101000A371457E76EFC989B85E27FFE45BB939D5
:101020006DA7F7C0F1E53C3F54872FDD24922F01D7
:10103000574AFED1929DBB3CFB78D438756DE51DB7
:1010400074F70817B08950DE6C6BCF59F276FBB19C
:1010500054737017792C0A96FAD0D8B531CDD1C80F
:101060006721B003FE73AA12D99FE34902AEECDEFA
:10107000BD6A79479DA18774CC3469CEFA04D0A7A4
:101080006CB8B68B1F4099F9B43538552B1564B53B
:1010900087C9E53ED64F692889DD964652FB1A9DE1
:1010A0002E39D79C51459C9FEF54D64C34328C310D
:1010B000C1354E8ED23E9B9CC03C88B565CD8765C0
:1010C000D75174883316B0BF4D13EE21841698D5CE
:1010D00044D20C48FAB3EAF79FA859C503ADB0381B
:1010E0001741DC647DECCA73A6CB221890CE8CA687
:1010F000D91A1927DE39E716B861B8CFDB64B0CB4F
:10110000CAC4D6EB7F20F998C070C924297507D5C9
:10111000903785BEB62F094983117841709B7A6D4F
:1011200099B62F003125FCFE70D5AB15BE52EE5D91
:1011300050963211525D7BFDE42A573D4BAD26415E
:1011400047B1C8D77049901E29314A8964B638ED35
:10115000E472A8D7B9ECCA56BCEAFD6DD50D10945F
:1011600071F97CC33EB36AD286697EB0F66E2F02F7
:101170009A2439875D6147B698431C67B9C413FB4D
:101180005DBB664BDF805938E0526D8C2FD5A5EDE5
:10119000F351381E168FA9E91CBC43D7063BD9C1B1
:1011A00009D793A091855C5E0F7890857AF24F6D98
:1011B000F0369E31F2FDDB5D8408F395E70DC6B98C
:1011C000A34128C790A970FF4953AE618056D80942
:1011D000EA8A48C9590CAAB7DFE8198543EDF3F448
:1011E000A09F1CDC3E4C0A33E68B6258D08ECF7A2F
:1011F0006A9569985E7E2756F821F88F9B24F1172F
:10120000BB47AA54DC9F39D880308964493544896A
:10121000D42EFB011590CA09BCDEA77F20DB39A1C3
:101220001EE8495F929A23BED017EF5DE612AF9D8C
:10123000E7094052F1E244BD64E8137507ED660129
:10124000F02EB69713F9AF5FE9F30EC120F678B52B
:1012500053EDD697E5ACF5177F48B925E34D50C857
:10126000007E028362F35593462BC2F8702E6C5EAB
:10127000CA35C7C7012178F65881582F3B845037AB
:101280001BE7080B83C06678209029C4E995E42900
:10129000748E5B5E4ACF96A91C7E07DF807B990126
:1012A000BE48E9E0CDC5631E70B74FFD46B20F3DA5
:1012B00047A9E0F1AEBDE41DC448B3D5A74DD87C25
:1012C000260413D6BD698E759E47CC1DFC3E19C9F8
:1012D000878E75AC631DEB58C79ABEB18E75AC6333
:1012E0001DEB58C7BACCD74952A4B94B62B81E6A95
:1012F000C3188E75AB66FBA2A6123AD6C915F49335
:10130000092327180FF8454432D471BB64A8D2AE24
:1013100003B2728A5495DA9C26332B584C7852D5F6
:101320006BBA9B9A4A5BA89FDC25117E152565C286
:10133000A857CA76A25098AF84A629BD599D353EBC
:10134000709C73DCE439D388CEC025B1986643E342
:10135000390F184A4D39957A8D93A80D97BA5520B3
:1013600056D00B9FF4C21E03073B1BFA312CEF83B0
:1013700069FB0A9A3D826A728E46E555D6F0E9C548
:1013800058F2EA76CD9C660CADF8ABF8898FA6EFE3
:101390003C26B0CAD9CAA95575960B5C1948635842
:1013A0004973FAF057D9DBE79BDAB7CBEEAD918AF8
:1013B0002583A9BE8EB84EAB8131908E042A4CE1B4
:1013C000D050E4C1339B66C3A622BD00C42BA66FD8
:1013D00080CF2427FBD6873C7E028B565643A9E359
:1013E00040F9D4409651990BBB1D1561DA4C582237
:1013F00053906663A8100D64CD368E33A0533B1B0B
:1014000010D70987097EF46C577BA5207F65CA50E9
:10141000B65399A91CD2F172B82E674AB53ACBA43B
:10142000DE2D5529D1F5115077BAE3A336D109C67F
:101430009239F59DE9936AF6128A485FD274723741
:10144000A4A253C713496F7A939742046575A4FA0F
:10145000C18726D199243B25CE98194890C2A184F2
:10146000AFFBD82BAB094141C22F8D2C2565EB0476
:10147000C94EE0DD9080A524E8CAD25951F8F9B4EC
:1014800044FAFBA4D2A2A8AF28A5938D5A15AA02AC
:1014900041674551E26E941F3D6605D3C9CA2FEAE4
:1014A000EE839A6A5D31032ACAEC3131A036B5AABF
:1014B0004F9D4A522F8610990A14A24899394A67BB
:1014C0000A5341F143E34381CAD062E9328DB794B4
:1014D00028041D7743EA11F56A6A449EC65EE94511
:1014E000AF856B93C71CC6EB605942A5594D946DEF
:1014F00044632C85E843FD8DC7A72AC4A702AD1815
:101500001614FAED6325BB2A4379794A494EF34D07
:10151000EF8CE20C173656726A75A9CE6422B0AA17
:10152000D3C4511AF49C2C75EA38C9994683C2E198
:1015300063DD64DF28AB0332765A1182A97C270D64
:101540001FFAD00FB22F9604FCD5D978E9CE80A629
:10155000B1A28E035DD680C5C556DE727D0405A599
:10156000497FB5C079227372676B9D17AC4A409F63
:1015700026949BF13B28155F075445125477061AB1
:101580008611A9884F9B3E328D57942AFCD2380C85
:1015900002C2537F8A5326331FA9A08F862B7BE478
:1015A0004CE852F3894889BEEF98BEECE69BE6F919
:1015B00049394AF3A37E4BE8032738B526AAB13A46
:1015C00028BCDAFB7C685523C2CFA42552A03BAFD0
:1015D000C93E239212A68A4BA817F9F82B775633E7
:1015E00093E7FC2230AF2647602A48AB5763E83ABE
:1015F0006D98A3AB8A2F9504FDA0E3606A20349612
:10160000EC780CE5A67E12BA328DBD1388B0A4A189
:101610003873841DA976D3874F7D6542BD89BCA2EE
:1016200021D39B451BA78204894FDC31748100B014
:101630006924256A356C968857EF6C1C3CB1C9CD7E
:10164000D61994A5A224E5F14CD94B92B6929C37B9
:1016500094AA2EC599C6E355322CCD9C612A890ADD
:10166000542A4E53A84A33E8FAF819AE6A82EEA912
:10167000E1EA1E3EC74AD4841A688EE20C61281D36
:1016800067B56696C8A8C053DA57AD78409F5673C1
:101690009F883CA235E527447DAD73611F93A42A42
:1016A000A9FABA577E9593ED1CD2C758F94A762607
:1016B0004CAAE61C252703E7B8565EC78B4C8CA2C4
:1016C0002EE347D25D6E75820BF3A117A8A83108EF
:1016D000F2AA98C53CA4298BB65402329489D50449
:1016E000560B250A87667E549CD35390E366694364
:1016F000C54D2D47A0632541D778B50ACA31898ADF
:10170000A36912AD694DDD35CE9AE8B426EE724775
:10171000CED7C9719CC063694357163FA5F2D39CCD
:101720008D3322C85259509C7D8C80D0044035D3D3
:10173000E94CFD18758F1084030AE1B730927E7072
:101740009E2B3BE00171D84BAFB1947AB8035D0E8C
:1017500003DABD2422725DB06C66F68EB8C0EA284A
:10176000A8A159BA6624550880349A9294931B67AD
:10177000BF8AC5D0DCB1B2974CE425290F3AA475D5
:10178000462995E6AB680C0D3A4E7DC1B27D241B0F
:101790002B0A3FD9D0EB481279F96C2523C5774B3A
:1017A000AB02209DF1DBE33CC335C7538E33935A24
:1017B000D54F3A27D73EAE1A938FF11B201BAB03B0
:1017C000AC5F99F49343BAE52E2BAACDB0BC736AF3
:1017D000EF9C1E50ADF94CAB05AE8446EC66B8C22A
:1017E000B2C0543E9094DEB4E9FA14994E3E5ACDFC
:1017F000990A7AE4036FB94C58CA91AA2B8303174C
:10180000F908079BC20E8CB1FCA00F3FA8A05E6E2A
:1018100095577B64E7549328472606CE6BDEF46128
:101820001B5939CF92193370E784A65627983B98F5
:10183000BE139D09EDA6548DDACC56B253850F0D1B
:10184000E53C892AD274A2317E92BCAA35639843C2
:10185000153E32702A24A8294BD9CB67F6AB949A4F
:1018600014A51A412A4E491E10A4D75918410377CE
:101870009DC965D28FEC7C2033B9A94DFD98739634
:101880009FDCA328F5D72F4162E79DCC3CE033C510
:10189000675498B66F860F1C8F302BC84A56B22DEE
:1018A0007BB1BC4E7526C753618EB27B6139DB3C80
:1018B000CD172E2E8E7380DD0CA8F968EAD30FDECB
:1018C00030477E74E43A3F083F9A5EF5754DDCA5DB
:1018D0001759F926A09E0DAB0DEDD7EB5A194960AB
:1018E000A5AF646C9C60EE7A493DA0A66F82E604C9
:1018F00080107D0A3F63AA54A5BBCC1AC972274940
:101900009249729E2563251B8FD8445A7DB28C7BE9
:10191000BC1A36B919BF843E70935C1525E92A9923
:10192000A3329A0F78F8349F1C35B95453DEEEA0D9
:101930000D2D68B816A8CCD74D706AEB64E43BF166
:101940001916C581F2750BB322EE1404C18AA69153
:10195000A8E7EC2557BD364F4ED2CAA84A056A41C2
:1019600047893BAB3DF59C4FB52AC9CE094AC735DF
:10197000D440D68CA55507D8BA12698CABA0949FD9
:101980001ABFFA51C78112742015E20C8D99C3EE6B
:10199000F12A7B8F0419FBA69935589A13672413F3
:1019A000A21F4B995060B10D7E1FFC95DF9A88BC39
:1019B0005E12F4A00ADA27013F4640EA656FAC5A8E
:1019C000C55994B277D55E06F2A1A10C25288FA83F
:1019D000545F02F380C874A6D598283F44AA946443
:1019E000B04C6328BBA9C084A6F291D9E4154FCDB1
:1019F000D9B840EA948D6C2B592BBB09C692495536
:101A000093511426228754D5537A6D5D9ACAD23EDB
:101A1000F7E94B588ACF9C63859D537177BC5D0273
:101A2000F3864D64240A85A81F82B692A1A42BE6F2
:101A3000EB3EB94F1B822C61E61C0F0048B7CE4C21
:101A4000E250ABCFF4DB310D6AD5C049F3780175B4
:101A5000A4F87CEAD379DA309F9F4464317DDA4B75
:101A60005D26F1A9C284033A5BB7D46E3AF29D2594
:101A7000BB6A1B4D59B4ABC16EA9D5DC65F7D2A9C1
:101A8000C07CAE6B93D734907E80A92930CE31874D
:101A90000FB561FB7224C90A56B28CF344DE90483C
:101AA00036CA48EA528D682C5689A89743033D50A0
:101AB000973464DF1C71B84CECEC91A13902D92D3C
:101AC0006349535EEDB182F86CA54D1F9ABB289A0D
:101AD000325CE814E4341F48BDEBE88791EEEC9EDD
:101AE00055E5C74D4D0DE3992455E4D448C736F666
:101AF000A5537FE89C5C585E89BC0A0652A7055D29
:101B0000D9EB9AE8D4487255933A45E9F484C9C9A7
:101B1000AB1AF19AE984DFBAA00953E061B3A0825D
:101B2000C4EAFBDE8733735EF19945C3E63CA9172F
:101B3000503F169474153DA6337FB54E868A739F29
:101B4000C70B652F81D54A90DD7286875C9828DBAC
:101B5000493A6CBE0F87D97464263FE6C8846ED5B7
:101B6000A0BE9C5C2A1F99CF54026B5DD68C642664
:101B700011095268E28E74F04BA3BE68F8D548167E
:101B8000F3A9D334A84E1D79BC8222F3A104545C7E
:101B900025DDF9D53DEED29BD5C911574D399E674C
:101BA000B6703CCFE46908251A258D6952A5406DB1
:101BB000A3FCA8F8505FB6527E2BF31A4BF718B867
:101BC000F60DE988B9AB0E3C63A8BF28BD6F8187CD
:101BD00054A93563794A05E6C8942C75DC3BD7399E
:101BE000C0185A319FFA6A2343993847AB05B45F4E
:101BF000284D9851CBB9CB1BE6F34DBC82834843AB
:101C0000199647AA51A9ECFB55F6D6284D3046C97E
:101C1000A455D52576D65755F6D1D0A98F9CE72B5C
:101C2000FDA820F1698A9110FCD847154453DC3196
:101C300012AB00382813A3B8D519BAB38415D54F01
:101C4000948E2949F12D354BD9C4D95273C4CF1282
:101C50007A2D4AE734251C2A7A35450E109BF80464
:101C6000A94A959644EABD73863873EA2B25AA499A
:101C7000665A1567431A864AAB8A559CAD73994CD0
:101C8000742623C3C2D51259739FCA14A449C7AA84
:101C9000463592F393C734A71A1159229682129DA2
:101CA000377C60941A57345DB2B1851FD4EA0D9524
:101CB000D9CE95A5717A7C6C28270948B2406A0C68
:101CC000671F13E9C7C0389E54FACD8FE97CE057EF
:101CD000BD1838D8BD4F81FA51A3D9B45AB2A99DC5
:101CE0000D8D247DD31CF55722987E90AA56FDAA0F
:101CF000E3948A3B8D5D51A4A14C283055AACB16A4
:101D0000A6D18BC5526A313FD6C6761AD491CFFC84
:101D1000AA0D8DF9CA50961282918C6228399925A4
:101D2000A5BE127E0A0C213F5F79CB8F29708F4BA5
:101D30002D512ADD79352F7A6D992B7B2A3F495712
:101D400041520AD240CC04C02B87040766865091CA
:101D5000F183A00DD978C0772AED6CB70C25F03E41
:101D600098491CC2A19C3C55AAE2CA784D6C5647C2
:101D700077C5825D0551B83E683E327B81BC628E7C
:101D80005068C554E6C891D954E030BC28C8C9E5AC
:101D9000CE71ED44270A17A64B4976138515BC5A18
:101DA0000863088037C14F693A15663397B9C7266B
:101DB00062F386CA34A8392B5AD0F108339F0C2518
:101DC000992A89EACE70E992866B44E915B1A9CACD
:101DD0005DCE1291BDD4DD2CA786CD2402EB7645D5
:101DE0003B5B41F139432BFA8D89DD4B18419DB99D
:101DF000402EBECF6FEF642856A9AA552E36B45890
:101E0000C77C252B7517509F7A91A7BA7B1F0A07AD
:101E1000E84E52AEAC7D44D5D43A7739C052AA527E
:101E200095F2E3E2391534CA86E68E94A64467B18A
:101E3000B839CD587E9274555DA37E1676C00F7268
:101E4000328495E423046378C375B13487D779135A
:101E500041DFF4D007C212A470F0DAF49A69C473B7
:101E6000C61074C89BDE5661FA454462733C109CF0
:101E7000A73013FAD43952EF7607442436C909BF84
:101E80001C3D9380731C123601B04B2EE6CEAAD9AE
:101E900084E635DF14A56B1E3086934BDFCA0C44F5
:101EA0003AA196335C5B355FBF92E8CB0526319B48
:101EB000C06AA5335568C3377DD2AA093BE7E4E27F
:101EC000E7355E6DB5A2AFCBDD55E5B7CE16DAD4FA
:101ED000AAB0531C489DC9CB52F68B802CE5E9C7AC
:101EE0007CEA4864B651A83465243B9D2A49BFD991
:101EF000B0AAEE54E3357527C48A8E9580EC74261B
:101F00005587D44B031993860A9AE104B1C3D0C90B
:101F1000658D642255632F79FA2B2B62359461C944
:101F20005E439B194BFDACAC75C584DDFB8E09414E
:101F3000F9A1109439BA1A57DDC92BF8294D90C66A
:101F4000A4E2ED7E052C361E73968F54A60D8159A2
:101F500022512A2D8A0515EAD93E065315CE917ACB
:101F6000A254253F759944A57DF5ABEF3CE747F9B1
:101F7000E94D2F7CF575FC14DFD40A8ACDF51D30B0
:101F800077920C24DB0EA8422A36348D2884E77819
:101F9000BEF8A66656479B3C5569B152B92EBF2183
:101FA000129EB863A217DFD74600ACF1A3C6D42AAD
:101FB000FC4AC8532FA27093EDBC9D553799508DA4
:101FC00021B2758E1B202335F9CA705507858D7B8C
:101FD000A03441C75277C2AFA247D42AC81CC74910
:101FE000EA25B48457FB62FA1E7AD036A2B0441FA9
:101FF000F52517693ACEA205929B387C67E03495A7
:10200000BE6A9ED20BE6CC1E324B3935A91A93AB71
:10201000E9CC26518BF548051EAF585FD5A417A310
:10202000784E3F3AEE80ED9C5E190FB8CBF4AD6B65
:10203000ABC80C64F78C6A4C398EF295F39CAA24D9
:10204000754AC3238E929121F4A233AFD84D34AA9E
:1020500091806DFCD529773935F91D1499828CE56D
:1020600034B99A3589020B824B1DCF5881A9BFAB79
:10207000CDF2AAAD93263361FAC975795385692CDF
:10208000D6D58C79556412749A283C28EC34D5BE88
:102090003276B3A25325A04A0DC4CF510672ABBA13
:1020A000C419CE167645A28E278D51C2D9D90E3AC3
:1020B000B5666E354A25D2DF3CDFA74B654E5381AE
:1020C0004342A31AC9D9BAAAFA50A94225DD2B0D59
:1020D000D4CAC0E13084DD2C96327187CC74A693CB
:1020E00064D26C27CE8027C74C86324AADE323E802
:1020F0005AE805495E478E225DE6380F38D5AD02B5
:1021000091AA81241D3E3539C1758DE7A15F8D24CB
:102110002F0F59B21C8DB29DBCC221CE9A99CDDB36
:10212000F9749D5C6CA651A7694C3898749D8D73A9
:10213000DC38E1A7B8DBE9673C68CC9A0FD3B7B0CD
:102140005F797197DDD4543BE779CA7C0E906D3985
:10215000BAE2231B275230F6F28A5FBD66250D5482
:102160004A933E159924D354FB0E894D7122B358DE
:10217000D0D429EC480AD432824E92ED5BA3EE70A3
:1021800097B50A1E143BA5A462C92A19C9C931947E
:10219000898A539A2AABA931833633A039B2A9521E
:1021A000B17A35525653A425925F251FC8D0247AA0
:1021B0000182446D9D35978948A332F48072F46999
:1021C000FA8079C36A8251A40B0B9C28490752D824
:1021D000EDD197FCE4A63B59CAAB2696D3A4EBD429
:1021E0009F246938CE92BD4FAB886CDC0D6157CD12
:1021F000EC61B5A0494C9F5535E64B5AB54FA8B395
:1022000014243BBD59B4523293574B0DE43A71C874
:102210002BFD3032947B7C254141C6479F1E4F6386
:10222000457BDD3A63893CA5599191D82CD93E85EF
:10223000D8CA4872517E25FBD81AA7D9BAA92D93BE
:10224000A13EE5E443690ABFC9F1F4A30D45661355
:10225000ADD6C6ABB551856BAC6AF6CEE905564E28
:102260002E7DADF482D2CAC9CFC6E14EA8FA035D75
:102270007580F9316582F26C8ABB1A15D119C57364
:10228000AA12A8A35CD928AB595103CDB07DA36491
:10229000A63949C750347EF53A886C1F1F4DA93BBB
:1022A000ADB6D07CF37CE5BAA8A8CBEA04AE7D3409
:1022B000DCE441419AC612C1C171CB6C5F2C69EA62
:1022C000C886B632848F54661255083AAD3274AA65
:1022D0000F9D60750A8ACD1096689ADA942855ADDC
:1022E0006AD079268C9505BDA25345B94E027A8DE8
:1022F00097BC54A93051F8B14A36118DD84463D6F1
:10230000D028494E02D3A9FA216989F2894EAD7EBF
:10231000D19A8E6B251F19F9D1EAB0719654546980
:1023200013A374C32CB1317B5CE46655DF87B3E93A
:102330007D15A6D70163FA1638CD7019287E576C23
:10234000A233C91948445AD1977E8360963EBA3E5B
:10235000501AF19655D5263BBBC9C9D61D538842A4
:102360000C8B520549D2F531F2A0A413AA5141AA0F
:10237000B454F692A10F0C251845FA3A4DA2F17605
:102380000B4C5F09B5D94A5E2AD09B13F4255549F9
:1023900066D0AB55529AE993E31ABD709D5BA68F48
:1023A000A4E94CA3F9A039BD28F66B9D60C421ECCB
:1023B000FC584D6D5E9556D22CD6231F3AD6657AC1
:1023C000216B4265E3F4F457CCF569F281CA94AA13
:1023D000320DF44A0379F38640ECE6D93849D35FED
:1023E0002955A7999CE02BDD29BE53F28A9BC75C37
:1023F000A7C6AE634468CEB19CCF4CA84EAFCAD33B
:10240000545E332C54D5D7527D894D303EB0AA430B
:10241000E22936A3D850924D6E8DA0ECE555C753F6
:10242000423636319FA0DBE5EBF6784EFDC4709D59
:102430003684A52FD7893B383CD597537B65F772F7
:10244000C4D2101EF191FAA9A817D4C8CA078252A3
:102450004125B3EA350397C3F5AD4C7CC0CC910D53
:10246000814732919ED3A9732CE723BB69527D2DFE
:102470005569D36462125BB74F441E8F56E2B4A213
:10248000827C1AC34F660D77076C620CF94855C5FC
:102490006D1274B00BD72DCF864C082EEC9681AB05
:1024A0002A4903C952981A93898E24E91EDBF7D46E
:1024B000EA64926DE1B2E13E6FB9C0DCB1714828C7
:1024C000D5572C23494AA7960C7E25BB1DB02697CD
:1024D000CF7156305C107C9FD55A8846A736B18C98
:1024E000BB54A60F0B5A415576D399315C264A1737
:1024F00058B484EA527C9A9AA6E3D268D401A2D155
:102500008659032A135F39A4837292A8BD045EF62C
:102510000EE8CC582A958B4714242807E847AF2D9E
:1025200030907B2CE703D3A7A916725188467CDF35
:102530002EFB2555987E0C58DEFC5537C7CAC9516D
:102540006AB3A28A6C9D391D7935636AB38D9FF495
:1025500069EE3EAA48F6297048517AA54AE1794DBC
:1025600071E6F095572BA8331539562FB29394384E
:1025700084DD3060D7C20F26743C0BF322FC78391F
:10258000CEB004B27561392241A328BF8A16ED5737
:102590005C4D5F96A80ACC4D123077AFF4E39B50A8
:1025A00018B8F6CD919F72FCE4ED4077B6F8A932E9
:1025B000476C8B6533892ACE0346727DE933E20C82
:1025C000E5E8C5AB0175AA57F3E932710841ADD210
:1025D0000A824A7BA844CDB6464556B28CC350A465
:1025E0000D8FF8ABF48510A42DC4A11F49A929A310
:1025F00092B3A05E83651911D9CC82168DA661C9EC
:10260000274FADC64AD8BD93AA3844261A4BA43BDF
:102610006D3EF48B12DD2A3FF3E94C5812F0995EBF
:10262000B3A62F6D6A544DBE6F802CB5264BD98949
:10263000CD84EA929CA4CCA6C6D0D84E2F8E927D93
:10264000492C2736B9094FAD7A7148E634DB903E04
:10265000B64C05A5CF87AFCBA4D98A66D5727AF3DD
:1026600086046C2829BFC84C74B21364A02BD11700
:10267000DBA84834F68B97D30B2528E1801D924EBA
:10268000EEABBFEAA5342148405542737DBCE26AF7
:10269000299526C48F2EEC8A8E6CA2312599BEC650
:1026A00009717D495C58559D5A3415E6A89C56DC45
:1026B000AA56D7555526FAD09A3C7DD3CACCC644E3
:1026C0002BA6AF9ADDA3152789FA412346517C300A
:1026D0004DA5207567CC10DE3289DD9B9E30695593
:1026E0004147924C90434224CEB449CE6AB68E9D67
:1026F000C07B1F486978C5AB5E759FE68C5224A3EA
:10270000344141EACF9C2B1B86174D0AACB068724E
:102710009A1FB3292C75B7B062F98D8B60B4A9519B
:10272000F7C9D2D6E9EB93CBB42122B356221C5A77
:10273000F598AC4C18ADD2B8547C7EF593E50C25D9
:102740002941F74C5D1EF16A9CAC0E412B084F9A53
:10275000265471A3044031610ACF741A7197281569
:102760002AAD14C449A77E519AD5F9EA0347994F77
:10277000F395E88A7C54DA073F483D91DEF080B952
:102780009328E926D74A8D89B297555D2A4ABD36E6
:10279000D692F1D29DECFB2A0DF5E553824651818C
:1027A00072E4A42207283F021AB19C0A7C28374B06
:1027B0008452A91EF0888AAB66D1AC7ACB238E53A3
:1027C00063D4A39550D5B855A1D2908015BDA23041
:1027D000413A0C56BE69995A352AF2BC6655A2E2B6
:1027E0004CA98C04D60CDDF92656666F6AE3915F1E
:1027F00035D3A9492E72D5A081D3E4FAB269352B1D
:102800008AEF996A4CA83B63A94A41EAAF68601C09
:102810006B8E50AA3B923EF5764CD49756BB59D15D
:102820001C9AF294EF14A42F8589D21B1EB38C82BC
:102830009C274A1DA74BBF65CD9BA4F39B53C15852
:10284000225882149F4D6CA22E19599D8FF5D26C7F
:102850005404A922A7EA0594AECF7C63E5EA3CB70D
:102860003A56AE56743C911CEB3EF9C9D5B172355F
:10287000A001E52A57098ACE078E35A14FE5EA293E
:10288000BD18B8878E75AC12E5AA529F3AD6B18EA4
:1028900075AC631DEB58C73AD6B17E14A46315E935
:1028A00058493A56938E15A56355E958593A56A199
:1028B0008E15A663A5E958693A56D88D15A863D533
:1028C000E958793A569F8E15A8633DE858753A56EF
:1028D0009E8E75AC6355EA52C73A56A73E95AB63D8
:1028E00095AA028F38CDD7810CAB5CD5EA56B93AA0
:1028F000D6AF8E75AC631DEB5801000000002020A0
:1029000020202020202020202020202020204E6F4A
:102910007720616E6F7468657220696D706F727474
:10292000616E74207468696E673A206174207468FF
:102930006520656E64206F6620746865207363721D
:102940006F6C6C2D7465787420736F6D6574686935
:102950006E67206E65772068617070656E73207495
:102960006F207468697320626F6172642C206A75CD
:102970007374206265666F72652069742073746178
:10298000727420616761696E2C20697427732069F5
:102990006D706F7274616E7420666F72206368610F
:1029A0006C6C656E676520382E2049742773204E45
:1029B0004F572120202020202020202020202020B0
:1029C0002020002020202020202020202020202027
:1029D0002020204865726520776520676F3A206760
:1029E000726565747A20746F20616C6C2070656FFD
:1029F000706C652077686F277665206D616465204F
:102A00007468697320686172647761726520706FA1
:102A1000737369626C652C204A6F65204772616E22
:102A2000642C2042616C64616E6F732C204D617266
:102A300063204F6C616E696520616E64206C617308
:102A40007420627574206E6F74206C6561737420DD
:102A50004D722E204F7074696D697A6174696F6E62
:102A60002E20202020202020202020202020202058
:102A70002000202020202020202020202020202076
:102A8000202041626F7574207468697320736372CB
:102A90006F6C6C2D746578742C20696E2074686579
:102AA000207075726520747261646974696F6E203C
:102AB0006F66207468652064656D6F2D7363656E45
:102AC000652C20746865207363726F6C6C2D74655F
:102AD0007874206973205645525920696D706F7261
:102AE00074616E742E20416E6420746865206D6F71
:102AF00073742061776169746564207061727420F9
:102B0000697320746865206772656574696E6773A0
:102B10002E202020202020202020202020202020A7
:102B200020002020202020202020202020202020C5
:102B30002020576520686F706520796F75276C6C51
:102B40002067657420736F6D652066756E207768E9
:102B5000696C6520747279696E6720746F2067658F
:102B60007420616C6C2074686520666C61677320EA
:102B70006F7574206F66207468697320626F61726C
:102B8000642E2020202020202020202020202020F3
:102B90002020002020202020202020202020202055
:102BA000202020496620796F75277265207374751F
:102BB000636B20736F6D6577686572652C20646F39
:102BC000206E6F7420686573697461746520746F1A
:102BD00020636174636820736F6D656F6E65206636
:102BE000726F6D20746865204772654861636B275A
:102BF0007320737461666620616E642061736B205C
:102C0000666F72206578706C616E6174696F6E7347
:102C10002E202020202020202020202020202020A6
:102C200020002020202020202020202020202020C4
:102C300020204E6F772C2061206C6974746C6520A5
:102C4000776F72642061626F75742074686520709C
:102C5000726F6A6563742E2054686973207365729D
:102C6000696573206F6620686172647761726520A0
:102C70006368616C6C656E67657320617265206D59
:102C80006F73746C792064657369676E6564206620
:102C90006F722070656F706C6520626567696E6E1B
:102CA000696E6720696E2068617264776172652061
:102CB0006861636B696E672E202020202020202011
:102CC0002020202020202020002020202020202024
:102CD00020202020202020202020202020202020F4
:102CE000202020202048692120536F20796F7527EC
:102CF000766520626F6F742074686520626F617200
:102D00006420616E6420616C6C207365656D732056
:102D100066696E652C206772656174212020202011
:102D200020202020202020202020202000424D3E56
:102D3000040000000000003E0000002800000080A9
:102D40000000004000000001000100000000000041
:102D5000040000C40E0000C40E00000000000000CB
:102D600000000000000000FFFFFF00000000000066
:102D70000000000000000000000000000000000053
:102D80000000000000000000000000000000000043
:102D90000000000000000000000000000000000033
:102DA0000000000000000000000000000000000023
:102DB0000000000000000000000000000000000013
:102DC0000000000000000000000000000000000003
:102DD00000000000000000000000000000000000F3
:102DE00000000000000000000000000000000000E3
:102DF00000000000000000000000000000000000D3
:102E000000000000000000000000000000000000C2
:102E10000000000000000000000000800000000032
:102E20000000000000000000000000C000000000E2
:102E30000000000000000000000000F000000000A2
:102E40000000000000000000000000F8000000008A
:102E50000000000000000000000000FE0000000074
:102E60000000000000000000000000FF0000000063
:102E70000000000000000000000000FF80000000D3
:102E80000000000000000000000003FFC000000080
:102E9000000000000000000000000FFFE000000044
:102EA000000000000000000000003FFFF0000000F4
:102EB00000000000000000000001FFFFF80000001B
:102EC00000000000000000000007FFFE00000000FE
:102ED0000000000000000000003FFFFE00000000B6
:102EE00000000000000000000003FFFF00000000E1
:102EF00000000000000000000007FFFF800000004D
:102F00000000000000000000000FFFFFC0000000F4
:102F10000000000000000000000FFFFFE0000000C4
:102F20000000000000000000001FFFFFE0000300A1
:102F30000000000000000003003FFFFFF00007C09A
:102F4000000000000000000F807FFFFFF8000FF07E
:102F5000000000000000003C000FFFFFFC001FF815
:102F600000000000000000FE001FFFFFFE003FFE0B
:102F700000000000000007FF003FFFFFF00007FF18
:102F80008000000000001FFF807FFFFFF8000FFFA0
:102F9000E000000000007FFFC0FFFFFFFC001FFFFC
:102FA000F80000000001FFFF003FFFFFFC001FFFD3
:102FB000FE0000000007FFFF807FFFFFFE003FFFD5
:102FC000FF000000003FFFFFC0FFFFFFFE003FFFCC
:102FD000FFC0000000FFFFFFC0FFFFFFFF007FFFFB
:102FE000FFF0000003FFFFFFE1FFFFFFFF00FFFF17
:102FF000FFFC00000FFFFFFFE1FFFFFFFF80FFFF6F
:10300000FFFF00003FFFFFFFF3FFFFFFFFC1FFFFD8
:10301000FFFFC001FFFFFFFFF3FFFFFFFFC1FFFF47
:10302000FFFFF007FFFFFFFFFFFFFFFFFFE3FFFFD3
:10303000FFFFF81FFFFFFFFFFFFFFFFFFFE3FFFFA3
:10304000FFFFFE7FFFFFFFFFFFFFFFFFFFE3FFFF2D
:10305000FFFFFFFFFFFFFFFFFFFFFFFFFFF7FFFF88
:10306000FFFFFFFFFFFFFFFFFFFFFFFFFFFFFFFF70
:10307000FFFFFFFFFFFFFFFFFFFFFFFFFFFFFFFF60
:10308000FFFFFFFFFFFFFFFFFFFFFFFFFFFFFFFF50
:10309000FFFFFFFFFFFFFFFFFFFFFFFFFFFFFFFF40
:1030A000FFFFFFFFFFFFFFFFFFFFFFFFFFFFFFFF30
:1030B000FFFFFFFFFFFFFFFFFFFFFFFFFFFFFFFF20
:1030C000FFFFFFFFFFFFFFFFFFFFFFFFFFFFFFFF10
:1030D000FFFFFFFFFFFFFFFFFFFFFFFFFFFFFFFF00
:1030E000FFFFFFFFFFFFFFFFFFFFFFFFFFFFFFFFF0
:1030F000FFFFFFFFFFFFFFFFFFFFFFFFFFFFFFFFE0
:10310000FFFFFFFFFFFFFFFFFFFFFFFFFFFFFFFFCF
:10311000FFFFFFFFFFFFFFFFFFFFFFFFFFFFFFFFBF
:10312000FFFFFFFFFFFFFFFFFFFFFFFFFFFFFFFFAF
:10313000FFFFFFFFFFFFFFFFFFFFFFFFFFFFFFFF9F
:10314000FFFFFFFFFFFFFFFFFFFFFFFFFFFFFFFF8F
:10315000FFFFFFFFFFFFFFFFFFFFFFFFFFFFFFFF7F
:10316000FFFFFFFFFFFFFFFFFFFFFF000000002545
:103170000028002B00000000002300260029000486
:10318000040404040404040202020202020303030E
:103190000303030102040810204080010204081008
:1031A00020010204081020000000000000000006BA
:1031B0005F060000070300070300247E247E24002E
:1031C000242B6A12000063130864630036495620FA
:1031D0005000000703000000003E410000000041D5
:1031E0003E000000083E1C3E080008083E0808009B
:1031F00000E06000000008080808080000606000A7
:1032000000002010080402003E5149453E000042E3
:103210007F40000062514949460022494949360031
:103220001814127F10002F49494931003C4A49497E
:103230003000017109050300364949493600064945
:1032400049291E00006C6C00000000EC6C000000BE
:1032500008142241000024242424240000412214C4
:1032600008000201590906003E415D551E007E110D
:1032700011117E007F49494936003E4141412200FB
:103280007F4141413E007F49494941007F09090989
:1032900001003E4149497A007F0808087F0000414B
:1032A0007F410000304040403F007F081422410031
:1032B0007F40404040007F0204027F007F020408FC
:1032C0007F003E4141413E007F09090906003E4121
:1032D00051215E007F0909196600264949493200DB
:1032E00001017F0101003F4040403F001F2040207E
:1032F0001F003F403C403F00631408146300070870
:1033000070080700714945430000007F41410000FB
:103310000204081020000041417F00000402010265
:10332000040080808080800000030700000020549B
:10333000545478007F4444443800384444442800BE
:10334000384444447F00385454540800087E090926
:10335000000018A4A4A47C007F04047800000000EE
:103360007D4000004080847D00007F1028440000E4
:1033700000007F4000007C04180478007C0404787E
:103380000000384444443800FC4444443800384485
:103390004444FC0044784404080008545454200079
:1033A000043E442400003C40207C00001C204020BF
:1033B0001C003C6030603C006C10106C00009CA055
:1033C000603C00006454544C0000083E4141000041
:1033D0000000770000000041413E080002010201A8
:1033E00000003C2623263C000000000000000000F6
:1033F00000065F5F060000000707000707000014D3
:103400007F7F147F7F1400242E2A6B6B3A120046B4
:103410006630180C666200307A4F5D377A480000DB
:1034200004070300000000001C3E63410000000090
:1034300041633E1C000000082A3E1C1C3E2A080076
:1034400008083E3E080800000080E0600000000020
:10345000080808080808000000006060000000601C
:1034600030180C060301003E7F594D477F3E004057
:10347000427F7F40400000627359496F660000221E
:103480006349497F360000181C16537F7F50002780
:103490006745457D3900003C7E4B4979300000038B
:1034A0000371790F070000367F49497F3600000617
:1034B0004F49693F1E0000000000666600000000E2
:1034C0000080E666000000081C3663410000000032
:1034D00014141414141400004163361C0800000076
:1034E0000203595D0702003E7F415D5D5F0E007C77
:1034F0007E13137E7C0000417F7F49497F36001C8C
:103500003E634141632200417F7F41633E1C004195
:103510007F7F495D416300417F7F491D0103001C9E
:103520003E6341513372007F7F08087F7F000000B7
:10353000417F7F41000000307040417F3F010041EA
:103540007F7F081C776300417F7F41406070007F70
:103550007F0E1C0E7F7F007F7F060C187F7F001C74
:103560003E6341633E1C00417F7F49090F06001EF8
:103570003F2131617F5E00417F7F09197F66002610
:103580006F4D495973320003417F7F410300007F33
:103590007F40407F7F00001F3F60603F1F00003F73
:1035A0007F6030607F3F0063771C081C77630007F3
:1035B0004F78784F070000476371594D67730000DB
:1035C0007F7F41410000000103060C1830600000BD
:1035D00041417F7F000000080C0603060C080080B4
:1035E000808080808080800000030704000000202D
:1035F0007454543C784000417F3F4848783000384C
:103600007C44446C280000307848493F7F400038B3
:103610007C54545C180000487E7F490306000098E3
:10362000BCA4A4F87C0400417F7F08047C780000DF
:10363000447D7D4000000060E08084FD7D0000410D
:103640007F7F10386C440000417F7F400000007C89
:103650007C18781C7C78007C7804047C7800003826
:103660007C44447C38000084FCF8A4243C180018F6
:103670003C24A4F8FC8400447C784C040C180048DA
:103680005C54746424000004043E7F442400003C25
:103690007C40403C7C40001C3C60603C1C00003C8A
:1036A0007C6030607C3C00446C3810386C44009C7A
:1036B000BCA0A0FC7C00004C64745C4C640000085E
:1036C000083E77414100000000007777000000418C
:1036D00041773E0808000002030103020301007065
:1036E000784C464C78700000FC2C11241FBECFEFA4
:1036F000D8E0DEBFCDBF12E0A0E0B1E0EEEFFDE626
:1037000002C005900D92A43DB107D9F724E0A4EDC5
:10371000B2E001C01D92A63EB207E1F71BE1C5E78A
:10372000DBE104C02197FE010E94EE36C437D107C9
:10373000C9F70E945A2D0C94FD360C940000089590
:10374000089520911E0481E0213208F044C0809148
:103750001D048111FCCF8091160492E090931D040A
:1037600091E090931C049FEF9093F4031092F30365
:103770002093F203A6EFB3E0E2EDF3E090E029132B
:1037800031C01092D1039091D103880F892B80937F
:10379000D10380911B04813049F510921B04809164
:1037A000D1038093BB008091BC0083FDF8CF85ECF2
:1037B0008093BC0080911D048230E1F38091F4037A
:1037C0008F3FB1F08091F4038032A1F08091F40337
:1037D000803391F084E010921F0410921E04109226
:1037E000F50308953D9131939F5FC9CF85EEE0CFFA
:1037F00080E0F1CF82E0EFCF83E0EDCF90911D0428
:103800009111FCCF91E090931D0490931C042FEF35
:103810002093F4031092F303260F2093F203909366
:10382000D1039091D103880F892B8093D10380918C
:103830001B048130F9F410921B048091D103809312
:10384000BB008091BC0083FDF8CF85EC8093BC0069
:1038500080911D048130E1F38091F303861710F409
:103860006091F303A2EDB3E0E5EAF3E080E08613B4
:1038700003C0089585EEEACF9D9191938F5FF7CFB6
:103880000895AF92BF92CF92DF92EF92FF920F9383
:103890001F93CF93DF936C017B018B01040F151FE6
:1038A000EB015E01AE18BF08C017D10759F069914E
:1038B000D601ED91FC910190F081E02DC6010995B2
:1038C000892B79F7C501DF91CF911F910F91FF905F
:1038D000EF90DF90CF90BF90AF900895FC01538D93
:1038E000448D252F30E0842F90E0821B930B5417DA
:1038F00010F0CF96089501970895FC01918D828D67
:10390000981761F0A28DAE0FBF2FB11D5D968C91FF
:10391000928D9F5F9F73928F90E008958FEF9FEF3E
:103920000895FC01918D828D981731F0828DE80FFA
:10393000F11D858D90E008958FEF9FEF0895FC01B4
:10394000918D228D892F90E0805C9F4F821B910981
:103950008F739927089582E294E00E949F1C21E0D2
:10396000892B09F420E0822F089580E090E0892BD4
:1039700029F00E94AB1C81110C9400000895FC01F9
:10398000A48DA80FB92FB11DA35ABF4F2C91848DC0
:1039900090E001968F739927848FA689B7892C931D
:1039A000A089B1898C91837080648C93938D848D70
:1039B000981306C00288F389E02D80818F7D808373
:1039C0000895EF92FF920F931F93CF93DF93EC0133
:1039D00081E0888F9B8D8C8D98131AC0E889F989B6
:1039E000808185FF15C09FB7F894EE89FF896083B9
:1039F000E889F98980818370806480839FBF81E03A
:103A000090E0DF91CF911F910F91FF90EF9008957B
:103A1000F62E0B8D10E00F5F1F4F0F731127E02E56
:103A20008C8D8E110CC00FB607FCFACFE889F9898E
:103A3000808185FFF5CFCE010E94BF1CF1CFEB8DB9
:103A4000EC0FFD2FF11DE35AFF4FF0829FB7F89462
:103A50000B8FEA89FB8980818062CFCFCF93DF9380
:103A6000EC01888D8823B9F0AA89BB89E889F98996
:103A70008C9185FD03C0808186FD0DC00FB607FCCB
:103A8000F7CF8C9185FFF2CF808185FFEDCFCE01FE
:103A90000E94BF1CE9CFDF91CF910895833081F060
:103AA00028F4813099F08230A9F008958730A9F088
:103AB0008830C9F08430B1F4809180008F7D03C0DC
:103AC000809180008F7780938000089584B58F77F0
:103AD00084BD089584B58F7DFBCF8091B0008F7732
:103AE0008093B00008958091B0008F7DF9CFCF937F
:103AF000DF93282F30E0F901EE54FE4F8491F90155
:103B0000ED56FE4CD491F901E158FE4CC491CC2302
:103B1000A1F081110E944E1DEC2FF0E0EE0FFF1F6F
:103B2000EB58FE4CA591B491EC91ED2381E090E02F
:103B300009F480E0DF91CF91089580E090E0FACF22
:103B40001F93CF93DF93282F30E0F901EE54FE4FFF
:103B50008491F901ED56FE4CD491F901E158FE4CE7
:103B6000C491CC23A9F0162F81110E944E1DEC2F79
:103B7000F0E0EE0FFF1FE559FE4CA591B4918FB711
:103B8000F894EC91111108C0D095DE23DC938FBF1F
:103B9000DF91CF911F910895DE2BF8CF1092210471
:103BA0001092200410921F0410921E0410921D0403
:103BB00081E080931C0410921B0461E082E10E946A
:103BC000A01D61E083E10E94A01DE9EBF0E080818F
:103BD0008E7F808380818D7F808388E48093B8008E
:103BE00085E48093BC008FE99BE190931A04809355
:103BF000190480EA9BE190931804809317040895B8
:103C0000CF93DF9390E0FC01ED56FE4C2491815858
:103C10009E4CFC0184918823D1F090E0880F991F7D
:103C2000FC01E855FE4FA591B491FC01E559FE4C0D
:103C3000C591D49161110EC09FB7F8948C91E22F79
:103C4000E0958E238C932881E223E8839FBFDF9148
:103C5000CF9108958FB7F894EC91E22BEC938FBF3E
:103C6000F6CFCF93DF93A091A303B091A403109755
:103C700009F443C01C968C911C97EDE6F0E0883067
:103C800050F0EBE6F0E08E3030F0ECE6F0E086311C
:103C900010F0F0E0E0E05FB7F8941092A403109207
:103CA000A303309749F11C968C911C97C8E6D0E08D
:103CB000863110F0D0E0C0E02881883008F46AC076
:103CC00031E08E3008F430E081E090E001C0880FF0
:103CD0003A95EAF780958223888360811C964C91FF
:103CE000483008F059C081E090E001C0880F4A9543
:103CF000EAF78095862380835FBF60E08091DE04D1
:103D00000E94001E8091DE0490E0FC01ED56FE4C06
:103D1000E491E093A203FC01E158FE4CE491F0E051
:103D2000EE0FFF1FEB58FE4C859194919093E104A8
:103D30008093E0048091DF0490E0FC01ED56FE4C9E
:103D400024912093A103FC01E158FE4CE491F0E0A2
:103D5000EE0FFF1FE559FE4CA591B491B093A0035F
:103D6000A0939F03109719F0EC91E22BEC9361E084
:103D70008091DF040E94001E8091DE048830E0F014
:103D80008E3008F45EC0ECE6F0E08631B8F0DF91EA
:103D9000CF9108958BEF9FCF242F30E04E3048F421
:103DA0002850310981E090E001C0880F2A95EAF798
:103DB000A0CF2E503109F6CFEDE6F0E08FEF8093E3
:103DC0009E0310929D0310929C038091E2049091B7
:103DD000E30481152BE4920709F457C0A8F5803855
:103DE000954209F440C05FB7F89440819091DE0499
:103DF000983008F052C081E001C0880F9A95EAF728
:103E0000842B80838091DE04E8E6F0E0863110F0B8
:103E1000F0E0E0E09081883008F44EC021E08E3080
:103E200008F420E081E001C0880F2A95EAF7892B89
:103E3000808382ED94E09093A4038093A3035FBFFB
:103E4000A6CFEBE6F0E0BACF82312AE79207A9F0DD
:103E50008115964941F686E080939B038DE9809316
:103E60009A0384E007C08AE180939B0387E28093F2
:103E70009A038AE080939903B6CF88E080939B03EE
:103E800080E880939A0385E0F5CF8DE080939B03D3
:103E90008EE480939A0386E0EDCF292F30E09E30A8
:103EA00040F42850310981E001C0880F2A95EAF7D3
:103EB000A7CF2E503109F7CF84E0B9CF82309105DA
:103EC00038F0880F991F880F991F05970197F1F710
:103ED00008953FB7F8948091610390916203A09197
:103EE0006303B091640326B5A89B05C02F3F19F06A
:103EF0000196A11DB11D3FBFBA2FA92F982F88276A
:103F0000BC01CD01620F711D811D911D42E0660F44
:103F1000771F881F991F4A95D1F708958F929F9216
:103F2000AF92BF92CF92DF92EF92FF924B015C0172
:103F30000E94691F6B017C010E94691F6C197D0939
:103F40008E099F09683E734081059105A8F321E021
:103F5000821A9108A108B10888EEC80E83E0D81E25
:103F6000E11CF11C81149104A104B10429F7FF9014
:103F7000EF90DF90CF90BF90AF909F908F9008957B
:103F80008091670390916803803A91052CF08091AD
:103F9000000080930000089561E00C94001E809161
:103FA000670390916803803A91052CF0809100009E
:103FB00080930000089560E00C94001E80916503DA
:103FC00090916603803A91052CF0809100008093D7
:103FD0000000089561E00C94001E809165039091AB
:103FE0006603803A91052CF08091000080930000D8
:103FF000089560E00C94001E0E94C01F90E080E0D5
:104000000E945E1F0E94ED1F90E080E00E945E1FF4
:104010000E94CF1F90E080E00C945E1F80916703A8
:1040200090916803803A910524F08091000080E02F
:1040300008950E94771D0895CF93DF93D82FC8E08D
:10404000D7FF29C00E94CF1F0E94ED1F90E080E0A3
:104050000E945E1F0E94DE1FDD0FC15089F70E9483
:10406000CF1F0E94ED1F90E080E00E945E1F0E9423
:104070000E20C82F0E94DE1F90E080E00E945E1F8D
:104080000E94C01F81E090E0CC2311F090E080E01E
:10409000DF91CF9108950E94C01FD6CFBF92CF92DB
:1040A000DF92EF92FF920F931F93CF93DF93B62E81
:1040B000C72E7C01C62FD72F81E090E02CC08FEF58
:1040C000810F8E3F08F459C01F3F09F053C00E9472
:1040D000CF1F18E00E94ED1F90E080E00E945E1F5D
:1040E0000E94DE1F1150B1F70E94CF1F0E94ED1FEA
:1040F00090E080E00E945E1F0E940E20182F0E9418
:10410000DE1F90E080E00E945E1F0E94C01F11230E
:1041100079F190E080E02097B9F1019709F043C070
:10412000F70111917F018091670390916803803AB4
:1041300091052CF20091000088E0D82E0093000039
:1041400017FF06C090E080E00E945E1F0093000011
:1041500090E080E00E945E1F00930000110FDA944F
:10416000D110ECCF90E080E00E945E1F0093000031
:104170002197A2CF0E94C01FACCF812F0E941C208C
:104180008130910541F6F4CF019711F4CB2DDC2D50
:10419000CE01DF91CF911F910F91FF90EF90DF90B3
:1041A000CF90BF900895D0E0C0E0F2CFCF93DF93DF
:1041B000C82FD62F0E94C01F90E080E00E945E1F93
:1041C0000E94DE1F8C2F880FD1118F5FDF91CF915E
:1041D0000C941C20CF9320916703309168032F3FEC
:1041E0003F4F39F020916503309166032F3F3F4FD9
:1041F00089F491E09093F5038093160410921F04C4
:1042000010921E040E94A11BC1E08111C0E08C2FFE
:10421000CF91089560E00E94D620C1E0892B09F477
:10422000C0E00E94FC1FF3CF2F923F924F925F920B
:104230006F927F928F929F92AF92BF92CF92DF92B6
:10424000EF92FF920F931F93CF93DF93CDB7DEB71B
:104250002C970FB6F894DEBF0FBECDBF5B01822E48
:10426000902EE98628E0E4E0F1E0DE01119601906D
:104270000D922A95E1F7437050E01A01220C331C8D
:10428000220C331C280E391ED1014D905D906D908B
:104290007C906A01BFEFCB1ADB0AE3E0CE22DD247B
:1042A000CC0CDD1CCC0CDD1CC80ED91EFA013396DB
:1042B000E370FF27EE0FFF1FEE0FFF1FE80FF91F40
:1042C000E080F180028113814E5F5F4F437055277C
:1042D000440F551F440F551F840F951FDC012D916E
:1042E0003D914D915C91F601608171818281938154
:1042F000A985EA2FF0E0EE0FFF1FA1E0B0E0AC0FC0
:10430000BD1FEA0FFB1F0190F081E02D0995B4E07D
:104310009B9EF0011124E855FF4F25913591459161
:10432000549129873A874B875C87D5010D911D9160
:104330002D913C91400E511E621E731E460E571E5B
:10434000681E791E89859A85AB85BC85840D951D6F
:10435000A61DB71DAC01BD01082C04C0440F551F9C
:10436000661F771F0A94D2F7282D21952F712C01F3
:104370003D0104C076946794579447942A95D2F7E8
:10438000442A552A662A772AF60180819181A281E2
:10439000B381840D951DA61DB71DF1018083918306
:1043A000A283B3832C960FB6F894DEBF0FBECDBFA9
:1043B000DF91CF911F910F91FF90EF90DF90CF9001
:1043C000BF90AF909F908F907F906F905F904F9035
:1043D0003F902F9008953F924F925F926F927F92FD
:1043E0008F929F92AF92BF92CF92DF92EF92FF9205
:1043F0000F931F93CF93DF93CDB7DEB7A0970FB680
:10440000F894DEBF0FBECDBF6C015B01FC01808163
:104410009181A281B38189839A83AB83BC83848198
:104420009581A681B7818D839E83AF83B887808570
:104430009185A285B38589879A87AB87BC87848558
:104440009585A685B7858D879E87AF87B88B809128
:104450000C0190910D01A0910E01B0910F01898B7B
:104460009A8BAB8BBC8B4B0110E02E01F1E14F0E10
:10447000511C3401012FA4E0FA2E33243394300E62
:10448000F20121912F01E12C4F2DB301CE010196B4
:104490000E941421FA94F4E06F0E711C032DF110A8
:1044A000ECCF1C5F80E1880E911C1031F1F68091F9
:1044B000100190911101A0911201B09113018D8B07
:1044C0009E8BAF8BB88F88248394912C0FE0080DBE
:1044D0002E01E5E14E0E511C340114E0FF24F3944B
:1044E000F00EF20121912F01B3016F707727660F53
:1044F000771F660F771F6A0D7B1DEE24E394412F13
:10450000CE0101960E9414211150F5E06F0E711C2E
:104510000F2D1111E3CF84E0880E911CE1E18E167E
:104520009104A1F68091140190911501A0911601BA
:10453000B0911701898F9A8FAB8FBC8F65E0862E63
:10454000912C10E22E01F9E14F0E511C3401012F84
:1045500054E0F52E33243394300EF20121912F01D3
:10456000B3016F707727660F771F660F771F6A0D8D
:104570007B1D42E0E42E4F2DCE0101960E941421B6
:10458000FA94F3E06F0E711C032DF110E3CF1C5F62
:1045900084E0881A91081033A9F68091180190914F
:1045A0001901A0911A01B0911B018D8F9E8FAF8FC1
:1045B000B8A3912C812C2E01EDE14E0E511C34013B
:1045C000012F24E0F22E33243394300EF201219196
:1045D0002F01B3016F707727660F771F660F771F64
:1045E0006A0D7B1D93E0E92E4F2DCE0101960E94AE
:1045F0001421FA94F7E06F0E711C032DF110E3CF34
:104600001C5F84E0881A91081034A9F6F6018081B5
:104610009181A281B38149815A816B817C81840F10
:10462000951FA61FB71F80839183A283B3838481C4
:104630009581A681B7814D815E816F817885840FD8
:10464000951FA61FB71F84839583A683B783808594
:104650009185A285B38549855A856B857C85840FB4
:10466000951FA61FB71F80879187A287B387848570
:104670009585A685B7854D855E856F857889840F7C
:10468000951FA61FB71F84879587A687B787808940
:104690009189A289B3890196A11DB11D808B918B4F
:1046A000A28BB38BA0960FB6F894DEBF0FBECDBF22
:1046B000DF91CF911F910F91FF90EF90DF90CF90FE
:1046C000BF90AF909F908F907F906F905F904F9032
:1046D0003F900895EF92FF920F931F93E094F09410
:1046E000009510956E297F29802B912B62277327C7
:1046F000842795271F910F91FF90EF900895EF92D7
:10470000FF920F931F932E253F25402751276227A5
:104710007327842795271F910F91FF90EF9008959D
:10472000EF92FF920F931F93622773278427952799
:104730006E217F2180239123622773278427952769
:104740001F910F91FF90EF900895EF92FF920F93BA
:104750001F932E253F25402751276223732384234F
:1047600095236E257F25802791271F910F91FF901C
:10477000EF90089585ED8093BC008091BC0084FD8E
:10478000FCCF10921D04089520913903260F332782
:10479000331F21323105ECF420911D04FC0190E01F
:1047A00080E0243069F082E00895A09139032191DE
:1047B000AC01475E5C4FA40FB52FB11D2C93019641
:1047C000861798F380913903680F6093390380E06E
:1047D000089581E008950895E091210480912004D6
:1047E000E81730F4F0E0EB55FC4F808190E008953D
:1047F0008FEF9FEF089590912104809120042FEF77
:104800003FEF981748F4E92FF0E0EB55FC4F20817B
:1048100030E09F5F90932104C901089580912004A6
:1048200090912104891B990B0895CF92DF92EF920A
:10483000FF920F931F93CF93DF937C01CB018A01EB
:104840002091F503222389F0EB016B01C40ED51EE4
:10485000CC15DD0569F06991D701ED91FC910190CE
:10486000F081E02DC7010995F3CF642F0E94C42386
:10487000C801DF91CF911F910F91FF90EF90DF90D2
:10488000CF900895EF92FF920F931F93CF93DF93F2
:104890008C01EB01E0906B03F0906C038FEFE81656
:1048A000F806C1F161E0F8018081811101C060E08A
:1048B00080916D030E94A01D60E08E2D0E94A01DBE
:1048C000C130D105E1F0F80181818EBD32969801A9
:1048D0002C0F3D1F2E173F0751F091910DB407FE8D
:1048E000FDCF8EB59EBDDF0112978C93F3CF21973C
:1048F000C00FD11F0DB407FEFDCF8EB5888361E0D8
:1049000080916B03DF91CF911F910F91FF90EF90FA
:104910000C94A01D80916903209167033091680376
:104920002F3F3F4F39F020916503309166032F3FB1
:104930003F4FC1F491E09093F503809316041092D9
:104940001F0410921E04AE015527B8018FEB94E0AE
:104950000E941524DF91CF911F910F91FF90EF904E
:104960000C94A11B60E00E94D620019721F4BE01A7
:10497000C8010E944E20DF91CF911F910F91FF90AF
:10498000EF900C94FC1FCF93DF9300D000D0CDB7F5
:10499000DEB72091CF033091D0032530310519F5D2
:1049A00080962091CD033091CE03232B11F46C5FC0
:1049B0007F4F1982606B6A83282F2F702B8324E02E
:1049C000959587952A95E1F780618C8364E070E086
:1049D000CE0101960E9442240F900F900F900F90ED
:1049E000DF91CF9108952430310511F40296E1CF83
:1049F0002630310559F42091CD033091CE03232B7D
:104A000011F08096D6CF6E5F7F4FD3CF2730310520
:104A100081F64C962091CD033091CE03232B49F69D
:104A20006D5F7F4FC6CFCF93DF931F92CDB7DEB7B9
:104A300069832091F5032223F9F020911E0420328E
:104A400058F021E030E0FC013383228390E080E0E5
:104A50000F90DF91CF91089580911F04E82FF0E02F
:104A6000EA50FC4F998190838F5F80931F0480935D
:104A70001E0481E090E0ECCF61E0CE0101960E943F
:104A8000C423F7CFCF93C62F9091CF0421E020937A
:104A9000F5039093160410921F0410921E04682FC1
:104AA0008FEB94E00E9413256C2F8FEB94E00E9413
:104AB0001325CF910C94A11B8093D104682F83E020
:104AC0000C944225811105C06093D00482E00C94BF
:104AD0004225862F0C945C25E091A303F091A4035A
:104AE0003097C1F00288F389E02D309709F00994DE
:104AF00020919C0330E0A9014F5F5F4F4F73552712
:104B000090919D03941731F027523D4FF901808316
:104B100040939C030895CF93DF93EC0130919E0363
:104B20003F3F91F1AE85BF858C919091A20389237F
:104B300059F126B599E0931B80919903280F809134
:104B4000D802281B80919A03289F90011124232FBB
:104B500033272695269592171306B0F48091D70235
:104B60002091D602915018F0822B220FFBCF809318
:104B7000D7022093D60290939E030E946C2581E079
:104B80002A893B89232B09F080E0DF91CF9108959A
:104B9000EF92FF920F931F93CF93DF93E6B4F090C1
:104BA000A203F82290919E039F3F91F4F11009C057
:104BB00010929E0381E08093D6021092D702E09279
:104BC000D802DF91CF911F910F91FF90EF90089540
:104BD000C0919903CE0D8091D802C81B80919A0391
:104BE000C89FE0011124CD2FDD27C695C69529E089
:104BF000291B022F10E00C171D0708F02C2F920F15
:104C000090939E034091D6028091D702F11011C07B
:104C10002150342F330F2F3F19F0842B432FF8CF1F
:104C20008093D7023093D602983048F20E946C25C8
:104C300013C02150330B01C0440F2A95EAF740936B
:104C4000D602842B8093D702983008F4B8CF0E9404
:104C50006C2581E0F81621F00C171D0708F4A8CF89
:104C60008FEF80939E03ABCFCF92DF92EF92FF92B4
:104C70000F931F93CF93DF938C01D62E80919F03C8
:104C80009091A003892B09F454C0D8011C969C91E3
:104C9000D4E0983048F081E09E3008F480E0D1E024
:104CA00001C0DD0F8A95EAF7CFB6F894F6B490E02C
:104CB000E12CE394E0919F03F091A0038091A10384
:104CC000BAE0EB1651F19923D9F09081892B8083BA
:104CD000C0919B03C63011F4E0FCC7E086B58F1984
:104CE0008C17B0F48BB38D2379F08BB38D2B8BBBEA
:104CF000D8011E96ED91FC9180810E94C825EECFCF
:104D0000908180958923E3CFC8010E948B25E6CF4F
:104D1000FC0E9D2D9170D694CCCF9081892B8083F1
:104D2000CFBE86B58F198C1778F4C8010E948B25E9
:104D3000F8CF90E080E0DF91CF911F910F91FF902D
:104D4000EF90DF90CF90089581E090E0F4CF209134
:104D50009D0380919C03821769F030E0F901E752CE
:104D6000FD4F80812F5F3F4F2F73332720939D038B
:104D700090E008958FEF9FEF08959C0180919C0330
:104D800090919D03891B990B805C9F4F60E470E0BC
:104D90000E948736811105C0C901F8940E948B25B5
:104DA000789490E00895CF92DF92EF92FF929091E5
:104DB000D502913071F038F09230E1F0FF90EF9031
:104DC000DF90CF9008958A30C9F781E08093D502B3
:104DD000F5CF9091D402953049F41092D4028A33E1
:104DE00011F482E0F3CF1092D502E8CF9F5F909349
:104DF000D402E4CF90ED980F9A3038F09FEB980FE3
:104E0000963008F068C099EC980F8091D402E82F92
:104E1000E695F0E0E059FC4F80FD5AC09295907FF6
:104E200090838F3109F04EC0A0E7B3E020E833E073
:104E30004FEF5FEFBA018D91E82FE427EF7094E018
:104E4000E99FF0011124E859FF4FC590D590E590F6
:104E5000F49094E076956795579547959A95D1F794
:104E60004C255D256E257F25E82FE295EF70E42720
:104E7000EF7084E0E89FF0011124E859FF4FC590DE
:104E8000D590E590F490E4E0769567955795479531
:104E9000EA95D1F74C255D256E257F252A173B071E
:104EA00009F0C9CF40955095609570954093850362
:104EB0005093860360938703709388031092D40203
:104EC0001092D5028091D4028F5F8093D40276CF66
:104ED0002081922BA5CF1092D4021092D50210926D
:104EE000850310928603109287031092880366CF81
:104EF00090E080E008950F931F93CF93DF93CDB799
:104F0000DEB7C158D1090FB6F894DEBF0FBECDBFD2
:104F10008B0120E42983AB01BC01CE0102960E94E3
:104F2000F436B8016F5F7F4FCE0101960E94422494
:104F3000CF57DF4F0FB6F894DEBF0FBECDBFDF9166
:104F4000CF911F910F9108952F923F924F925F92B0
:104F50006F927F928F929F92AF92BF92CF92DF9289
:104F6000EF92FF920F931F93CF93DF93CDB7DEB7EE
:104F70006A970FB6F894DEBF0FBECDBFFC01259136
:104F8000349122343D4409F0F9C0FC017296259118
:104F900034912038310509F0F1C0FC017696259155
:104FA00034912034310509F4CEC0203C3F4F09F044
:104FB000E5C020E0FC017C964591549141305105BB
:104FC00009F0DCC01C01FAE02F0E311CF101459004
:104FD000549010E1612E712C222341F020E1421AFD
:104FE0002CEF520A00EF602E77247A945B019F8B9E
:104FF0008E8BB301B3E0660F771FBA95E1F7798F17
:10500000688F480E591E10E000E0CE0101969C8B7F
:105010008B8BFE017196FA8BE98BB80190E080E0F2
:105020000E94C324F12CE12C9701220F331F240D81
:10503000351DEB89FC89A0E18A2E11928A94E9F74B
:10504000DE011196A90178E0C72ED12C9924939402
:10505000A114B10409F48FC0F101859194916E8976
:105060007F89860F971FFA01E81BF90BCF01FA0120
:10507000F491FA8F682F6F77E82FEF70EA0DFB2D10
:10508000F11D603108F061C0E0818A8C8826969518
:1050900087959695879588258E2770E060E087FF35
:1050A00006C0FD01E60FF71F908199299083880FB4
:1050B0006F5F7F4F6830710591F7990CF1E0CF1A5F
:1050C000D108460D571DC114D10409F0C1CF2F5F7F
:1050D0003F4F189669897A89A617B70709F0B2CFAA
:1050E00060E170E0CE0101960E947B277FEFE71A16
:1050F000F70A88E0E816F10409F096CF0F5F1F4F1A
:10510000E88DF98D4E0E5F1E0830110509F085CF30
:1051100090E080E06A960FB6F894DEBF0FBECDBF78
:10512000DF91CF911F910F91FF90EF90DF90CF9083
:10513000BF90AF909F908F907F906F905F904F90B7
:105140003F902F90089521E035CF62956F706D8B61
:1051500070E0E081FE2F0D8801C0FF0F0A94EAF78E
:105160007195619571096770772701C0E6956A9519
:10517000EAF7EF2B8ACFFA0184918FCF8FEF9FEF61
:10518000C9CFCF93C82F81E08093F50380E580934A
:10519000160410921F0410921E04692F8FEB94E0E6
:1051A0000E9413256C2F8FEB94E00E9413250E9420
:1051B000A11B61E080E50E94FE1B109221048093F8
:1051C0002004882331F08FEB94E00E94FB23CF91E1
:1051D00008958FEFFCCF4F925F926F927F928F92E4
:1051E0009F92AF92BF92CF92DF92EF92FF920F9376
:1051F0001F93CF93DF93CDB7DEB7A8970FB6F89480
:10520000DEBF0FBECDBF5C01CB01522E432E70938B
:10521000CC036093CB035093CA034093C9032091FE
:10522000C8032617170609F00CF472C12091C703B2
:105230002695269526952417150609F00CF468C1C5
:10524000BA010E94C3240115110509F0B9C0350146
:1052500087E068227724852C942C2E01E9E04E0EFD
:10526000511C2091C8038091CB039091CC03F40191
:1052700028171906F9F0F4F0CC20E1F080818111B3
:105280004AC190E080E0A8960FB6F894DEBF0FBE4A
:10529000CDBFDF91CF911F910F91FF90EF90DF90E5
:1052A000CF90BF90AF909F908F907F906F905F90C6
:1052B0004F9008958491882321F38091C7038695A8
:1052C000869586952091C9033091CA0382171306EB
:1052D000C1F2BCF2F8E0AF16B1040CF067C0CC200C
:1052E00009F46BC0F40160816052770B93E0660FA4
:1052F000771F9A95E1F769517C4C48E050E0CE0168
:1053000001960E941B36E114F10441F0FE01319632
:10531000808180958193E415F505D1F708E010E0D0
:10532000061917092091CB033091CC038091C80353
:1053300090E0A801420F531F841795071CF48C01BD
:10534000021B130BB80181E090E08C0F9D1F860DAE
:10535000971D0E947B278091CB039091CC03080F6F
:10536000191F1093CC030093CB038091C8038017BF
:10537000110609F0CCF46090C5037090C603611467
:105380007104A1F01092CC031092CB036091C90379
:105390007091CA036F5F7F4F7093CA036093C90314
:1053A00090E080E00E94C324712C612CF8E0AF1AD9
:1053B000B1088FEF881A980A54CFF401649194CF02
:1053C0000230110509F0A4C0C50166E070E00E943A
:1053D00087363C01852C942C86E0D82E2E01E7E000
:1053E0004E0E511C2091C8038091CB039091CC03A9
:1053F0002817190609F00CF486C08091C70386951A
:10540000869586952091C9033091CA0382171306A9
:1054100009F00CF478C0CC2009F475C0F401808147
:10542000882309F42ECFF6E0AF16B1040CF064C067
:10543000F401CC2009F46AC0608160526D9DB00116
:10544000112469557E4C46E050E0CE0101960E9441
:105450001B36E114F10441F0FE0131968081809504
:105460008193E415F505D1F706E010E00619170958
:105470002091CB033091CC038091C80390E0A80128
:10548000420F531F841795071CF48C01021B130B4A
:10549000B80181E090E08C0F9D1F860D971D0E9442
:1054A0007B278091CB039091CC03080F191F109399
:1054B000CC030093CB038091C8038017110609F039
:1054C000CCF46090C5037090C60361147104A1F020
:1054D0001092CC031092CB036091C9037091CA0360
:1054E0006F5F7F4F7093CA036093C90390E080E0C1
:1054F0000E94C324712C612CF6E0AF1AB1088FEF23
:10550000881A980A6FCFF40184918ACF649195CF5D
:105510008FEF9FEFB8CEE8E0AE16B1040CF4E2CE08
:1055200045CFCF92EF92FF920F931F939C01CB0137
:10553000C12CF12CE12C10E000E047E050E070E0DD
:1055400060E00E94EB281F910F91FF90EF90CF90A9
:105550000895FB0101900020E9F73197AF01461B48
:10556000570BDC01ED91FC910280F381E02D099451
:105570000F931F93CF93DF93EC010E94A92A8C0114
:1055800060EF71E0CE010E94A92A800F911FDF9188
:10559000CF911F910F9108951F920F920FB60F9206
:1055A00011242F933F934F935F936F937F938F9328
:1055B0009F93AF93BF93EF93FF9382E294E00E9497
:1055C000BF1CFF91EF91BF91AF919F918F917F9100
:1055D0006F915F914F913F912F910F900FBE0F9060
:1055E0001F9018951F920F920FB60F9211242F93B0
:1055F0008F939F93EF93FF93E0913204F0913304E4
:105600008081E0913804F091390482FD1BC09081C3
:1056100080913B048F5F8F7320913C04821741F08F
:10562000E0913B04F0E0EE5DFB4F958F80933B04EF
:10563000FF91EF919F918F912F910F900FBE0F903F
:105640001F9018958081F4CF1F920F920FB60F9282
:1056500011242F933F938F939F93AF93BF93809188
:105660005D0390915E03A0915F03B0916003309160
:105670005C0323E0230F2D3758F50196A11DB11DC2
:1056800020935C0380935D0390935E03A0935F037C
:10569000B09360038091610390916203A0916303D2
:1056A000B09164030196A11DB11D80936103909395
:1056B0006203A0936303B0936403BF91AF919F9182
:1056C0008F913F912F910F900FBE0F901F901895C3
:1056D00026E8230F0296A11DB11DD2CF1F920F9273
:1056E0000FB60F9211242F933F934F935F936F93B5
:1056F0007F938F939F93AF93BF93EF93FF9380918B
:10570000B900887F803609F44AC0F0F5883209F480
:10571000A7C018F5803109F49BC0B8F4882309F4B8
:10572000F9C0883009F494C0FF91EF91BF91AF9117
:105730009F918F917F916F915F914F913F912F91A9
:105740000F900FBE0F901F901895883109F488C0F4
:10575000803251F78093F40314C0803409F49DC063
:1057600040F48033B9F38833F9F68093F40385EC81
:10577000B0C0803509F485C0883509F496C08834F6
:1057800099F60E94BA23D0CF883909F48CC038F535
:10579000883729F050F4883611F0803729F683E0F5
:1057A00080931D0410925B0357C0883809F47BC0B6
:1057B000803919F0803809F0B7CF80915B038032CF
:1057C00008F071C0E0915B0381E08E0F80935B0372
:1057D0008091BB00F0E0E55CFC4F80833DC0803BE6
:1057E00039F0E0F4803A09F479C0883A09F09CCFA6
:1057F00084E080931D0410923A0310923903E091E3
:105800001904F0911A0409958091390381110FC090
:1058100081E0809339031092190309C0803C09F498
:10582000A6CF883C09F4A3CF883B09F07DCFE09157
:105830003A0381E08E0F80933A03F0E0E75EFC4F7D
:1058400080818093BB0090913A038091390329C0F5
:105850008091D1038093BB0085EC8093BC0064CF22
:105860009091F3038091F203981758F5E091F303B8
:1058700081E08E0F8093F303F0E0EE52FC4F8081C5
:10588000E9CFE091F30381E08E0F8093F3038091E1
:10589000BB00F0E0EE52FC4F80839091F3038091C7
:1058A000F2039817C8F285E8D8CFE091F30381E0BE
:1058B0008E0F8093F3038091BB00F0E0EE52FC4F1B
:1058C000808380911C0481115CCF81E080931B0454
:1058D00084EA8093BC0010921D0426CF85EC80934F
:1058E000BC0010921D0480915B03803230F4E09183
:1058F0005B03F0E0E55CFC4F108260915B0370E0BD
:10590000E0911704F09118048BE393E0099510924D
:105910005B030ACF1092F40334CF1F920F920FB69D
:105920000F9211242F933F934F935F936F937F9325
:105930008F939F93AF93BF93EF93FF9389B10E948F
:10594000C825FF91EF91BF91AF919F918F917F916A
:105950006F915F914F913F912F910F900FBE0F90DC
:105960001F9018951F920F920FB60F9211242F932C
:105970003F934F935F936F937F938F939F93AF93D7
:10598000BF93EF93FF9386B10E94C825FF91EF91DB
:10599000BF91AF919F918F917F916F915F914F9147
:1059A0003F912F910F900FBE0F901F9018951F924F
:1059B0000F920FB60F9211242F933F934F935F9343
:1059C0006F937F938F939F93AF93BF93EF93FF93C7
:1059D00083B10E94C825FF91EF91BF91AF919F9134
:1059E0008F917F916F915F914F913F912F910F9088
:1059F0000FBE0F901F901895E2E2F4E0138212821E
:105A000088EE93E0A0E0B0E084839583A683B7831B
:105A10002EEB31E03183208325EC30E0358724877D
:105A200024EC30E03787268720EC30E0318B208B68
:105A300021EC30E0338B228B22EC30E0358B248B51
:105A400026EC30E0378B268B118E128E138E148E3F
:105A5000EFEBF4E01382128284839583A683B783ED
:105A600020ED31E031832083E2EDF4E013821282F5
:105A700084839583A683B78382EE91E091838083AC
:105A80008DE0848789E08587138A128AEFECF4E041
:105A900080E28083118212820E94CE1D8FEF9FEFE1
:105AA000DC018093CB049093CC04A093CD04B093FD
:105AB000CE040895CF93DF93CDB7DEB7C65AD10990
:105AC0000FB6F894DEBF0FBECDBF789484B5826068
:105AD00084BD84B5816084BD85B5826085BD85B592
