:100000000C945D000C9485000C9485000C94850084
:100010000C9485000C9485000C9485000C9485004C
:100020000C9485000C9485000C9485000C9485003C
:100030000C9485000C9485000C9485000C9485002C
:100040000C94C7030C9485000C9495030C946F03D7
:100050000C9485000C9485000C9485000C9485000C
:100060000C9485000C9485000000000025002800F9
:100070002B0000000008000201000003040700003C
:1000800000000000000000000000240027002A00FB
:10009000010204081020408001020408102001021F
:1000A00004081020040404040404040402020202EC
:1000B00002020303030303033E0811241FBECFEF14
:1000C000D8E0DEBFCDBF11E0A0E0B1E0E6EEF0E1A8
:1000D00002C005900D92AC31B107D9F722E0ACE136
:1000E000B1E001C01D92A23EB207E1F710E0CDE5FC
:1000F000D0E004C02197FE010E946B08CC35D107E7
:10010000C9F70E9411040C9471080C940000AF927E
:10011000BF92CF92DF92EF92FF920F931F93CF93F4
:10012000DF936C017B018B01040F151FEB015E0156
:10013000AE18BF08C017D10759F06991D601ED91EB
:10014000FC910190F081E02DC6010995892B79F78A
:10015000C501DF91CF911F910F91FF90EF90DF903C
:10016000CF90BF90AF900895FC01538D448D252F03
:1001700030E0842F90E0821B930B541710F0CF9641
:10018000089501970895FC01918D828D981761F073
:10019000A28DAE0FBF2FB11D5D968C91928D9F5F8A
:1001A0009F73928F90E008958FEF9FEF0895FC0169
:1001B000918D828D981731F0828DE80FF11D858D1C
:1001C00090E008958FEF9FEF0895FC01918D228DAF
:1001D000892F90E0805C9F4F821B91098F73992734
:1001E000089585E492E00E94E50021E0892B09F45E
:1001F00020E0822F089580E090E0892B29F00E9472
:10020000F10081110C9400000895FC01A48DA80F49
:10021000B92FB11DA35ABF4F2C91848D90E0019648
:100220008F739927848FA689B7892C93A089B18968
:100230008C91837080648C93938D848D981306C009
:100240000288F389E02D80818F7D80830895EF926D
:10025000FF920F931F93CF93DF93EC0181E0888F80
:100260009B8D8C8D98131AC0E889F989808185FF50
:1002700015C09FB7F894EE89FF896083E889F989F2
:1002800080818370806480839FBF81E090E0DF91F4
:10029000CF911F910F91FF90EF900895F62E0B8D47
:1002A00010E00F5F1F4F0F731127E02E8C8D8E1102
:1002B0000CC00FB607FCFACFE889F989808185FF69
:1002C000F5CFCE010E940501F1CFEB8DEC0FFD2F94
:1002D000F11DE35AFF4FF0829FB7F8940B8FEA8924
:1002E000FB8980818062CFCF682F85E492E00C94F7
:1002F0002701CF93DF93EC01888D8823B9F0AA8979
:10030000BB89E889F9898C9185FD03C0808186FDD0
:100310000DC00FB607FCF7CF8C9185FFF2CF80811F
:1003200085FFEDCFCE010E940501E9CFDF91CF918E
:10033000089590E0FC01EE58FF4F2491FC01E05736
:10034000FF4F3491FC01EC55FF4FE491EE23C9F0CF
:10035000222339F0233001F1A8F4213019F12230A1
:1003600029F1F0E0EE0FFF1FE859FF4FA591B4917E
:100370008FB7F894EC91611126C030953E233C93E1
:100380008FBF08952730A9F02830C9F0243049F7ED
:10039000809180008F7D03C0809180008F77809353
:1003A0008000DFCF84B58F7784BDDBCF84B58F7DB0
:1003B000FBCF8091B0008F778093B000D2CF809137
:1003C000B0008F7DF9CF3E2BDACFCF93DF9390E053
:1003D000FC01E057FF4F24918C559F4FFC01849105
:1003E0008823D1F090E0880F991FFC01EA57FF4F56
:1003F000A591B491FC01E859FF4FC591D4916111C9
:100400000EC09FB7F8948C91E22FE0958E238C93C9
:100410002881E223E8839FBFDF91CF9108958FB7B2
:10042000F894EC91E22BEC938FBFF6CF3FB7F894A2
:1004300080911D0190911E01A0911F01B09120019A
:1004400026B5A89B05C02F3F19F00196A11DB11D2F
:100450003FBFBA2FA92F982F8827BC01CD01620F6B
:10046000711D811D911D42E0660F771F881F991F26
:100470004A95D1F708958F929F92AF92BF92CF92F3
:10048000DF92EF92FF924B015C010E9416026B011A
:100490007C010E9416026C197D098E099F09683E35
:1004A000734081059105A8F321E0821A9108A10803
:1004B000B10888EEC80E83E0D81EE11CF11C81143F
:1004C0009104A104B10429F7FF90EF90DF90CF9041
:1004D000BF90AF909F908F9008951F93CF93DF931D
:1004E000182FC3E0D0E061E0812F0E9499016EE1F6
:1004F00070E080E090E00E943B0260E0812F0E946B
:1005000099016EE170E080E090E00E943B0221974B
:1005100051F7DF91CF911F91089580914102909101
:1005200042020196909342028093410285E10C942D
:100530007401209134013091350180913F029091F6
:1005400040022032310511F4807F089520343105B6
:1005500011F4807E08952038310511F4807C0895CF
:100560002115314009F48078089585E492E00E94D5
:10057000E500892BD1F385E492E00E94C300089541
:10058000CF93C82F0E94B502803251F484E10E94BB
:1005900074018C2F0E94740180E1CF910C9474013E
:1005A0008091410290914202019690934202809381
:1005B000410285E1F2CF0E94B502803231F484E13C
:1005C0000E94740180E10C94740180914102909129
:1005D00042020196909342028093410285E1F3CF5B
:1005E0000F931F93CF93DF938C01CCE3D1E0CE0127
:1005F0008C5391408017910724F40E94B50289938F
:10060000F6CFDF91CF911F910F9108958EBD00001D
:100610000DB407FEFDCF8EB508951F93CF93DF93E2
:10062000162FD42FC22F0E940603812F0E9406038B
:100630008D2F0E9406038C2FDF91CF911F910C9478
:100640000603EF92FF920F931F93CF93DF93EC017A
:100650008B01CB010E94F00260E087E00E949901CB
:100660008CE3E82E81E0F82E0C0F1D1FC017D10778
:1006700081F0F70121917F014C2F6D2F80EC0E94BA
:100680000D036DE270E080E090E00E943B02219655
:10069000EDCF61E087E00E94990180E1DF91CF9189
:1006A0001F910F91FF90EF900895CF93DF93D82F74
:1006B000C92F60E087E00E94990120E04D2F6C2F48
:1006C0008CE40E940D036EE170E080E090E00E94F7
:1006D0003B0261E087E0DF91CF910C9499011F927A
:1006E0000F920FB60F9211242F933F934F935F9366
:1006F0006F937F938F939F93AF93BF93EF93FF93EA
:1007000085E492E00E940501FF91EF91BF91AF91C6
:100710009F918F917F916F915F914F913F912F9119
:100720000F900FBE0F901F9018951F920F920FB64B
:100730000F9211242F938F939F93EF93FF93E09148
:100740005502F09156028081E0915B02F0915C02CB
:1007500082FD1BC0908180915E028F5F8F7320911C
:100760005F02821741F0E0915E02F0E0EB5BFD4F2B
:10077000958F80935E02FF91EF919F918F912F91C2
:100780000F900FBE0F901F9018958081F4CF1F928D
:100790000F920FB60F9211242F933F938F939F9335
:1007A000AF93BF938091210190912201A0912301E9
:1007B000B091240130911C0123E0230F2D3758F50F
:1007C0000196A11DB11D20931C01809321019093DE
:1007D0002201A0932301B093240180911D019091E7
:1007E0001E01A0911F01B09120010196A11DB11D14
:1007F00080931D0190931E01A0931F01B0932001CF
:10080000BF91AF919F918F913F912F910F900FBE0C
:100810000F901F90189526E8230F0296A11DB11D79
:10082000D2CF789484B5826084BD84B5816084BD64
:1008300085B5826085BD85B5816085BD80916E007E
:10084000816080936E0010928100809181008260AF
:1008500080938100809181008160809381008091EC
:1008600080008160809380008091B10084608093DB
:10087000B1008091B00081608093B00080917A00D7
:10088000846080937A0080917A00826080937A00FD
:1008900080917A00816080937A0080917A008068EC
:1008A00080937A001092C100E0915502F0915602B7
:1008B00082E08083E0915102F09152021082E09137
:1008C0005302F091540287E6808310925D02E0911A
:1008D0005902F0915A0286E08083E0915702F0912C
:1008E0005802808180618083E0915702F091580224
:1008F000808188608083E0915702F0915802808166
:1009000080688083E0915702F091580280818F7D4A
:10091000808361E087E00E94E50187E090E00E942B
:100920006D0261E088E00E94E50188E090E00E94AD
:100930006D0261E089E00E94E50189E090E00E949B
:100940006D020BE8A02EBB24B3948EEA282E80E023
:10095000382E9AE9492E90E0592E20E0622E20E0B0
:10096000722E88248394912C8091430290914402AA
:1009700061E0892B09F460E087E00E949901809191
:1009800041029091420261E0892B09F460E088E025
:100990000E9499012FB7F894809121019091220132
:1009A000A0912301B09124012FBF409125015091C6
:1009B000260160912701709128018C019D01041B83
:1009C000150B260B370BB901A801483251056105FB
:1009D000710518F18093250190932601A0932701BA
:1009E000B0932801C091010180910001C13C20F029
:1009F00081958093000102C0C032D0F38091000144
:100A0000C80FC093010161E089E00E94E501C111B6
:100A10002BC060E089E00E94990185E492E00E9489
:100A2000E500892B09F458C20E94B502813509F40A
:100A3000C5C208F0ECC0813409F476C108F05BC08F
:100A4000803309F458C1813309F45CC1803209F064
:100A500005C3809141029091420201969093420217
:100A60008093410285E12DC2CF3F11F461E0D2CFE6
:100A7000EBE7F0E08491833019F138F48130B1F084
:100A80008230C9F0C7FDF2CFC4CF873021F1883062
:100A900051F18430B9F780918000806280938000AA
:100AA000D0E0D0938B00C0938A00B7CF84B5806824
:100AB00084BDC7BDB2CF84B5806284BDC8BDADCF93
:100AC00080918000806880938000D0E0D09389007E
:100AD000C0938800A2CF8091B00080688093B0005E
:100AE000C093B3009ACF8091B00080628093B00031
:100AF000C093B40092CF853409F42DC1803509F438
:100B00002FC1823409F0AAC284E190E00E94F00271
:100B100020913C012093290180913D0180932A017D
:100B200080913E0180932B0180913F0180932C01A5
:100B30008091400180932D018091410180932E018D
:100B40008091420180932F01809143018093300175
:100B500080914401809331018091460190E0982F6B
:100B6000882730914701830F911D90933301809323
:100B700032018091480190E0982F882730914901F7
:100B8000830F911D909335018093340180914A0128
:100B900090E0982F882730914B01830F911D9093FF
:100BA00037018093360180914C0190E0B0E0A0E0E5
:100BB000BA2FA92F982F882730914D01830F911DAF
:100BC000A11DB11DDC019927882740914E0150E0FD
:100BD000542F4427052E000C660B770B840F951FAE
:100BE000A61FB71F30914F01830F911DA11DB11D8D
:100BF0008093380190933901A0933A01B0933B015F
:100C000081E0203E08F480E080933E0278C0813687
:100C100009F422C1C0F4863509F4C1C1803609F453
:100C200019C1853509F01AC20E94B502C82F0E9469
:100C3000B50290E0982F88278C0F911D9093400269
:100C400080933F025CC0843709F452C1853709F4B0
:100C5000E4C1843609F002C20E94B502C82FD0E078
:100C6000DC2FCC270E94B502C80FD11D0E94B5020F
:100C7000863409F0F8C0CE010E94F0020E94B5024D
:100C8000803209F0E6CE84E10E9474010E9499024C
:100C90006C013CE3E32E31E0F32EC7018C5391400D
:100CA0008C179D070CF0DBC00E9499028C159D05E6
:100CB00031F0C6010E9455030E9499026C01009117
:100CC0003F0210914002F7012081402F612F80E404
:100CD0000E940D03F7012181402F612F88E40E94BB
:100CE0000D030F5F1F4F1093400200933F02F2E08D
:100CF000EF0EF11CD2CF10924202109241020E94DC
:100D0000DB02EAC00E94B502803209F0A2CE84E183
:100D10000E94740147E050E064E171E085E492E0F4
:100D20000E94870080E1CDC00E94B502813879F031
:100D300020F4803841F080E007C0823851F08339D8
:100D4000D1F783E501C082E00E94C002C5C081E006
:100D5000FBCF82E1F9CF85E090E00E94F002CFCF97
:100D60008091430290914402892B49F660913E02A2
:100D70008AE00E94990161E08AE00E94E501CFB714
:100D8000F89480913D02811125C0F1018491F20116
:100D90009491E82FF0E0EE0FFF1FEA57FF4FA59167
:100DA000B4918C91982321F461E08AE00E9499012A
:100DB00061E08AE00E94E5018CB580618CBD8CB554
:100DC00080648CBD61E08DE00E94E50161E08BE014
:100DD0000E94E50180913D028F5F80933D02CFBF6D
:100DE00080913C02882351F08FB7F89490913C0297
:100DF000913021F49DB39DB39DBB8FBF83E58CBD26
:100E00001DBC60E08DE00E94990164E170E080E02B
:100E100090E00E943B02C0913E0261E06C278AE0B4
:100E20000E949901C5010197F1F76C2F8AE00E9499
:100E3000990162E370E080E090E00E943B0220E0D4
:100E400040E063E58CEA0E940D0390924402809298
:100E5000430255CF0E94B5020E94B50250CFC60191
:100E60000E9455035FCF853409F097C08091360109
:100E7000909137018C179D0790F000913F021091DF
:100E80004002000F111FC132D105F0F060E270E0A6
:100E9000C8010E942103005E1F4FA097F4CF8091EC
:100EA0004102909142020196909342028093410246
:100EB000C1E10E94B502803269F484E10E947401AC
:100EC0008C2F0E94740108C0BE01C8010E9421033A
:100ED000C0E1EFCF0E948D026114710409F444CD8A
:100EE0000E94F100882309F43FCD0E9400003CCD10
:100EF0000E94B502082F0E94B502D82F0E94B502A9
:100F0000C82F0E94B502803219F00E948D02E4CFF2
:100F100010E0102F00270D0F111D84E10E947401B5
:100F2000C63419F5F12CE12CE016F1060CF0FACEDE
:100F3000C0913F02D091400220E04C2F6D2F80E203
:100F40000E940D030E94740120E04C2F6D2F88E257
:100F50000E940D030E9474012196D0934002C09319
:100F60003F0222E0E20EF11CDFCFC534B1F4C091A4
:100F70003F02D0914002CC0FDD1F0C0F1D1F0C173C
:100F80001D0709F4CFCE2FEF4C2F6D2F80EA0E9462
:100F90000D030E9474012196F2CF81E192CF84E08B
:100FA00090E00E94F00220913F0140913E0160914B
:100FB0003D0180913C010E940D03C6CE1092420279
:100FC000109241029FB7F89480913D02882319F056
:100FD000815080933D0280913D02811105C08CB506
:100FE0008F7B8CBD10923C029FBF60E08BE00E9423
:100FF000E50160E08DE00E94E50160913E0281E044
:1010000068278AE00E94990160E08AE00E94E50179
:10101000109244021092430272CE0E94B5028032B6
:1010200009F017CD84E10E94740120E040E060E007
:1010300080E30E940D030E94740120E041E060E023
:1010400080E30E940D030E94740120E042E060E012
:1010500080E30E940D030E94740164CE80914102DE
:1010600090914202019690934202809341020E9425
:10107000B502803209F0F6CC82E123CFE5E4F2E05C
:101080001382128288EE93E0A0E0B0E0848395831F
:10109000A683B78386E091E09183808385EC90E01E
:1010A0009587848784EC90E09787868780EC90E032
:1010B000918B808B81EC90E0938B828B82EC90E023
:1010C000958B848B86EC90E0978B868B118E128E9D
:1010D000138E148E0895EE0FFF1F0590F491E02DEE
:0610E0000994F894FFCF13
:1010E60008800000000027018700B4007901E500B0
:0C10F600C300D70041565220495350005F
:00000001FF
