:10000000A8C0CCC0EEC5CAC0C9C0A1C5C7C0C6C0C3
:10001000C5C0C4C0C3C0C2C0C1C0C0C0BFC0CA0B7D
:10002000247C2A064CDAD9BE0552922E1ED4E7C390
:100030008B0F8BEF153710B2D909D025D8904E2DE4
:1000400047EF81920858B811A885A219EC67EAE138
:100050006B47B09B9D2603BAFACFD85CE1D6A026A9
:10006000D68210E44EE904771216D0B53D34A29F33
:10007000ADBE7CDE1BB005D59D548AE631EDAF07E1
:100080009A579695859CD8E76A7C30D6DD01D87B57
:10009000C5DB64F950E04310C9D9EA348765894269
:1000A00007C6C9475DE3EB242FD31FBC80AAF51117
:1000B000429D0C11CF45FA25CA9846FA86A80C171E
:1000C00038AF594B168B9D829A8B799B3D1C16201D
:1000D0003CEAD79B43A9A8F9160C674E5C820754EB
:1000E000A74AB72499EA2FFF66A6D3E1938002FCC2
:1000F000A1F54D0C65E1218AE7D78599FFF61253EA
:10010000FA27448CC4FBB66D8BC791A538FA71DC15
:10011000B8ADA50E6A2DEDC7F0299337812D0000EB
:10012000000037000000000038000000000036002A
:10013000020202020202020202020102040810206C
:1001400020041008010200000400000000001E0846
:10015000BD0811241FBECFE5D2E0DEBFCDBF10E049
:10016000A0E6B0E0E8E6F2E102C005900D92A43905
:10017000B107D9F721E0A4E9B0E001C01D92AE3586
:10018000B207E1F710E0C8EAD0E003C02197FE0112
:1001900059D8C73AD107D1F7CDD55AC831CFAF9288
:1001A000BF92CF92DF92EF92FF920F931F93CF9364
:1001B000DF936C017B018B01040F151FEB015E01C6
:1001C000AE18BF08C017D10759F06991D601ED915B
:1001D000FC910190F081E02DC6010995892B79F7FA
:1001E000C501DF91CF911F910F91FF90EF90DF90AC
:1001F000CF90BF90AF900895823089F018F481308D
:1002000051F00895833019F0843009F008958CB5C9
:100210008F7D8CBD08958AB58F778ABD08958AB584
:100220008F7DFBCF1F93CF93DF93282F30E0F90111
:10023000EC5BFE4F8491F901E65CFE4FD491F9012D
:10024000E05DFE4FC491CC23A1F0162F8111D4DFC5
:10025000EC2FF0E0EE0FFF1FEC5DFE4FA591B49187
:100260008FB7F894EC91111108C0D095DE23DC9380
:100270008FBFDF91CF911F910895DE2BF8CF833090
:10028000910528F0880F991F04970197F1F70895B9
:10029000CF92DF92EF92FF920F931F93CF93DF9352
:1002A0007C01EB01219710E000E0D7FD52C02091C6
:1002B0003701309138013327F901EC5BFE4F84910F
:1002C000F901E65CFE4FD490F901E05DFE4FC49069
:1002D000CC2009F43BC081118FDFEC2DF0E0EE0F54
:1002E000FF1FE65DFE4FA591B491EC91DE2231E057
:1002F00020E009F430E0832F922F0C2E02C0880FEB
:10030000991F0A94E2F7082B192B80913501970168
:100310000C2E02C0359527950A94E2F761E020FF84
:1003200060E080DF80913D0190913E01A8DF61E0B7
:100330008091330177DF80913D0190913E019FDFF5
:1003400060E0809133016EDF2197AFCF90E080E0D5
:10035000D4CF60E08091350165DFB801110F880BC3
:10036000990BDF91CF911F910F91FF90EF90DF904C
:10037000CF9008953FB7F8948091D9009091DA001A
:10038000A091DB00B091DC0022B708B601FE05C0E9
:100390002F3F19F00196A11DB11D3FBFBA2FA92F04
:1003A000982F8827BC01CD01620F711D811D911D01
:1003B00043E0660F771F881F991F4A95D1F708956C
:1003C0008F929F92AF92BF92CF92DF92EF92FF9265
:1003D0004B015C01CFDF6B017C01CCDF6C197D0927
:1003E0008E099F09683E734081059105B0F321E0B5
:1003F000821A9108A108B10888EEC80E83E0D81EC1
:10040000E11CF11C81149104A104B10431F7FF90A7
:10041000EF90DF90CF90BF90AF909F908F90089516
:100420002F923F924F925F926F927F928F929F9204
:10043000AF92BF92CF92DF92EF92FF920F931F93F2
:10044000CF93DF93CDB7DEB729970FB6F894DEBF11
:100450000FBECDBF4B012987D02ECE2C28E0E0E681
:10046000F0E0DE01119601900D922A95E1F74370BC
:1004700050E01A01220C331C220C331C280E391EAA
:10048000D1014D905D906D907C905A01BFEFAB1AF9
:10049000BB0AE3E0AE22BB24AA0CBB1CAA0CBB1C0B
:1004A000A80EB91EFA013396E370FF27EE0FFF1F67
:1004B000EE0FFF1FE80FF91FE080F180028113812A
:1004C0004E5F5F4F43705527440F551F440F551F14
:1004D000840F951FDC012D913D914D915C91F501AB
:1004E0006081718182819381EC2DF0E0EE0FFF1F1E
:1004F000A1E0B0E0AC0FBD1FEA0FFB1F0190F0813F
:10050000E02D0995ED2DF0E0EE0FFF1FEE0FFF1F20
:10051000E25EFF4F0591159125913491F401C08061
:10052000D180E280F3804C0C5D1C6E1C7F1C460E5B
:10053000571E681E791E400E511E621E731EB301A7
:10054000A201098404C0440F551F661F771F0A9437
:10055000D2F7898581958F7104C0769467945794FA
:1005600047948A95D2F7442A552A662A772AF501B4
:1005700080819181A281B381840D951DA61DB71D37
:10058000F10180839183A283B38329960FB6F894F7
:10059000DEBF0FBECDBFDF91CF911F910F91FF90B6
:1005A000EF90DF90CF90BF90AF909F908F907F9013
:1005B0006F905F904F903F902F9008953F924F9291
:1005C0005F926F927F928F929F92AF92BF92CF92E3
:1005D000DF92EF92FF920F931F93CF93DF93CDB7EC
:1005E000DEB7A0970FB6F894DEBF0FBECDBF6C018B
:1005F0005B01FC0180819181A281B38189839A830F
:10060000AB83BC8384819581A681B7818D839E83D2
:10061000AF83B88780859185A285B38589879A87BE
:10062000AB87BC8784859585A685B7858D879E8792
:10063000AF87B88B8091680090916900A0916A00A3
:10064000B0916B00898B9A8BAB8BBC8B4B0110E00C
:100650002E01F1E14F0E511C3401012FA4E0FA2EBE
:1006600033243394300EF20121912F01E12C4F2DD0
:10067000B301CE010196D4DEFA94F4E06F0E711C42
:10068000032DF110EDCF1C5F80E1880E911C10311D
:10069000F9F680916C0090916D00A0916E00B09180
:1006A0006F008D8B9E8BAF8BB88F88248394912C99
:1006B0000FE0080D2E01E5E14E0E511C340114E04F
:1006C000FF24F394F00EF20121912F01B3016F701A
:1006D0007727660F771F660F771F6A0D7B1DEE2445
:1006E000E394412FCE0101969BDE1150F5E06F0E91
:1006F000711C0F2D1111E4CF84E0880E911CE1E1F3
:100700008E169104A9F68091700090917100A091CD
:100710007200B0917300898F9A8FAB8FBC8F65E0A8
:10072000862E912C10E22E01F9E14F0E511C34015E
:10073000012F54E0F52E33243394300EF201219131
:100740002F01B3016F707727660F771F660F771F32
:100750006A0D7B1D42E0E42E4F2DCE01019660DE36
:10076000FA94F3E06F0E711C032DF110E4CF1C5FBF
:1007700084E0881A91081033B1F68091740090914A
:100780007500A0917600B09177008D8F9E8FAF8F0E
:10079000B8A3912C812C2E01EDE14E0E511C340199
:1007A000012F24E0F22E33243394300EF2012191F4
:1007B0002F01B3016F707727660F771F660F771FC2
:1007C0006A0D7B1D93E0E92E4F2DCE01019628DEA8
:1007D000FA94F7E06F0E711C032DF110E4CF1C5F4B
:1007E00084E0881A91081034B1F6F6018081918175
:1007F000A281B38149815A816B817C81840F951FCD
:10080000A61FB71F80839183A283B38384819581C0
:10081000A681B7814D815E816F817885840F951F98
:10082000A61FB71F84839583A683B7838085918590
:10083000A285B38549855A856B857C85840F951F74
:10084000A61FB71F80879187A287B3878485958568
:10085000A685B7854D855E856F857889840F951F40
:10086000A61FB71F84879587A687B7878089918938
:10087000A289B3890196A11DB11D808B918BA28B9A
:10088000B38BA0960FB6F894DEBF0FBECDBFDF913D
:10089000CF911F910F91FF90EF90DF90CF90BF907D
:1008A000AF909F908F907F906F905F904F903F9010
:1008B0000895EF92FF920F931F93E094F0940095A8
:1008C00010956E297F29802B912B6227732784270F
:1008D00095271F910F91FF90EF900895EF92FF924F
:1008E0000F931F932E253F254027512762277327FB
:1008F000842795271F910F91FF90EF900895EF9215
:10090000FF920F931F9362277327842795276E21E9
:100910007F218023912362277327842795271F91A6
:100920000F91FF90EF900895EF92FF920F931F9316
:100930002E253F25402751276223732384239523A7
:100940006E257F25802791271F910F91FF90EF90B3
:1009500008952091DF003091E0002817390771F4E5
:100960009091DD008091DE00981741F0E091DD006C
:10097000F0E0EC56FF4F808190E008958FEF9FEFFD
:1009800008950895EF92FF920F931F93CF93DF93F3
:10099000DC015C96ED90FC905D97E114F10479F434
:1009A00081E090E013969C938E93129790E080E004
:1009B000DF91CF911F910F91FF90EF900895519685
:1009C000ED91FC91529750968C915097982F90955D
:1009D0000FB75E962C915E97122F127021FD6095D5
:1009E000F8942081112319F1282B2083E701219706
:1009F000F1F728E0462F50E0308160FF1AC0382B15
:100A00003083E7012197F1F7BA0175956795215079
:100A100089F7112381F08081892380830FBF5C9641
:100A20008D919C910197F1F781E090E0C1CF29234E
:100A3000DCCF3923E5CF9081892BEFCF2091DF00E8
:100A40003091E0002817390769F48091DE00209189
:100A5000DD0090E0805C9F4F821B910960E470E0B4
:100A6000A8D3089590E080E008952091DF003091B0
:100A7000E00028173907B9F49091DD008091DE007D
:100A8000981789F0E091DD00F0E0EC56FF4F80818F
:100A90002091DD0030E02F5F3F4F2F7333272093ED
:100AA000DD0090E008958FEF9FEF089590E080E0E3
:100AB0000895FC0101900020E9F73197AF01481B30
:100AC000590BBC018FE391E06ACB8F929F92AF925A
:100AD000BF920F931F93CF93DF93CDB7DEB7A1974C
:100AE0000FB6F894DEBF0FBECDBF19A2423008F496
:100AF0004AE08E010F5D1F4F842E912CB12CA12C4A
:100B0000A501940169D3E62FB901CA01EA30ECF4DA
:100B1000E05DD801EE938D01232B242B252B81F74B
:100B200090E080E0109711F0CD01C3DFA1960FB6E1
:100B3000F894DEBF0FBECDBFDF91CF911F910F9113
:100B4000BF90AF909F908F900895E95CE2CF1F9285
:100B50000F920FB60F9211242F933F938F939F9371
:100B6000AF93BF938091D5009091D600A091D7000C
:100B7000B091D8003091D40026E0230F2D3758F5DE
:100B80000296A11DB11D2093D4008093D5009093AF
:100B9000D600A093D700B093D8008091D90090914F
:100BA000DA00A091DB00B091DC000196A11DB11D1F
:100BB0008093D9009093DA00A093DB00B093DC001F
:100BC000BF91AF919F918F913F912F910F900FBE49
:100BD0000F901F90189529E8230F0396A11DB11DB2
:100BE000D2CF1F920F920FB60F9211242F933F93E3
:100BF0004F935F936F937F938F939F93AF93BF9325
:100C0000EF93FF93E091DF00F091E000309749F01F
:100C1000A685B7858585968D91FF14C09C91892303
:100C2000A1F4FF91EF91BF91AF919F918F917F912F
:100C30006F915F914F913F912F910F900FBE0F9049
:100C40001F9018959C91892361F7A389B4899C9181
:100C50008589809589238C93868997890197F1F7F7
:100C6000608D718DA685B785558538E020E0CB0174
:100C70000197F1F7822F90E095958795282F4C9159
:100C8000452309F02068315091F7868D81FD20952C
:100C90008091DE0090E001968F7399273091DD00FE
:100CA000381799F0A091DE00B0E0AC56BF4F2C93FE
:100CB0008093DE00828D938D0197F1F7A389B4892B
:100CC0008C919589892B8C93ACCF868D8160868F92
:100CD000F1CFCF93DF9390E0FC01E65CFE4F2491CF
:100CE000805D9E4FFC0184918823D1F090E0880FB5
:100CF000991FFC01E25EFE4FA591B491FC01EC5DF1
:100D0000FE4FC591D49161110EC09FB7F8948C919C
:100D1000E22FE0958E238C932881E223E8839FBF06
:100D2000DF91CF9108958FB7F894EC91E22BEC937B
:100D30008FBFF6CFCF93DF93CDB7DEB7C855D109BC
:100D40000FB6F894DEBF0FBECDBF78948AB582602F
:100D50008ABD8AB581608ABD83B7826083BF83B74D
:100D6000816083BF89B7826089BF80B7826080BF9E
:100D700080B7816080BF329A319A3098379A8CB5AB
:100D800080648CBD10925A01109259011092580142
:100D90001092570110925601109255018DEC90E07F
:100DA00090935C0180935B0130914B01353020F5CD
:100DB00045E550E050935601409355014BEC50E00F
:100DC000509358014093570140E950E050935A0125
:100DD000409359012BB720622BBF45E350E050935D
:100DE00053014093520121E001C0220F3A95EAF7E6
:100DF000209354010197F1F78091590190915A0184
:100E0000892B49F1E091DF00F091E00081E0EF33C0
:100E1000F80709F1309739F0A389B4899C91858945
:100E2000809589238C9380915D018E7F80935D01F5
:100E30001092DE001092DD008FE391E09093E000CD
:100E40008093DF00E0915201F091530180819091F5
:100E50005401892B80838DEAC82E87E2D82E8FE03B
:100E6000E82E8CE4F82E90EF892E92EF992E98EBD5
:100E7000A92E98E2B92E2BE9422E28E3522E22E722
:100E8000622E25E7722EDE0115966796BFAFAEAFD4
:100E9000679730E2232EE1EFF0E06996FFAFEEAF07
:100EA000699710E000E061E080913301BBD9809147
:100EB0003D0190913E01E3D960E080913301B2D9C8
:100EC00061E080913101AED961E080913501AAD90C
:100ED00063E070E086E090E0DBD960913B017091C7
:100EE0003C01C801D5D96091390170913A016F5F19
:100EF0007F4F90E080E0CCD9362E60E080913101C8
:100F000091D980913D0190913E01B9D96996AEADDC
:100F1000BFAD69973D926996BFAFAEAF69976FE07D
:100F200070E080E090E04CDA0F5F1F4F0032110557
:100F300009F0B9CF65961CAE1DAE1EAE1FAE65970B
:100F400086E19CEFAAE5B1E225968CAF9DAFAEAFEE
:100F5000BFAF25972996CCAEDDAEEEAEFFAE29979A
:100F60002D968CAE9DAEAEAEBFAE2D9761964CAEBB
:100F70005DAE6EAE7FAE61976796AEADBFAD679763
:100F8000E4E31D92EA95E9F784E0E1EFF0E0DE01A9
:100F9000119601900D928A95E1F7F0E8FD8329AE54
:100FA0001AAE1BAE1CAE1DAE1EAE1FAE21961FAEFE
:100FB0002197BE016F5F7F4FCE018F5B9F4FFEDA9F
:100FC00080E1FE01EF5BFF4FA1EEB0E001900D92DA
:100FD0008A95E1F78AE890E06CDD8CE890E069DDC5
:100FE0008AE890E066DD01EE10E0D8013D908D01C9
:100FF000632D62956F7070E090E080E040E165DD08
:10100000632D6F7070E090E080E040E15EDDE1EF25
:10101000F0E0E017F10749F78AE890E04ADD81E95E
:1010200090E047DD68EE73E080E090E0C9D980E0B1
:1010300090E0892B09F42FCFE3D72DCF10924201F6
:101040001092410188EE93E0A0E0B0E0809343016C
:1010500090934401A0934501B09346018CE790E042
:101060009093400180933F011092560110925501D8
:10107000109258011092570110925A011092590182
:1010800010925C0110925B0160915D016E7F6D7F3B
:1010900060935D016695617081E0682782E0C2D847
:1010A00061E082E016DEECE3F1E0E491E0934F01D1
:1010B000E2E3F1E0E491F0E0EE0FFF1FEC5DFE4FA4
:1010C00085919491909351018093500160E085E067
:1010D00000DE80915D0181FD03C061E085E0A2D862
:1010E00085E080934B01EFE3F1E0E491E0934C0164
:1010F000E5E3F1E0E491F0E0EE0FFF1FE65DFE4F67
:101100008591949190934E0180934D0110923201FC
:101110001092310183E090E0909334018093330189
:1011200081E090E0909336018093350184E090E077
:10113000909338018093370186E090E090933C01D2
:1011400080933B0180E190E090933A0180933901D4
:1011500084E690E090933E0180933D0161E080E061
:10116000B8DD61E080913301B4DD61E0809135014B
:10117000B0DD60E080913701ACCD8CE790E09093DA
:10118000400180933F018091DF009091E0008F53F8
:10119000914071F4E0915201F0915301908180915E
:1011A00054018095892380831092E0001092DF0023
:1011B000089597FB072E16F4009406D077FD08D00B
:1011C0002DD007FC05D03EF4909581959F4F089552
:1011D000709561957F4F0895A1E21A2EAA1BBB1B43
:1011E000FD010DC0AA1FBB1FEE1FFF1FA217B307F3
:1011F000E407F50720F0A21BB30BE40BF50B661F09
:10120000771F881F991F1A9469F7609570958095CC
:1012100090959B01AC01BD01CF010895AA1BBB1B9A
:1012200051E107C0AA1FBB1FA617B70710F0A61BE6
:10123000B70B881F991F5A95A9F780959095BC0107
:10124000CD010895EE0FFF1F0590F491E02D099454
:1012500010E0C8EAD0E003C0FE01F4DF2196C93AED
:08126000D107D1F7F894FFCF8C
:1012680094047F046E045904070C111605090E1422
:10127800040B1017060A0F1500000000C204CF0067
:101288005605C1041E053505A9043A00686173684E
:04129800000D0A003B
:00000001FF
