:100000000C9482010C94AA010C94AA010C943D0D4D
:100010000C94180D0C94F30C0C94AA010C94AA01E6
:100020000C94AA010C94AA010C94AA010C94AA01A4
:100030000C94AA010C94AA010C94AA010C94AA0194
:100040000C948A0B0C94AA010C94580B0C94320B50
:100050000C94AA010C94AA010C94AA010C94AA0174
:100060000C94D40B0C94AA0100000000240027007B
:100070002A0000000008000201000003040700003D
:100080000000000000000000000000000000065F0B
:10009000060000070300070300247E247E240024BA
:1000A0002B6A12000063130864630036495620501F
:1000B00000000703000000003E4100000000413E38
:1000C000000000083E1C3E080008083E080800002A
:1000D000E0600000000808080808000060600000F8
:1000E000002010080402003E5149453E0000427FB6
:1000F00040000062514949460022494949360018EA
:1001000014127F10002F49494931003C4A494930B7
:10011000000171090503003649494936000649497D
:10012000291E00006C6C00000000EC6C0000000850
:100130001422410000242424242400004122140815
:10014000000201590906003E415D551E007E111155
:10015000117E007F49494936003E41414122007FDE
:100160004141413E007F49494941007F0909090158
:10017000003E4149497A007F0808087F0000417F1E
:10018000410000304040403F007F08142241007F82
:1001900040404040007F0204027F007F0204087F4D
:1001A000003E4141413E007F09090906003E4151A0
:1001B000215E007F0909196600264949493200017C
:1001C000017F0101003F4040403F001F2040201FB1
:1001D000003F403C403F0063140814630007087070
:1001E000080700714945430000007F4141000002BB
:1001F00004081020000041417F00000402010204B5
:10020000008080808080000003070000002054549C
:100210005478007F4444443800384444442800382B
:100220004444447F00385454540800087E090900AF
:100230000018A4A4A47C007F040478000000007DC2
:100240004000004080847D00007F102844000000B2
:10025000007F4000007C04180478007C04047800CF
:1002600000384444443800FC444444380038444492
:1002700044FC00447844040800085454542000040A
:100280003E442400003C40207C00001C2040201CF8
:10029000003C6030603C006C10106C00009CA06062
:1002A0003C00006454544C0000083E4141000000F2
:1002B00000770000000041413E08000201020100F9
:1002C000003C2623263C00000000250028002B00CF
:1002D0000000000023002600290004040404040494
:1002E00004040202020202020303030303030102E5
:1002F00004081020408001020408102001020408B4
:100300001020620D11241FBECFEFD8E0DEBFCDBF9D
:1003100012E0A0E0B1E0E6EFF1E202C005900D923C
:10032000A431B107D9F723E0A4E1B2E001C01D92E6
:10033000A73FB207E1F711E0C2E8D1E004C021977E
:10034000FE010E94EA10C138D107C9F70E94B40D1E
:100350000C94F9100C940000089508952091330333
:1003600081E0213208F044C0809132038111FCCF3A
:1003700080912B0392E09093320391E090933103AC
:100380009FEF909309031092080320930703ABE0BB
:10039000B3E0E7EEF2E090E0291331C01092E602FC
:1003A0009091E602880F892B8093E60280913003BA
:1003B000813049F5109230038091E6028093BB00B2
:1003C0008091BC0083FDF8CF85EC8093BC008091C8
:1003D00032038230E1F3809109038F3FB1F08091C5
:1003E00009038032A1F080910903803391F084E009
:1003F000109234031092330310920A0308953D9132
:1004000031939F5FC9CF85EEE0CF80E0F1CF82E0EE
:10041000EFCF83E0EDCF91E090930A0380932B031D
:100420001092340310923303089590913203911186
:10043000FCCF91E090933203909331032FEF209300
:10044000090310920803260F209307039093E602F6
:100450009091E602880F892B8093E6028091300309
:100460008130F9F4109230038091E6028093BB0052
:100470008091BC0083FDF8CF85EC8093BC00809117
:1004800032038130E1F380910803861710F4609104
:100490000803A7EEB2E0E6ECF2E080E0861303C0CA
:1004A000089585EEEACF9D9191938F5FF7CF0895E0
:1004B0008091350390913603891B990B08958F34F1
:1004C00011F0853441F4109201018F3421F481E060
:1004D000809300010895109200010895AF92BF9299
:1004E000CF92DF92EF92FF920F931F93CF93DF9300
:1004F0006C017B018B01040F151FEB015E01AE182F
:10050000BF08C017D10759F06991D601ED91FC9150
:100510000190F081E02DC6010995892B79F7C5017D
:10052000DF91CF911F910F91FF90EF90DF90CF90CF
:10053000BF90AF900895FC01538D448D252F30E07E
:10054000842F90E0821B930B541710F0CF960895E0
:1005500001970895FC01918D828D981761F0A28D0D
:10056000AE0FBF2FB11D5D968C91928D9F5F9F73D3
:10057000928F90E008958FEF9FEF0895FC01918D89
:10058000828D981731F0828DE80FF11D858D90E0F6
:1005900008958FEF9FEF0895FC01918D228D892F93
:1005A00090E0805C9F4F821B91098F73992708957B
:1005B00087E393E00E94CC0221E0892B09F420E03C
:1005C000822F089580E090E0892B29F00E94D802C4
:1005D00081110C9400000895FC01A48DA80FB92F7F
:1005E000B11DA35ABF4F2C91848D90E001968F735B
:1005F0009927848FA689B7892C93A089B1898C917A
:10060000837080648C93938D848D981306C00288C8
:10061000F389E02D80818F7D80830895EF92FF9292
:100620000F931F93CF93DF93EC0181E0888F9B8D15
:100630008C8D98131AC0E889F989808185FF15C0CF
:100640009FB7F894EE89FF896083E889F9898081F2
:100650008370806480839FBF81E090E0DF91CF91C1
:100660001F910F91FF90EF900895F62E0B8D10E0E3
:100670000F5F1F4F0F731127E02E8C8D8E110CC052
:100680000FB607FCFACFE889F989808185FFF5CF9D
:10069000CE010E94EC02F1CFEB8DEC0FFD2FF11D8E
:1006A000E35AFF4FF0829FB7F8940B8FEA89FB89DA
:1006B00080818062CFCFCF93DF93EC01888D882338
:1006C000B9F0AA89BB89E889F9898C9185FD03C0B5
:1006D000808186FD0DC00FB607FCF7CF8C9185FF9A
:1006E000F2CF808185FFEDCFCE010E94EC02E9CFF1
:1006F000DF91CF910895833081F028F4813099F013
:100700008230A9F008958730A9F08830C9F084308C
:10071000B1F4809180008F7D03C0809180008F773D
:1007200080938000089584B58F7784BD089584B543
:100730008F7DFBCF8091B0008F778093B0000895BC
:100740008091B0008F7DF9CF1F93CF93DF93282F37
:1007500030E0F901EE58FF4F8491F901E251FD4F6D
:10076000D491F901E652FD4FC491CC23A9F0162F84
:1007700081110E947B03EC2FF0E0EE0FFF1FEA5384
:10078000FD4FA591B4918FB7F894EC91111108C069
:10079000D095DE23DC938FBFDF91CF911F91089519
:1007A000DE2BF8CF109236031092350310923403EB
:1007B000109233031092320381E080933103109240
:1007C000300361E082E10E94A40361E083E10E94C2
:1007D000A403E9EBF0E080818E7F808380818D7FB0
:1007E000808388E48093B80085E48093BC008CEA21
:1007F00091E090932F0380932E038DEA91E09093E4
:100800002D0380932C030895CF93DF9390E0FC0198
:10081000E251FD4F249186529D4FFC018491882323
:10082000D1F090E0880F991FFC01E859FF4FA59186
:10083000B491FC01EA53FD4FC591D49161110EC0F2
:100840009FB7F8948C91E22FE0958E238C932881AA
:10085000E223E8839FBFDF91CF9108958FB7F8948B
:10086000EC91E22BEC938FBFF6CFCF93DF93A09167
:10087000C402B091C502109709F443C01C968C9134
:100880001C97EDE6F0E0883050F0EBE6F0E08E30BB
:1008900030F0ECE6F0E0863110F0F0E0E0E05FB739
:1008A000F8941092C5021092C402309749F11C9638
:1008B0008C911C97C8E6D0E0863110F0D0E0C0E003
:1008C0002881883008F46AC031E08E3008F430E0C6
:1008D00081E090E001C0880F3A95EAF78095822385
:1008E000888360811C964C91483008F059C081E0A3
:1008F00090E001C0880F4A95EAF7809586238083AF
:100900005FBF60E08091EF030E9404048091EF03D9
:1009100090E0FC01E251FD4FE491E093C302FC0141
:10092000E652FD4FE491F0E0EE0FFF1FE053FD4F64
:10093000859194919093F2038093F1038091F00359
:1009400090E0FC01E251FD4F24912093C202FC0192
:10095000E652FD4FE491F0E0EE0FFF1FEA53FD4F2A
:10096000A591B491B093C102A093C002109719F061
:10097000EC91E22BEC9361E08091F0030E9404047F
:100980008091EF038830E0F08E3008F45EC0ECE632
:10099000F0E08631B8F0DF91CF9108958BEF9FCFD3
:1009A000242F30E04E3048F42850310981E090E0A7
:1009B00001C0880F2A95EAF7A0CF2E503109F6CF53
:1009C000EDE6F0E08FEF8093BF021092BE0210922E
:1009D000BD028091F3039091F40381152BE49207FB
:1009E00009F457C0A8F58038954209F440C05FB7B4
:1009F000F89440819091EF03983008F052C081E064
:100A000001C0880F9A95EAF7842B80838091EF03C9
:100A1000E8E6F0E0863110F0F0E0E0E09081883028
:100A200008F44EC021E08E3008F420E081E001C0DF
:100A3000880F2A95EAF7892B808383EE93E09093C1
:100A4000C5028093C4025FBFA6CFEBE6F0E0BACF49
:100A500082312AE79207A9F08115964941F686E08E
:100A60008093BC028DE98093BB0284E007C08AE1D9
:100A70008093BC0287E28093BB028AE08093BA0233
:100A8000B6CF88E08093BC0280E88093BB0285E00B
:100A9000F5CF8DE08093BC028EE48093BB0286E0AC
:100AA000EDCF292F30E09E3040F42850310981E00D
:100AB00001C0880F2A95EAF7A7CF2E503109F7CF4A
:100AC00084E0B9CF8230910538F0880F991F880FE4
:100AD000991F05970197F1F708953FB7F894809112
:100AE0009F029091A002A091A102B091A20226B50E
:100AF000A89B05C02F3F19F00196A11DB11D3FBF56
:100B0000BA2FA92F982F8827BC01CD01620F711D24
:100B1000811D911D42E0660F771F881F991F4A951E
:100B2000D1F708958091A5029091A602803A91058F
:100B30002CF08091000080930000089561E00C94F7
:100B400004048091A5029091A602803A91052CF0B0
:100B50008091000080930000089560E00C940404EC
:100B60008091A3029091A402803A91052CF080918B
:100B7000000080930000089561E00C9404048091CB
:100B8000A3029091A402803A91052CF0809100007C
:100B900080930000089560E00C9404040E94920584
:100BA00090E080E00E9462050E94BF0590E080E036
:100BB0000E9462050E94A10590E080E00C9462050D
:100BC000CF93DF932091A5023091A602203A310500
:100BD00024F08091000080E01EC03327F901EE5818
:100BE000FF4F8491F901E251FD4FD491F901E65292
:100BF000FD4FC491CC2379F381110E947B03EC2F2C
:100C0000F0E0EE0FFF1FE053FD4FA591B491EC9182
:100C1000ED2381E001F3DF91CF910895CF93DF932E
:100C2000D82FC8E0D7FF29C00E94A1050E94BF05A8
:100C300090E080E00E9462050E94B005DD0FC15087
:100C400089F70E94A1050E94BF0590E080E00E9404
:100C500062050E94E005C82F0E94B00590E080E088
:100C60000E9462050E94920581E090E0CC2311F081
:100C700090E080E0DF91CF9108950E949205D6CF59
:100C8000BF92CF92DF92EF92FF920F931F93CF9379
:100C9000DF93B62EC72E7C01C62FD72F81E090E0C0
:100CA0002CC08FEF810F8E3F08F459C01F3F09F011
:100CB00053C00E94A10518E00E94BF0590E080E0AB
:100CC0000E9462050E94B0051150B1F70E94A10573
:100CD0000E94BF0590E080E00E9462050E94E0054E
:100CE000182F0E94B00590E080E00E9462050E94EB
:100CF0009205112379F190E080E02097B9F10197F6
:100D000009F043C0F70111917F018091A5029091F4
:100D1000A602803A91052CF20091000088E0D82EBE
:100D20000093000017FF06C090E080E00E9462057B
:100D30000093000090E080E00E94620500930000B4
:100D4000110FDA94D110ECCF90E080E00E946205A0
:100D5000009300002197A2CF0E949205ACCF812F73
:100D60000E940E068130910541F6F4CF019711F4EF
:100D7000CB2DDC2DCE01DF91CF911F910F91FF90F4
:100D8000EF90DF90CF90BF900895D0E0C0E0F2CF19
:100D9000CF93DF93C82FD62F0E94920590E080E07A
:100DA0000E9462050E94B0058C2F880FD1118F5FC1
:100DB000DF91CF910C940E06CF932091A502309134
:100DC000A6022F3F3F4F39F02091A3023091A40299
:100DD0002F3F3F4F51F40E940B020E94AE01C1E031
:100DE0008111C0E08C2FCF91089560E00E94C80669
:100DF000C1E0892B09F4C0E00E94CE05F3CF85ED58
:100E00008093BC008091BC0084FDFCCF1092320323
:100E1000089520917702260F3327331F21323105A1
:100E2000ECF420913203FC0190E080E0243069F082
:100E300082E00895A09177022191AC01495A5D4F5B
:100E4000A40FB52FB11D2C930196861798F38091AE
:100E50007702680F6093770280E0089581E008953B
:100E60000895E091360380913503E81730F4F0E0FF
:100E7000EA53FD4F808190E008958FEF9FEF089532
:100E800090913603809135032FEF3FEF981748F488
:100E9000E92FF0E0EA53FD4F208130E09F5F90930F
:100EA0003603C9010895CF92DF92EF92FF920F931C
:100EB0001F93CF93DF937C01CB018A0120910A031A
:100EC000222389F0EB016B01C40ED51ECC15DD0584
:100ED00069F06991D701ED91FC910190F081E02DCD
:100EE000C7010995F3CF642F0E940907C801DF915C
:100EF000CF911F910F91FF90EF90DF90CF900895C9
:100F0000EF92FF920F931F93CF93DF938C01EB012E
:100F1000E090A902F090AA028FEFE816F806C1F15E
:100F200061E0F8018081811101C060E08091AB0235
:100F30000E94A40360E08E2D0E94A403C130D1055D
:100F4000E1F0F80181818EBD329698012C0F3D1F92
:100F50002E173F0751F091910DB407FEFDCF8EB5CE
:100F60009EBDDF0112978C93F3CF2197C00FD11F45
:100F70000DB407FEFDCF8EB5888361E08091A90294
:100F8000DF91CF911F910F91FF90EF900C94A403EC
:100F90008091A7022091A5023091A6022F3F3F4FDA
:100FA00039F02091A3023091A4022F3F3F4F89F4E2
:100FB0000E940B02AE015527B80184ED93E00E9418
:100FC0005307DF91CF911F910F91FF90EF900C94F9
:100FD000AE0160E00E94C806019721F4BE01C8017D
:100FE0000E944006DF91CF911F910F91FF90EF90EB
:100FF0000C94CE05CF93DF9300D000D0CDB7DEB7F1
:101000002091AF023091B0022530310519F580965C
:101010002091AD023091AE02232B11F46C5F7F4F13
:101020001982606B6A83282F2F702B8324E095959B
:1010300087952A95E1F780618C8364E070E0CE01AA
:1010400001960E9480070F900F900F900F90DF91F4
:10105000CF9108952430310511F40296E1CF263066
:10106000310559F42091AD023091AE02232B11F0DD
:101070008096D6CF6E5F7F4FD3CF2730310581F674
:101080004C962091AD023091AE02232B49F66D5F54
:101090007F4FC6CFCF93DF931F92CDB7DEB7698363
:1010A00020910A032223F9F020913303203258F0D3
:1010B00021E030E0FC013383228390E080E00F9058
:1010C000DF91CF91089580913403E82FF0E0E55F40
:1010D000FC4F998190838F5F809334038093330317
:1010E00081E090E0ECCF61E0CE0101960E9409071B
:1010F000F7CFCF93DF93D82FC62F8091E0030E94C4
:101100000B026D2F84ED93E00E944A086C2F84ED52
:1011100093E00E944A08DF91CF910C94AE01CF93E7
:10112000DF9300D0CDB7DEB78091E0030E940B02C1
:1011300066E084ED93E00E944A0819821A8242E038
:1011400050E0BE016F5F7F4F84ED93E00E94530734
:101150000E94AE010F900F90DF91CF910895E09122
:10116000C402F091C5023097C1F00288F389E02DE6
:10117000309709F009942091BD0230E0A9014F5F3A
:101180005F4F4F7355279091BE02941731F0295E3F
:101190003D4FF90180834093BD020895CF93DF93C3
:1011A000EC013091BF023F3F91F1AE85BF858C913C
:1011B0009091C302892359F126B599E0931B809140
:1011C000BA02280F80911602281B8091BB02289F2B
:1011D00090011124232F3327269526959217130665
:1011E000B0F48091150220911402915018F0822BD6
:1011F000220FFBCF80931502209314029093BF021D
:101200000E94AF0881E02A893B89232B09F080E006
:10121000DF91CF910895EF92FF920F931F93CF9399
:10122000DF93E6B4F090C302F8229091BF029F3F93
:1012300091F4F11009C01092BF0281E08093140272
:1012400010921502E0921602DF91CF911F910F913B
:10125000FF90EF900895C091BA02CE0D80911602D2
:10126000C81B8091BB02C89FE0011124CD2FDD2750
:10127000C695C69529E0291B022F10E00C171D0703
:1012800008F02C2F920F9093BF024091140280918E
:101290001502F11011C02150342F330F2F3F19F0D8
:1012A000842B432FF8CF809315023093140298308B
:1012B00048F20E94AF0813C02150330B01C0440F05
:1012C0002A95EAF740931402842B809315029830F4
:1012D00008F4B8CF0E94AF0881E0F81621F00C178F
:1012E0001D0708F4A8CF8FEF8093BF02ABCFCF923A
:1012F000DF92EF92FF920F931F93CF93DF938C01B6
:10130000D62E8091C0029091C102892B09F454C05D
:10131000D8011C969C91D4E0983048F081E09E3032
:1013200008F480E0D1E001C0DD0F8A95EAF7CFB67E
:10133000F894F6B490E0E12CE394E091C002F091CF
:10134000C1028091C202BAE0EB1651F19923D9F0A3
:101350009081892B8083C091BC02C63011F4E0FCDF
:10136000C7E086B58F198C17B0F48BB38D2379F055
:101370008BB38D2B8BBBD8011E96ED91FC91808198
:101380000E940B09EECF908180958923E3CFC8019D
:101390000E94CE08E6CFFC0E9D2D9170D694CCCF46
:1013A0009081892B8083CFBE86B58F198C1778F4F6
:1013B000C8010E94CE08F8CF90E080E0DF91CF9185
:1013C0001F910F91FF90EF90DF90CF90089581E0F3
:1013D00090E0F4CF2091BE028091BD02821769F0A7
:1013E00030E0F901E95EFD4F80812F5F3F4F2F73A1
:1013F00033272093BE0290E008958FEF9FEF08956A
:101400009C018091BD029091BE02891B990B805C6A
:101410009F4F60E470E00E94C210811105C0C901B5
:10142000F8940E94CE08789490E0089590E080E0CF
:1014300008950F931F93CF93DF93CDB7DEB7C158B5
:10144000D1090FB6F894DEBF0FBECDBF8B0120E4EB
:101450002983AB01BC01CE0102960E94F010B801B5
:101460006F5F7F4FCE0101960E948007CF57DF4FFD
:101470000FB6F894DEBF0FBECDBFDF91CF911F91A5
:101480000F91089542E050E06EE471E087E393E04D
:101490000C946E02CF93DF93FC0101900020E9F7DA
:1014A0003197AF01481B590BBC0187E393E00E94C1
:1014B0006E02EC010E94420A8C0F9D1FDF91CF91BA
:1014C0000895CF93C82F80E50E940B0260E084ED61
:1014D00093E00E944A086C2F84ED93E00E944A0832
:1014E0000E94AE0161E080E50E9415021092360371
:1014F00080933503882331F084ED93E00E94400708
:10150000CF9108958FEFFCCFDF92EF92FF920F9370
:101510001F93CF93DF93CDB7DEB7A8970FB6F8949C
:10152000DEBF0FBECDBF9093B9028093B802709317
:10153000B7026093B6022091B5022817190609F088
:101540000CF47DC02091B402269526952695261789
:10155000170609F00CF473C08A010E94FA0778019B
:1015600086E0D82E2091B5028091B8029091B90200
:101570002817190609F00CF472C08091B402869500
:10158000869586952091B6023091B7028217130690
:1015900009F00CF464C0F70161917F01662309F43E
:1015A0005EC060526D9DB00111246A577F4F46E0C6
:1015B00050E0CE0101960E94B9108091B80290913E
:1015C000B9020091B50210E09C012A5F3F4F02175B
:1015D000130794F5081B190BB801CE0101960E9460
:1015E000190A8091B8029091B902080F191F10933F
:1015F000B9020093B8028091B5028017110611F06C
:101600000CF0B0CF8091B2029091B302892B09F413
:10161000A9CF1092B9021092B8026091B6027091EF
:10162000B7026F5F7F4F7093B7026093B60290E08E
:1016300080E00E94FA0796CF06E010E0CDCF8FEF52
:101640009FEFA8960FB6F894DEBF0FBECDBFDF9117
:10165000CF911F910F91FF90EF90DF90089590E050
:1016600080E0EFCF1F920F920FB60F9211242F93AD
:101670003F934F935F936F937F938F939F93AF931A
:10168000BF93EF93FF9387E393E00E94EC02FF91F7
:10169000EF91BF91AF919F918F917F916F915F91EA
:1016A0004F913F912F910F900FBE0F901F90189563
:1016B0001F920F920FB60F9211242F938F939F9327
:1016C000EF93FF93E0914703F09148038081E0910D
:1016D0004D03F0914E0382FD1BC090818091500319
:1016E0008F5F8F7320915103821741F0E091500377
:1016F000F0E0E95CFC4F958F80935003FF91EF91F0
:101700009F918F912F910F900FBE0F901F90189562
:101710008081F4CF1F920F920FB60F9211242F9356
:101720003F938F939F93AF93BF9380919B02909130
:101730009C02A0919D02B0919E0230919A0223E0FA
:10174000230F2D3758F50196A11DB11D20939A0244
:1017500080939B0290939C02A0939D02B0939E0263
:1017600080919F029091A002A091A102B091A2024B
:101770000196A11DB11D80939F029093A002A0939A
:10178000A102B093A202BF91AF919F918F913F911F
:101790002F910F900FBE0F901F90189526E8230FE2
:1017A0000296A11DB11DD2CF1F920F920FB60F92BC
:1017B00011242F933F934F935F936F937F938F9356
:1017C0009F93AF93BF93EF93FF938091B900887F6E
:1017D000803609F44AC0F0F5883209F4A7C018F53C
:1017E000803109F49BC0B8F4882309F4F9C088302B
:1017F00009F494C0FF91EF91BF91AF919F918F91A8
:101800007F916F915F914F913F912F910F900FBEFC
:101810000F901F901895883109F488C0803251F7D5
:101820008093090314C0803409F49DC040F48033D0
:10183000B9F38833F9F68093090385ECB0C080359D
:1018400009F485C0883509F496C0883499F60E9459
:10185000FF06D0CF883909F48CC038F5883729F0D5
:1018600050F4883611F0803729F683E080933203F4
:101870001092990257C0883809F47BC0803919F05A
:10188000803809F0B7CF80919902803208F071C09A
:10189000E091990281E08E0F809399028091BB00C4
:1018A000F0E0E758FD4F80833DC0803B39F0E0F425
:1018B000803A09F479C0883A09F09CCF84E080939B
:1018C00032031092780210927702E0912E03F09189
:1018D0002F0309958091770281110FC081E08093D9
:1018E00077021092570209C0803C09F4A6CF883CC9
:1018F00009F4A3CF883B09F07DCFE091780281E025
:101900008E0F80937802F0E0E95AFD4F808180933A
:10191000BB00909178028091770229C08091E60205
:101920008093BB0085EC8093BC0064CF909108034A
:1019300080910703981758F5E091080381E08E0F16
:1019400080930803F0E0E951FD4F8081E9CFE091F9
:10195000080381E08E0F809308038091BB00F0E0C4
:10196000E951FD4F808390910803809107039817F8
:10197000C8F285E8D8CFE091080381E08E0F80930C
:1019800008038091BB00F0E0E951FD4F8083809116
:10199000310381115CCF81E08093300384EA80932E
:1019A000BC001092320326CF85EC8093BC001092CD
:1019B000320380919902803230F4E0919902F0E094
:1019C000E758FD4F10826091990270E0E0912C037E
:1019D000F0912D0389E792E00995109299020ACFC0
:1019E0001092090334CF1F920F920FB60F92112459
:1019F0002F933F934F935F936F937F938F939F9317
:101A0000AF93BF93EF93FF9389B10E940B09FF91AE
:101A1000EF91BF91AF919F918F917F916F915F9166
:101A20004F913F912F910F900FBE0F901F901895DF
:101A30001F920F920FB60F9211242F933F934F9343
:101A40005F936F937F938F939F93AF93BF93EF9326
:101A5000FF9386B10E940B09FF91EF91BF91AF9167
:101A60009F918F917F916F915F914F913F912F91B6
:101A70000F900FBE0F901F9018951F920F920FB6E8
:101A80000F9211242F933F934F935F936F937F9304
:101A90008F939F93AF93BF93EF93FF9383B10E9474
:101AA0000B09FF91EF91BF91AF919F918F917F9122
:101AB0006F915F914F913F912F910F900FBE0F90BB
:101AC0001F901895E7E3F3E01382128288EE93E00B
:101AD000A0E0B0E084839583A683B7832CE131E056
:101AE0003183208325EC30E03587248724EC30E0F7
:101AF0003787268720EC30E0318B208B21EC30E0DB
:101B0000338B228B22EC30E0358B248B26EC30E0BB
:101B1000378B268B118E128E138E148EE4EDF3E02C
:101B20001382128284839583A683B7832EE231E0E9
:101B300031832083E3EEF3E0138212828483958362
:101B4000A683B78380E491E0918380838DE08487CE
:101B500082E08587138A128AE0EEF3E080E28083D8
:101B6000118212820C94D203CF93DF93CDB7DEB7EC
:101B7000A1970FB6F894DEBF0FBECDBF789484B5A1
:101B8000826084BD84B5816084BD85B5826085BD79
:101B900085B5816085BD80916E00816080936E0007
:101BA00010928100809181008260809381008091F9
:101BB00081008160809381008091800081608093AA
:101BC00080008091B10084608093B1008091B0006A
:101BD00081608093B00080917A00846080937A0065
:101BE00080917A00826080937A0080917A0081608F
:101BF00080937A0080917A00806880937A001092B6
:101C0000C1008FB7F8942FE532E03093F6032093AC
:101C1000F5038FBF8091F3039091F40380389542D0
:101C200079F080E895E29093F4038093F303809138
:101C3000C4029091C502835E934011F40E94350462
:101C40000E943504E0914703F091480382E08083CD
:101C5000E0914303F09144031082E0914503F09139
:101C600046038FEC808310924F03E0914B03F09179
:101C70004C0386E08083E0914903F0914A03808120
:101C800080618083E0914903F0914A0380818860FC
:101C90008083E0914903F0914A03808180688083CA
:101CA000E0914903F0914A0380818F7D808381E533
:101CB00091E00E944A0A0E94420A0E948F0860E056
:101CC00086E00E94790860E087E00E94790883E05E
:101CD00090E09093B0028093AF021092AE02109207
:101CE000AD021092B3021092B2028FEF9FEF909369
:101CF000AC028093AB029093AA028093A9029093C6
:101D0000A6028093A5029093A4028093A3020E944E
:101D1000D2038CE08093B8001092A8021092A70220
:101D20008CE30E94DC06882309F489C08CE390E0F0
:101D30009093A8028093A7021091A70219A2809104
:101D4000A5029091A602019639F08091A30290918C
:101D5000A402019609F07BC0812F0E940B0269A1A9
:101D600084ED93E00E944A080E94AE0161E0812F59
:101D70000E941502109236038093350384ED93E0A0
:101D80000E944007182F812F8F701770173009F0AD
:101D90009EC081E090E09093B0028093AF0201E09A
:101DA00010E066E170E082E091E00E948007012B84
:101DB00089F0198280EA8A8362E070E0CE010196A0
:101DC0000E94800780EC8A8362E070E0CE01019679
:101DD0000E94800780E88093B50280E48093B4027B
:101DE000D090B402D694D694D694C090B502C29442
:101DF0003FE0C3228E010F5F1F4F80E1F801119277
:101E00008A95E9F71092B7021092B6021092B902C1
:101E10001092B802F12CE12CED1408F072C0B70159
:101E200090E080E00E94FA07B12CBC1408F05AC080
:101E300060E170E0C8010E94190AB394F6CF8DE307
:101E40000E94DC06882361F28DE390E071CF60E0B0
:101E5000812F0E94C806019721F010E00E94CE0554
:101E600092CF61E070E0CE0181960E94400601971A
:101E7000A1F70E94CE0561E0812F0E94C80601975C
:101E800061F70E94A10508E010E090E080E00E9468
:101E900062050E94BF05110F0E94E005811115C067
:101EA0000E94B005015089F70E94A1050E94BF055C
:101EB00090E080E00E9462050E94B00590E080E022
:101EC0000E9462050E949205C9CF1160E9CF883057
:101ED00031F484E090E09093B0028093AF0210E080
:101EE00000E05FCF8091AF029091B002079729F494
:101EF00068E070E0C8010E94190AFFEFEF1AFF0ABC
:101F00008BCF20E0C22E20E0D22E0E946D052B0147
:101F10003C0194EF892E99249394A12CB12C0E941A
:101F20006D056419750986099709683E7340810536
:101F30009105A8F321E0821A9108A108B10888EE62
:101F4000480E83E0581E611C711C81149104A10489
:101F5000B10429F785E791E00E944A0A80E20E94D5
:101F60000B020E94AE018111C0C04BE951E070E04C
:101F700060E090E080E00E94840A8BE991E00E949A
:101F80004A0A8CE30E940B020E94AE018111B8C084
:101F900049EA51E070E060E088E290E00E94840A43
:101FA00089EA91E00E944A0A80E50E940B020E94A1
:101FB000AE018111B0C049EB51E070E060E086E510
:101FC00090E00E94840A89EB91E00E944A0A809185
:101FD00001018F3F09F4AAC047EC51E062E070E0D4
:101FE00090E080E00E94840A87EC91E00E944A0A17
:101FF00080910001813009F0A4C04BED51E062E016
:1020000070E08AE390E00E94840A8BED91E00E94E8
:102010004A0A4FEF51E064E070E090E080E00E94F7
:10202000840A5E01F1E1AF0EB11CF12CE12C4501F7
:10203000C7010E94610AF50181935F01FFEFEF1A6A
:10204000FF0A20E1E216F10499F7580180E1E82E39
:10205000F12CC7010E94610AF50181935F01FFEF36
:10206000EF1AFF0A20E2E216F10499F7A40165E0F5
:1020700070E090E080E00E94840AA80166E070E0D1
:1020800090E080E00E94840AC4010E944A0AC801CC
:102090000E944A0A0E94420A8091B1028095809370
:1020A000B1020E948F0860E086E00E94790860E03B
:1020B00087E00E947908F090B102F092E1036F2D61
:1020C00082E00E947908F092E2036F2D83E00E9483
:1020D0007908C114D10409F418CF0E94D8028823CA
:1020E00009F413CF0E94000010CF42EA51E070E0E3
:1020F00060E090E080E00E94840A82EA91E03FCFB5
:1021000041EB51E070E060E088E290E00E94840AD8
:1021100081EB91E047CF40EC51E070E060E086E574
:1021200090E00E94840A80EC91E04FCF41ED51E0B5
:1021300062E070E090E080E00E94840A81ED91E02E
:1021400055CF81110BC047EE51E062E070E08AE3A9
:1021500090E00E94840A87EE91E059CF43EF51E06E
:1021600062E070E08AE390E00E94840A83EF91E0ED
:102170004ECFFB01DC0102C005900D924150504052
:10218000D8F7089597FB072E16F4009407D077FD33
:1021900009D00E94D61007FC05D03EF49095819599
:1021A0009F4F0895709561957F4F0895AA1BBB1BA3
:1021B00051E107C0AA1FBB1FA617B70710F0A61B47
:1021C000B70B881F991F5A95A9F780959095BC0168
:1021D000CD010895EE0FFF1F0590F491E02D0994B5
:1021E000FB01DC0102C001900D9241505040D8F734
:0621F0000895F894FFCFF2
:1021F600FFFF00AEA83FD30040A1C8DA1281FFA4BA
:10220600A6D5808D14AF2002000000000E036E02DA
:102216009B025B03CC02AA02BE02000000004A0831
:102226005307160A3007580240073107000000001E
:1022360077096E02160A5702000AEA09160A0D0AFB
:10224600002A2A2A2A2A2A2A2053657269616C20C2
:10225600706F72742073746172746564202A2A2AFE
:102266002A2A2A2A002A2A2A2A2A2A2A204861725F
:1022760064776172652073656C662D746573746925
:102286006E67202A2A2A2A2A2A2A0053414F3A4FC1
:102296004B0053414F3A4853004F4C45443A4F4B3D
:1022A600004F4C45443A4853003234433A4F4B00B2
:1022B6003234433A485300415474696E793A4F4B6D
:1022C60000415474696E793A4853003933632B647C
:1022D6006174613A4F4B003933632B646174613A20
:1022E6004853003933632B646174613A2A2A0032F9
:1022F60034632066697273742033322062797465A0
:04230600733A000026
:00000001FF
