:020000040800F2
:1000000000200020092A00089529000897290008E7
:1000100000000000000000000000000000000000E0
:100020000000000000000000000000009929000806
:1000300000000000000000009B2900089D29000826
:10004000592A000800000000592A0008592A00080F
:10005000592A0008592A0008592A0008592A000874
:1000600000000000592A0008592A0008592A0008EF
:10007000592A0008592A0008592A000800000000DF
:10008000592A0008592A000800000000592A0008CF
:10009000592A0008592A0008592A0008592A000834
:1000A000592A0008592A0008592A0008592A000824
:1000B000592A0008000000000000000000000000B5
:1000C00010B5064C2378002B07D1054B002B02D02E
:1000D000044800E000BF0123237010BDB0000020E1
:1000E00000000000E42A0008044B10B5002B03D0E8
:1000F0000349044800E000BF10BDC04600000000F6
:10010000B4000020E42A0008002243088B4274D384
:1001100003098B425FD3030A8B4244D3030B8B4208
:1001200028D3030C8B420DD3FF22090212BA030C11
:100130008B4202D31212090265D0030B8B4219D3F2
:1001400000E0090AC30B8B4201D3CB03C01A524112
:10015000830B8B4201D38B03C01A5241430B8B425A
:1001600001D34B03C01A5241030B8B4201D30B0343
:10017000C01A5241C30A8B4201D3CB02C01A52416A
:10018000830A8B4201D38B02C01A5241430A8B422D
:1001900001D34B02C01A5241030A8B4201D30B0216
:1001A000C01A5241CDD2C3098B4201D3CB01C01A30
:1001B000524183098B4201D38B01C01A524143093A
:1001C0008B4201D34B01C01A524103098B4201D328
:1001D0000B01C01A5241C3088B4201D3CB00C01A95
:1001E000524183088B4201D38B00C01A524143080D
:1001F0008B4201D34B00C01A5241411A00D2014632
:10020000524110467047FFE701B5002000F006F8A4
:1002100002BDC0460029F7D076E770477047C04658
:100220000023C25C0133002AFBD1581E704710B571
:10023000040000F0B9FDFA218900FFF765FF00F026
:1002400069F8012000222100404200F033F800202C
:1002500010BD000010B5064A136810210B4313604F
:100260000020FFF7E4FF02F043FB002010BDC04672
:1002700000200240024A1368013313607047C046F1
:10028000DC000020014B18687047C046DC000020ED
:1002900030B583B00190FFF7F5FF0500019C631CAA
:1002A00000D00134FFF7EEFF401BA042FAD303B0A9
:1002B00030BD000070B5002811DB8408134DC03438
:1002C000A400625903231840C000FC331E0086407E
:1002D000B24389010B4083401343635170BDC0B2E8
:1002E0000F220240083A920806329200084BD318B7
:1002F0005D6803242040C000FF2214008440A54311
:1003000089010A4082402A435A60E7E700E100E0A1
:1003100000ED00E001380A4B98420FD8094A5060BE
:100320000948036A1B021B0AC02109060B4303622A
:100330000023936007331360002070470120FCE71F
:10034000FFFFFF0010E000E000ED00E0042805D012
:10035000054A136804218B4313607047024A1368EF
:1003600004210B431360F8E710E000E0704710B57C
:10037000FFF7FCFF10BD000010B5054B0022DA614D
:10038000044A1369012423431361018010BDC04650
:10039000E0000020002002400C4BDB68DB0613D598
:1003A0000B4AD36902210B43D3611023074AD26859
:1003B000520706D50649CA6901200243CA610422D0
:1003C0001343024AD36070470023EFE70020024046
:1003D000E0000020064B1B691B0606D5044B054AAE
:1003E0005A60054A5A60002070470120FCE7C04669
:1003F0000020024023016745AB89EFCD034A136912
:1004000080210B43136100207047C046002002404A
:1004100070B50400FFF736FF0500134BDB68DB0700
:100420000AD5631CF9D0002C19D0FFF72BFF401B15
:10043000A042F2D9032011E00B4BDB689B0602D5EA
:10044000094B2022DA60084BDB68DB0603D4064B3D
:10045000DB685B0705D5FFF79FFF012070BD032018
:10046000FCE70020FAE7C04600200240F0B5C6468F
:1004700000B504000D0090461E00214B1B7E012B91
:100480003BD01F4B01221A761E48FFF7C1FF002800
:100490002DD1012C06D0022C02D0042700241BE011
:1004A0000227FBE70127F9E72022D21A3100914009
:1004B0000A004146D940114389B24019FFF75CFF59
:1004C0001048FFF7A5FF104A136901218B43136100
:1004D00000280CD10134E4B2BC4208D260002301F0
:1004E000202252429A18DFD43100D140E4E7044B75
:1004F00000221A7604BC9046F0BD0220FAE7C046FE
:10050000E000002050C3000000200240064B002203
:10051000DA61064B1A6904210A431A611A693C31EF
:100520000A431A617047C046E000002000200240E4
:10053000064B0022DA61064B1A6902210A431A614E
:1005400058611A693E310A431A617047E000002081
:100550000020024070B505000E00244B1B7E012BCD
:1005600041D0224B01221A760368012B22D0204869
:10057000FFF74EFF002831D101235B4233606C68E6
:100580000130AB689B026A6894466344A34226D953
:100590002000FFF7CDFF1648FFF73AFF154A136911
:1005A00002218B431361002816D18023DB009C4677
:1005B0006444E6E70E48FFF72BFF002801D0012036
:1005C0000DE0FFF7A3FF0A48FFF722FF094A13696E
:1005D00004218B43136102E0346000E00120034BEF
:1005E00000221A7670BD0220FCE7C046E000002021
:1005F00050C3000000200240F0B5C64600B582B0EE
:10060000002338E0032600E00026AE4035003D43DD
:100610000234A400554EA551554C25684246D4439A
:100620002E0026404A68D20302D5424615432E00CA
:100630004F4D2E606D682E0026404A68920302D509
:10064000424615432E004A4D6E60AD682E0026408E
:100650004A68D20202D5424615432E00444DAE6090
:10066000ED682C404A68920202D542462A431400A3
:100670003F4AD46001330A681400DC4071D0012580
:100680009D402A409046F5D04C68022C01D0122C97
:100690000ED1DC080834A400275807261E40B600F7
:1006A0000F22B24097430A69B24016003E432650DB
:1006B00002685F0003242600BE40F64332409446A1
:1006C0004A681440BC406246144304604C68621E91
:1006D000012A03D9112C01D0122C10D18468344086
:1006E000A446CC68BC406246144384604468AC4372
:1006F0004A681209012515409D4025434560C4689C
:1007000026408C68BC403443C4604A68D200B1D5EE
:10071000184DAE6901242643AE61AD692C400194A9
:10072000019C9C08A51CAD00104EAF5903251D402F
:10073000AD000F26AE40B7439026F605B04200D17B
:1007400062E70D4EB04208D00C4EB04207D00C4EBE
:10075000B04200D156E7052657E7012655E70226A5
:1007600053E702B004BC9046F0BDC0460000014013
:100770000004014000100240000400480008004846
:10078000000C0048002A01D1816270478161FCE7BA
:1007900070B582B004000368DB0726D5AE4B5A68FB
:1007A0000C231340042B18D0AB4B5A680C23134076
:1007B000082B0ED06368012B3CD0002B51D1A64BE7
:1007C0001A68A6490A401A601A68A5490A401A60C0
:1007D00036E0A14B5B68DB03ECD59F4B1B689B03AA
:1007E00003D56368002B00D1ECE123689B0773D528
:1007F000994B5B680C221A425DD0974B5A680C23C8
:100800001340082B53D0E368002B00D186E0924AB6
:10081000136801210B431360FFF734FD05008E4B75
:100820001B689B0771D4FFF72DFD401B0228F6D9EA
:100830000320CAE1884A116880235B020B431360DE
:100840006368002B25D0FFF71DFD0500824B1B6858
:100850009B03CAD4FFF716FD401B6428F6D903207A
:10086000B3E1052B09D07C4B1A687C490A401A6019
:100870001A687B490A401A60E2E7774B19688022C0
:10088000D2020A431A601968802252020A431A608F
:10089000D6E7FFF7F7FC05006F4B1B689B03A4D559
:1008A000FFF7F0FC401B6428F6D903208DE16A4B6A
:1008B0005B68DB03A7D4684B1B689B0704D5E36820
:1008C000012B01D0012080E163490B68F82293439A
:1008D0002269D20013430B6023681B0744D5E369E8
:1008E000002B2ED05C4A536A01210B435362FFF761
:1008F000C9FC0500584B5B6A9B0735D4FFF7C2FC67
:10090000401B0228F6D903205FE153490B68F82207
:1009100093432269D20013430B60DDE74E4A13680C
:1009200001218B431360FFF7ADFC05004A4B1B68A8
:100930009B07D1D5FFF7A6FC401B0228F6D9032060
:1009400043E1454A536A01218B435362FFF79AFC06
:100950000500414B5B6A9B0706D5FFF793FC401BE4
:100960000228F6D9032030E123685B0700D47FE03A
:10097000394BDB69DB001DD4374AD1698020400543
:100980000143D161D36903400193019B0125354B9C
:100990001B68DB0510D5A368012B21D0002B36D1B5
:1009A0002D4B1A6A01218A431A621A6A03318A435B
:1009B0001A621AE00025EAE72A4A116880235B00E0
:1009C0000B431360FFF75EFC0600264B1B68DB053C
:1009D000E1D4FFF757FC801B6428F6D90320F4E02C
:1009E0001D4A136A01210B431362A368002B24D014
:1009F000FFF748FC0600184B1B6A9B0736D4FFF72D
:100A000041FC801B184B9842F5D90320DDE0052BF3
:100A100009D0114B1A6A01218A431A621A6A0331FA
:100A20008A431A62E1E70C4B1A6A04210A431A62EC
:100A30001A6A03390A431A62D7E7FFF723FC060054
:100A4000054B1B6A9B0711D5FFF71CFC801B064B4F
:100A50009842F5D90320B8E000100240FFFFFEFFE6
:100A6000FFFFFBFF0070004088130000012D33D012
:100A70002368DB0610D56369012B33D0053351D1D0
:100A8000544A536B04218B435363536BF4318B43B0
:100A9000A169C9000B435363236A002B00D193E083
:100AA0004C4A51680C220A40082A00D18FE0022BE0
:100AB0004FD0484A136848490B401360FFF7E2FBE8
:100AC0000400444B1B689B017AD5FFF7DBFB001B3E
:100AD0000228F6D9032078E03E4AD3693F490B400B
:100AE000D361C5E73B4B5A6B04210A435A635A6BE7
:100AF00003390A435A63FFF7C5FB0500354B5B6BAF
:100B00009B0706D4FFF7BEFB401B0228F6D9032043
:100B10005BE030494B6BF8229343A269D200134348
:100B20004B63B9E72B4B5A6B04210A435A635A6B48
:100B300003398A435A63FFF7A5FB0500254B5B6B1E
:100B40009B07A9D5FFF79EFB401B0228F6D903207F
:100B50003BE0204A136820490B401360FFF792FBEB
:100B600005001C4B1B689B0106D5FFF78BFB401B48
:100B70000228F6D9032028E0164BDA6A0F218A43AF
:100B8000E16A0A43DA625A6815490A40A16A606A52
:100B900001430A435A601968802252040A431A60CA
:100BA000FFF770FB04000B4B1B689B0106D4FFF79B
:100BB00069FB001B0228F6D9032006E0002004E0B0
:100BC000002002E0012000E0002002B070BD012002
:100BD000FBE7C04600100240FFFFFFFEFFFFFFEFF4
:100BE000FFFFC2FF30B589B004AA174B180032C806
:100BF00032C2110002680A606A46103313CB13C276
:100C00001B681360114B5A680C231340082B19D131
:100C1000910C0733194004A8445C0C49C96A0B4085
:100C20006946C95CD30308D463011B1B9801C01A31
:100C3000C0000419200209B030BD0548FFF764FA6E
:100C40006043F8E70248F6E7FC2A0008001002407B
:100C500000127A0070B505000C004D4B1A68012394
:100C600013408B420BD24A490B6801229343234322
:100C70000B600B681A40A24201D0012070BD2B68A6
:100C80009B0706D5434A5368F0218B43A9680B4361
:100C900053602B68DB074BD56B68012B20D0022BF0
:100CA00024D03C4A126892076FD53A494A6803201B
:100CB000824313434B60FFF7E5FA06006B68012B94
:100CC0001AD0022B26D0334B5B680C221A422FD04D
:100CD000FFF7D8FA801B304B9842F4D90320CDE7B8
:100CE0002C4A12689203E0D40120C7E7294A12680F
:100CF0009201DAD40120C1E7264B5A680C23134035
:100D0000042B15D0FFF7BEFA801B234B9842F3D972
:100D10000320B3E71F4B5A680C231340082B07D05E
:100D2000FFF7B0FA801B1C4B9842F3D90320A5E7CC
:100D3000174B1A6801231340A3420BD914490B68BF
:100D40000122934323430B600B681A40A24201D057
:100D5000012093E72B685B0706D50E4A53680F49BD
:100D60000B40E9680B435360FFF73CFF094B5A689F
:100D700012090F2313400A4AD35CD840094B18606C
:100D80000020FFF754FA002078E7012076E7C046FC
:100D9000002002400010024088130000FFF8FFFF0F
:100DA000982E0008A8000020014B18687047C04624
:100DB000A800002010B5FFF7F7FF044B5A68120A8D
:100DC00007231340024AD35CD84010BD00100240F4
:100DD000A82E000870B582B004000368DB0335D587
:100DE0003C4BDB69DB0048D43A4AD169802040059E
:100DF0000143D161D36903400193019B0125364B27
:100E00001B68DB053BD5334B1B6AC02292001340A5
:100E100013D061680A409A420FD02E4B186A2F4AAD
:100E200002401E6A8021490231431962196A2C4E20
:100E3000314019621A62C30735D4264A136A27491A
:100E40000B4061680B431362012D3BD02368DB0725
:100E500006D5204A136B03218B43A1680B43136310
:100E600023689B0633D51B4A136B10218B43E16823
:100E70000B431363002002B070BD0025BFE7164A84
:100E8000116880235B000B431360FFF7FBF906003A
:100E9000114B1B68DB05B6D4FFF7F4F9801B6428FF
:100EA000F6D90320E7E7FFF7EDF90600094B1B6AC7
:100EB0009B07C2D4FFF7E6F9801B0A4B9842F5D98D
:100EC0000320D8E7D36908490B40D361BEE700206F
:100ED000D1E7C0460010024000700040FFFCFFFF59
:100EE000FFFFFEFF88130000FFFFFFEF70B5040057
:100EF00083680269134342691343C269134301685B
:100F00000A686048024013430B60226853685E49D8
:100F10000B40E1680B435360A269236A1A432168BE
:100F20008B685A48034013438B602568584B9D4299
:100F300020D0584B9D4231D0102380221202E1690B
:100F400091422FD0022B00D180E000D86EE0042B1C
:100F500000D187E0082B00D092E061684808802328
:100F60001B029C466044FFF7CFF80004000CE860C9
:100F7000002040E0484B1A6B03231340012B09D09B
:100F8000002B05D0022B07D0032B09D01023D4E768
:100F90000023D2E70423D0E70823CEE70023CCE7E1
:100FA0000223CAE7022B27D00FD9042B2FD0082BFE
:100FB00039D16368580880235B029C4660446168AD
:100FC000FFF7A2F883B200200CE0002B2BD1FFF733
:100FD000F1FE400063685B08C0186168FFF794F891
:100FE00083B200200F22190091435B10083A13408E
:100FF0000B432268D36070BD63685808274B9C463A
:1010000060446168FFF780F883B20020EAE7FFF7E9
:10101000E9FD400063685B08C0186168FFF774F879
:1010200083B20020DEE701200023DBE7002B27D17D
:10103000FFF7C0FE63685B08C0186168FFF764F8DB
:1010400023680004000CD8600020D4E761684808D9
:10105000134B9C466044FFF757F80004000CE8600F
:101060000020C8E7FFF7BEFD63685B08C018616831
:10107000FFF74AF823680004000CD8600020BAE7A4
:101080000120B8E7F369FFFFFFCFFFFFFFF4FFFF89
:101090000038014000440040001002400024F400E9
:1010A00000127A00436ADB0706D5026853682C49B0
:1010B0000B40816A0B435360436A9B0706D5026865
:1010C000536828490B40C16A0B435360436A5B076E
:1010D00006D50268536824490B40016B0B435360EB
:1010E000436A1B0706D50268536820490B40416BD1
:1010F0000B435360436ADB0606D5026893681C49BC
:101100000B40816B0B439360436A9B0606D50268D4
:10111000936818490B40C16B0B439360436A5B06AD
:101120000BD50268536814490B40016C0B435360A4
:1011300080235B03026C9A420AD0436A1B0606D5E1
:10114000026853680D490B40816C0B435360704734
:10115000026853680A490B40416C0B435360ECE74B
:10116000FFFFFDFFFFFFFEFFFFFFFBFFFF7FFFFF16
:10117000FFEFFFFFFFDFFFFFFFFFEFFFFFFFF7FFC7
:10118000FFFF9FFF0023C3662022692142540131E3
:1011900042544832835400207047000010B5041EAA
:1011A00030D06923C35C002B22D069232422E2546F
:1011B0002268136801218B4313602000FFF796FE1D
:1011C000012814D0636A002B18D1226853680E4995
:1011D0000B4053602268936808218B439360226818
:1011E000136807390B4313602000FFF7CBFF10BDD6
:1011F00068330022C25401F0A5FBD6E72000FFF7B8
:1012000051FFE2E70120F2E7FFF7FFFFF0B5C64626
:1012100000B506000C0017009846069D3368DB6990
:1012200023401B1B5A425341BB421ED16B1CF5D0BD
:10123000002D05D0FFF726F84346C01AA842EDD985
:10124000326813680B490B40136032689368A3310E
:10125000FF318B43936020236922B3540132B3548E
:1012600048330022F254032000E0002004BC9046E2
:10127000F0BDC0465FFEFFFFF0B585B004000E0074
:1012800017001D006923C35C202B59D100295AD0B7
:10129000002A5AD080235B0182689A4213D06823C7
:1012A000E35C012B53D068230122E2540023E36660
:1012B00069332032E254FEF7E5FF03905023E752F2
:1012C0000233E7520AE00369002BE8D1CB07E6D5E9
:1012D000012036E033782268138501365223E35A21
:1012E0009BB2002B1CD05222A35A013B9BB2A352AB
:1012F0000095039B002280212000FFF787FF002834
:1013000027D180235B01A2689A42E3D12369002B95
:10131000E0D13388DB05DB0D226813850236DDE77B
:101320000095039B002240212000FFF76FFF00285B
:1013300011D169232022E254013B0022E25400E053
:10134000022005B0F0BD0120FBE70120F9E70220F3
:10135000F7E70320F5E70320F3E70000F0B585B0D9
:1013600004000F0016001D006A23C35C202B73D1FC
:10137000002900D173E0002A00D172E080235B01D4
:1013800082689A4221D06823E35C012B00D16AE095
:1013900068230122E2540023E3666A332132E254D7
:1013A000FEF770FF03905823E6520233E652A3681B
:1013B0008022520193420FD0002B13D12369002BBE
:1013C00017D15C33FF22E2520CE00369002BDAD123
:1013D000CB07D8D5012040E02369002B05D15C3331
:1013E000234AE2525C23E65A0DE05C23FF22E252DC
:1013F000F8E75C237F22E252F4E723689B8CF2B289
:1014000013403B7001375A23E35A9BB2002B1BD089
:101410005A22A35A013B9BB2A3520095039B002280
:1014200020212000FFF7F2FE00281ED180235B015F
:10143000A2689A42E1D12369002BDED123689B8CFC
:1014400033403B800237DEE76A332022E254023B1E
:101450000022E254002000E0022005B0F0BD01208F
:10146000FBE70120F9E70220F7E70320F5E7C04694
:10147000FF010000F0B5C64600B582B000220CE0C6
:101480009300CC5CC4545C1C0D5D05559C1C0D5D2B
:1014900005550333CC5CC4540132072AF0D9082225
:1014A0001BE0042B3ED09100284BD3189B00C55C59
:1014B00001AC267875404554C3185D7867784E1C9A
:1014C0007D4085559D78A7788E1C7D408555DB78BD
:1014D000E47803316340435401323B2A31D81C4B3A
:1014E000D3189B00C75C01AE3770C3185D78757068
:1014F0009C78B470D978F17007231340D1D1154E80
:10150000755DA846345DA44601AC65466570715CA6
:10151000A170F15DE170D1080F4E715C45466940E4
:101520002170BEE701AB1C780A490C5D1C705C7829
:101530000C5D5C709C780C5D9C70DC78095DD970EA
:10154000B1E702B004BC9046F0BDC046F8FFFF3FD3
:10155000FFFFFF3F282C00081C2B0008F0B50026D9
:101560000FE08400A419A4001C19155DB4000C1927
:10157000E75C7D40E5540133DBB2032BF1D9013642
:10158000F6B2032E01D80023F7E7F0BD30B50021F5
:101590000BE09A008218545C064D2C5D54540133C4
:1015A000DBB2032BF5D90131C9B2032901D80023DD
:1015B000F7E730BD282C0008437842794270427A20
:1015C0004271427B427243738378827A8270837263
:1015D0008379827B82718373C378C27BC270C27A43
:1015E000C273C279C272C37170474300C00942001E
:1015F0008018C20080185840C0B27047F8B5CE4677
:10160000474680B58046002633E0B30099464346FE
:101610004A46D75C44464C4460787840A578E378E5
:1016200045405D40FFF7E1FF6840784043464A4649
:10163000D05463789946A0785840FFF7D6FF6840A9
:101640004B4658406070A3789946E0785840FFF7C1
:10165000CCFF68404B465840A070E378994618008C
:101660007840FFF7C2FF45404B465D40E5700136CC
:10167000F6B2032EC9D90CBC90469946F8BDF0B518
:10168000DE4657464E464546E0B58DB002900023F3
:101690009846A7E043469B009B46029B5A46D45C73
:1016A0001900594489464E7889788A464946C9784E
:1016B000019103942000FFF798FF0590FFF795FF35
:1016C0000690FFF792FF050004963000FFF78DFFAC
:1016D0000400FFF78AFF0790FFF787FF07005046D7
:1016E000FFF783FF0B90FFF780FF0890FFF77DFF68
:1016F00006000198FFF779FF0990FFF776FF0A903F
:10170000FFF773FF8446059B06994B40DBB26B40A5
:10171000D9B2049A6240D2B27A40D3B24B40089A0E
:1017200050464240D2B27240D2B2534001990A00B0
:1017300060464240D2B25340029A58468354039ABC
:101740006A40D2B207984440E4B27C40E4B25440CC
:101750000B98030052465340DBB27340DBB25C404F
:101760000A9B4B40DBB262465340DBB25C404946C9
:101770004C700699039C6140CBB26B40DBB204997C
:101780000A007A40D2B25340020008984240D2B2D6
:101790007240D2B25340019A09984240D2B2604698
:1017A0004240D2B253404A469370059B6340DBB23D
:1017B0005D40EDB20B0007984340DBB25F40FFB2E3
:1017C0006F4052465640F6B27E400A9B099843400D
:1017D000DBB260465840C0B270404B46D87001231F
:1017E0009C46E0444346032B00DC53E70DB03CBC71
:1017F00090469946A246AB46F0BD000030B50021A8
:101800000BE09A008218545C064D2C5D5454013351
:10181000DBB2032BF5D90131C9B2032901D800236A
:10182000F7E730BD282B0008437B427A42734279A8
:1018300042724278427143708378827A82708372F6
:101840008379827B82718373C378C279C270C27AD2
:10185000C271C27BC272C373704770B505000E00BF
:101860000A0001000020FFF779FE01240FE02800A4
:10187000FFF78CFE2800FFF79FFE2800FFF7BEFE53
:10188000320029002000FFF769FE0134E4B20D2C7C
:10189000EDD92800FFF77AFE2800FFF78DFE320011
:1018A00029000E20FFF75AFE70BD70B505000E002E
:1018B0000A0001000E20FFF751FE0D240FE0280062
:1018C000FFF7B2FF2800FFF799FF32002900200040
:1018D000FFF744FE2800FFF7D2FE013CE4B2002CE3
:1018E000EDD12800FFF7A0FF2800FFF787FF3200A7
:1018F00029000020FFF732FE70BD10B5FFF7BAFDDA
:1019000010BD10B50B0001001800FFF7A6FF10BDB9
:1019100010B50B0001001800FFF7C7FF10BD000055
:1019200030B589B0134B59698020C0030143596118
:101930005A6902400192019A5A69802189020A4338
:101940005A615B690B400293029B80252D02902413
:10195000E405012229002000FEF714FF039501236E
:10196000049300230593069303A92000FEF744FE89
:1019700009B030BD0010024000B583B06B46D91DE0
:101980000870642301220248FFF776FC03B000BD13
:10199000F0010020F8B506000F000024BC420FDA69
:1019A00035190E4B012229000D48FFF7D7FC2B7883
:1019B0000D2B05D02A20FFF7DFFF013424B2EDE71D
:1019C000631EF3181A780D2A05D0013FF61900237B
:1019D00033702000F8BD00221A70F6E78096980058
:1019E000F0010020F8B506000F000024BC420EDA1A
:1019F00035190E4B012229000D48FFF7AFFC28785E
:101A00000D2804D0FFF7B8FF013424B2EEE7631EBF
:101A1000F3181A780D2A05D0013FF6190023337008
:101A20002000F8BD00221A70F6E7C04680969800A4
:101A3000F001002000B583B0C823012269460731B8
:101A40000448FFF78BFC0028F6D16B460720185698
:101A500003B000BDF001002010B50400FEF7E0FB6C
:101A600082B2034B21000348FFF706FC10BDC046BD
:101A7000A0860100F001002080B5074FBD44074A51
:101A8000074901A801F01DF801A8FFF7E5FFC223EF
:101A90009B009D4480BDC046F8FCFFFF0103000091
:101AA000B02E000830B58BB001A910480B00020021
:101AB00031CA31C331CA31C311CA11C312781A7085
:101AC0000B4C2000FFF719FF0A4D29002000FFF7FB
:101AD0001FFF290010312000FFF71AFFF02200211C
:101AE000200000F0F7FF0BB030BDC046B431000855
:101AF000000100200000002010B5064B186A0822E3
:101B0000054900F0CFFF002801D1012010BD0020C1
:101B1000FCE7C04600000020D831000830B51F4C5B
:101B2000A5441F4A1F491DA800F0CBFF6E221E4985
:101B300001A800F0C6FF0C20FFF71EFF1DA8FFF74D
:101B40008BFF01A8FFF788FFFFF774FF312810D043
:101B50003228F6D13220FFF70FFFFA204000FEF7BF
:101B600097FB1248FFF778FFFA200001FEF790FB81
:101B7000E7E73120FFF700FFFA204000FEF788FB7F
:101B8000002480231B0505E05D1C1878FFF7F4FE98
:101B900001342B00064A9442F6D9FEE7B4FCFFFF5D
:101BA000D3020000383200080C350008E431000888
:101BB000FFFF000030B591B0694617480B000200E6
:101BC00013CA13C313CA13C303CA03C3FA204000C2
:101BD000FEF75EFB0024114B9C421BD823002833E8
:101BE0000F4D591902310F4B01220F48FFF7B6FB79
:101BF000621C29002A3108A800F098FD20226946BD
:101C000008A800F04FFF002802D00134A4B2E2E798
:101C1000FFF784FF11B030BD582D0008FF01000010
:101C20008402002080969800F0010020F0B585B075
:101C30000500019100240394FEF7CCFB21480460C9
:101C4000214B43600123836003A9FEF783FC002836
:101C500007D01E48FFF700FFFA20C000FEF718FB70
:101C6000F7E72A682E000027174C019B9F4216D2E7
:101C7000174B9C4213D8002321000220FEF7F6FBED
:101C8000002804D10434043632680437EDE71148E3
:101C9000FFF7E2FEFA20C000FEF7FAFAF7E7FEF7D8
:101CA000ADFB019A2900084800F0FCFE002807D08F
:101CB0000948FFF7D1FEFA20C000FEF7E9FAF7E77E
:101CC00005B0F0BDCC000020007C00087C35000889
:101CD000FF7F0008A4350008CC35000870B5B8B007
:101CE00018A93A480B00020013CA13C303CA03C35E
:101CF00012881A8012A936480B00020013CA13C3B7
:101D000003CA03C312781A7007A932480B000200F5
:101D100013CA13C313CA13C313CA13C311681960B8
:101D20009188998092799A7169462B480B0002003C
:101D300013CA13C313CA13C31188198092789A70F7
:101D400005E007A8FFF788FE2448FEF7A1FA18A8C7
:101D5000FFF782FE32212BA8FFF71CFE84B212A8E7
:101D6000FFF77AFE32211EA8FFF714FE80B2022C84
:101D7000E7D98442E5D1250022001EA92BA800F056
:101D800091FE0028DDD16846FFF766FE1348FEF796
:101D90007FFA134C8B26B60032000021200000F0A1
:101DA00099FE08220F49200000F08BFE2000083029
:101DB0002A002BA900F0BAFC31002000FFF736FF03
:101DC000094B1B68984738B070BDC046F035000815
:101DD00008360008203600084C360008B80B000012
:101DE00084020020D83100080400000810B5CEB0ED
:101DF0000422FF321F490DA800F063FE33221E4962
:101E0000684600F05EFE0C20FFF7B6FD0DA8FFF758
:101E100023FE1A4A002304E01949116004331BB25F
:101E200004329BB217498B42F6D9A139FF39890098
:101E30001248FFF7FBFE6846FFF70EFE09240EE08E
:101E40002020FFF799FDE4B220003030C0B2FFF748
:101E500093FDFA208000FEF71BFA013C64B2002CCF
:101E6000EEDA0948FFF7F8FD084B1B6898474EB0BB
:101E700010BDC04674360008783700088402002080
:101E8000EDDAEBFE2B0200006836000804000008C3
:101E900070B59AB03D2229490AA800F012FE6946A1
:101EA00027480B00020013CA13C313CA13C313CA73
:101EB00013C31188198092789A700AA8FFF7CCFD95
:101EC000204C214B196A8B229200200000F0F9FD72
:101ED00025002A358026B60032000021280000F0B7
:101EE000F9FD31002800FFF77DFD20852100083134
:101EF0001648FFF702FD002109E009012831114BC6
:101F0000C91802311148FFF7FCFC013421B28CB230
:101F10001F2CF2D98B25AD000A4C29002000FFF7B9
:101F200085FE2A000021200000F0D4FD6846FFF75E
:101F300093FD0748FEF7ACF91AB070BDAC37000846
:101F4000EC3700088402002000000020000100207F
:101F5000B80B000030B593B007A82C4903000A0065
:101F600032CA32C332CA32C332CA32C311681960AC
:101F70009188998092799A716946254C0B002200CC
:101F800032CA32C332CA32C31188198092789A7029
:101F9000FFF762FD1F4C204B196A8B229200200034
:101FA00000F08FFD210008311C48FFF7A6FC00213E
:101FB00009E009012831174BC91802311748FFF70A
:101FC000A7FC013421B28CB21F2CF2D9002407E007
:101FD000104B1B192A331878FFF7CEFC013424B2BA
:101FE0000C4B1B8D9C42F3DB8022920000210C489D
:101FF00000F070FD0B48FEF74BF96846FFF72CFD2B
:10200000FFF718FD0D28FBD113B030BD14380008C0
:102010004038000884020020000000200001002059
:10202000AE020020B80B000080B5114FBD44114A2C
:102030001149BBA800F045FD104A114901A800F064
:1020400040FD0C20FFF798FCBBA8FFF705FD01A899
:10205000FFF702FD0B48FFF7FFFC0B48FFF7FCFC06
:10206000FFF7E8FC0D28FBD1FD23DB009D4480BD7C
:1020700018F8FFFFFA04000064380008E7020000C7
:10208000603D00085C3800084038000830B58FB06B
:10209000184B00221A7018482430FFF7DDFC01AD00
:1020A000144C21786918154B01221548FFF756F991
:1020B0002278531CDBB22370AA5C0D2AEFD1013BBE
:1020C00001AC0022E2542000FEF7AAF802000D4DF8
:1020D0002100280000F02AFB074B196A0831202252
:1020E000280000F0DFFC002802D101200FB030BD35
:1020F0000020FBE78002002000000020809698006E
:10210000F00100206002002030B585B0374B00227E
:102110001A7337483C30FFF79FFC344C217B01ADEC
:102120006918344B01223448FFF718F9237BE85C27
:10213000FFF722FC237B5A1C2273EB5C0D2BECD1A6
:102140002E4B1A78531E01AD0021E9542C4C290066
:10215000200000F0EBFA0422210002A800F0B1FCFC
:10216000FEF790F8019008222900200000F0DEFA26
:1021700024481030FFF770FC002418E00C32224B8A
:102180009B18187A0A21FEF745F83031C8B2FFF7DC
:10219000F3FB0AE00C321C4B9A18107A1A21FEF756
:1021A00039F86131C8B2FFF7E7FB0134E4B20B2C18
:1021B00013D82200144B1B191B7A9907DED05B073A
:1021C000E8D40C32104B9A18107A1A21FEF722F834
:1021D0004131C8B2FFF7D0FBE7E70C48FFF73CFC02
:1021E000FFF728FC0D28FBD105B030BDCC00002046
:1021F0000000002080969800F0010020800200205E
:102200008C0200208000002084020020403800085A
:1022100030B5B7B030A94A480B00020013CA13C347
:1022200003CA03C312881A802AA946480B00020079
:1022300013CA13C303CA03C312781A701FA94248F2
:102240000B00020013CA13C313CA13C313CA13C368
:102250001168196092889A801BAB3C4A13CA13C359
:10226000190013680B603A4C3A4B196A8B229200A2
:10227000200000F026FC210008313748FFF73DFB25
:10228000002109E009012831314BC91802313248D7
:10229000FFF73EFB013421B28CB21F2CF2D905E0CE
:1022A0001FA8FFF7D9FB2D48FDF7F2FF30A8FFF775
:1022B000D3FB32210EA8FFF76DFB84B22AA8FFF7EB
:1022C000CBFB322101A8FFF765FB80B2022CE7D9D6
:1022D0008442E5D12500220001A90EA800F0E2FB0E
:1022E0000028DDD11E4C2A000EA9200000F01EFAA5
:1022F00021001948FFF701FB002109E009012831FD
:10230000134BC91802311448FFF7FBFA013421B20C
:102310008CB21F2CF2D98B25AD000D4C290020006A
:10232000FFF784FC2A000021200000F0D3FB1BA84B
:10233000FFF792FB0948FDF7ABFF37B030BDC04651
:10234000F0350008083600084840000874400008CE
:10235000840200200000002000010020B80B0000D3
:102360008C02002000B5A1B07B221D4901A800F01D
:10237000A8FB0EE031280CD13120FFF7FDFAFA203E
:102380004000FDF785FFFFF7A9FCFA20C000FDF72C
:102390007FFF01A8FFF760FBFFF74CFB32280AD054
:1023A000E8DD332811D03628F3D13620FFF7E4FAE0
:1023B000FFF700FCEDE73220FFF7DEFAFA204000DD
:1023C000FDF766FFFFF7A0FEE3E73320FFF7D4FA3F
:1023D000FA204000FDF75CFFFFF726FED9E7C04674
:1023E0008440000810B5D0B09B22464929A800F0CF
:1023F00068FB9E22444901A800F063FB15E03120F0
:10240000FFF7BAFAFA204000FDF742FFFFF73EFE61
:1024100000280AD0012439E03220FFF7ADFAFA2073
:102420004000FDF735FFFFF7E1FC29A8FFF714FB9B
:10243000FFF700FB3138C3B2052BF6D89800334BB9
:102440001B589F463320FFF797FAFA204000FDF70C
:102450001FFFFFF759FEE8E73420FFF78DFAFA2057
:102460004000FDF715FFFFF7DFFDDEE73620FFF741
:1024700083FAFFF79FFBD8E73120FFF77DFAFA20B8
:102480004000FDF705FFFFF7C3FE002401A8FFF79A
:10249000E3FAFFF7CFFA3138C3B2052B26D89800FC
:1024A0001B4B1B589F463220FFF766FAFA2040006C
:1024B000FDF7EEFEFFF74EFDE7E73320FFF75CFA8E
:1024C000FA204000FDF7E4FEFFF7E2FCDDE73420F0
:1024D000FFF752FAFA204000FDF7DAFEFFF7A4FDFD
:1024E000D3E73620FFF748FAFFF764FB022CE1D070
:1024F00004DD032CE8D0042CF0D0C6E7012CC2D0B8
:10250000C3E7C046004100089C410008282D000890
:10251000402D000810B58AB009AC4123238020006B
:10252000FDF77EFE0200210001A800F0FFF8054B38
:10253000019A9A4201D00AB010BD0348FFF78CFA05
:10254000F9E7C0466E6957753C420008FEE7000097
:1025500010B51048104B036096239B014360002385
:102560008360C36003610C2242618361C3610362C3
:102570003033436280235B01836380239B01C36309
:10258000FEF70CFE002800D110BD04490448FFF7F7
:10259000DDFFC046F0010020003801407304000058
:1025A000D842000800B595B0012308930993013380
:1025B000109380235B02119380235B03129300230B
:1025C000139308A8FEF7E4F8002828D10723049302
:1025D000053B0593002306930793012104A8FEF70A
:1025E00039FB00281FD10123009300230293684682
:1025F000FEF7F0FB00281AD1FEF7D6FBFA2189007E
:10260000FDF782FDFDF786FE0420FDF79FFE012009
:10261000002200214042FDF74DFE15B000BD0649E5
:102620000648FFF793FF06490448FFF78FFF054967
:102630000248FFF78BFFC0463E040000D842000866
:102640004B0400005204000010B5FDF703FEFFF735
:10265000A9FFFFF765F9FFF77BFFFFF723FAFFF705
:102660000BFAFFF757FF0748FFF7F6F9FFF7E2F914
:102670000D28FBD1FFF740FA002801D1FFF772FEC9
:10268000FFF7B0FEE842000801604260826000236C
:10269000C36003617047F8B507000C000B69002B9D
:1026A00042D14A683F2A24D8096800F00AFA6368D0
:1026B000FF184022D21A2168C918216000216160E8
:1026C000E168002906D180223A70413AD21A0123EA
:1026D000E3600137072A21D9083A1500A6680021CE
:1026E000380000F0F7F97D19F300EB717609062345
:1026F0000EE04022096800F0E4F9236840332360CB
:102700006368403B636001200FE0EE54360A013BF2
:10271000002BFADA01232361012006E000213800B2
:1027200000F0D8F9012000E00020F8BDF0B5D64651
:10273000474680B5EBB0804662AD6B4E2B00300053
:1027400070C870C370C870C330C830C34DA8FFF7DD
:102750009BFFA1E013781B06507800040343907898
:1027600000020343D07803438D000DA82B500432A0
:1027700001310F29EEDD102226E013000F3B0DA9D9
:102780009B00585807230400DC4112250600EE4147
:102790006640C0084640931E9B005D5811232800E8
:1027A000D84102332C00DC416040AD0A6840130080
:1027B000103B9B005B589B19D51FAD006D585B19F2
:1027C0001B189000435001323F2AD6DD002305E05C
:1027D0009A0062A9505805A950500133072BF7DD24
:1027E00000204AE0099A06231100D9410B000B2171
:1027F0001400CC41634019211400CC4163400A9974
:1028000001910D0015400B9902910E009643754001
:102810000C9903918C4663445B198500334EAE5985
:102820009B190DAEAD599C46AC44059902250E008E
:10283000EE410B350F00EF413D00754016260F00AD
:10284000F7413C006C40069E079F35007D400D40DF
:102850003B0033405D406519029C0C94019C0B9435
:102860000A92089B01931A006244099208970796FE
:1028700006912B006344059301303F28B2DD00230D
:1028800008E09A0005A9515862A81458A44661446A
:1028900011500133072BF4DD4DA952A8FFF7FBFEC1
:1028A000002808D08022520000210DA800F012F963
:1028B00052AA00215DE70300072810DC810062AA0C
:1028C0008A58591C150E4446E554160C9D1C665436
:1028D000160AD91C6655625404330130ECE76BB01C
:1028E0000CBC90469A46F0BD782D0008982D000843
:1028F00000B583B0124B996901221143996199691E
:102900000A400092009ADA69802149050A43DA6197
:10291000DB690B400193019B05200022002140420E
:10292000FDF7C8FC0220002200214042FDF7C2FC56
:102930000120002200214042FDF7BCFC03B000BD95
:102940000010024000B587B00268104B9A4201D0D7
:1029500007B000BD0E4A91698020C001014391611A
:10296000936903400093009BC023DB000193022383
:1029700002930023039303330493023B05939020B7
:1029800001A9C005FDF738FEE2E7C0460038014066
:10299000001002407047FEE77047704710B5FDF722
:1029A00069FCFDF7E4FC10BD114B1A6801210A43D4
:1029B0001A605A680F4802405A601A680E4802406E
:1029C0001A601A680D4802401A605A680C480240A2
:1029D0005A60DA6A0F208243DA621A6B09480240B1
:1029E0001A635A6B8A435A6300229A607047C04642
:1029F000001002400CB8FF08FFFFF6FEFFFFFBFFD0
:102A0000FFFFC0FFECFEFFFF0D4885460D480E4955
:102A10000E4A002302E0D458C4500433C4188C4238
:102A2000F9D30B4A0B4C002301E013600432A2429D
:102A3000FBD3FFF7B9FF00F011F8FFF705FEFEE743
:102A40000020002000000020AC0000200843000807
:102A5000B0000020B0040020FEE7000070B50026A2
:102A60000C4D0D4C641BA410A64209D1002600F0A9
:102A700039F80A4D0A4C641BA410A64205D170BD5A
:102A8000B300EB5898470136EEE7B300EB58984790
:102A90000136F2E700430008004300080043000845
:102AA0000443000830B50024A24201D1002005E013
:102AB000035D651C0C5DA34201D0181B30BD2C00CA
:102AC000F2E7002310B59A4200D110BDCC5CC4548B
:102AD0000133F8E703001218934200D170471970D0
:102AE0000133F9E7F8B5C046F8BC08BC9E4670470C
:0C2AF000F8B5C046F8BC08BC9E46704714
:102AFC0002030405060708090A0B0C0D0E0F101033
:102B0C000102030405060708090A0B0C0D0E0F1031
:102B1C008D01020408102040801B360052096AD532
:102B2C003036A538BF40A39E81F3D7FB7CE33982B6
:102B3C009B2FFF87348E4344C4DEE9CB547B943205
:102B4C00A6C2233DEE4C950B42FAC34E082EA1664D
:102B5C0028D924B2765BA2496D8BD12572F8F66424
:102B6C0086689816D4A45CCC5D65B6926C7048509F
:102B7C00FDEDB9DA5E154657A78D9D8490D8AB0054
:102B8C008CBCD30AF7E45805B8B34506D02C1E8F7D
:102B9C00CA3F0F02C1AFBD0301138A6B3A911141B9
:102BAC004F67DCEA97F2CFCEF0B4E67396AC7422A2
:102BBC00E7AD3585E2F937E81C75DF6E47F11A7120
:102BCC001D29C5896FB7620EAA18BE1BFC563E4B59
:102BDC00C6D279209ADBC0FE78CD5AF41FDDA8331B
:102BEC008807C731B11210592780EC5F60517FA95B
:102BFC0019B54A0D2DE57A9F93C99CEFA0E03B4D8A
:102C0C00AE2AF5B0C8EBBB3C83539961172B047EFD
:102C1C00BA77D626E169146355210C7D637C777BEA
:102C2C00F26B6FC53001672BFED7AB76CA82C97DBC
:102C3C00FA5947F0ADD4A2AF9CA472C0B7FD93264D
:102C4C00363FF7CC34A5E5F171D8311504C723C351
:102C5C001896059A071280E2EB27B27509832C1A95
:102C6C001B6E5AA0523BD6B329E32F8453D100EDEF
:102C7C0020FCB15B6ACBBE394A4C58CFD0EFAAFBD3
:102C8C00434D338545F9027F503C9FA851A3408F9B
:102C9C00929D38F5BCB6DA2110FFF3D2CD0C13ECB3
:102CAC005F974417C4A77E3D645D197360814FDC48
:102CBC00222A908846EEB814DE5E0BDBE0323A0A2C
:102CCC004906245CC2D3AC629195E479E7C8376DB0
:102CDC008DD54EA96C56F4EA657AAE08BA78252ED5
:102CEC001CA6B4C6E8DD741F4BBD8B8A703EB5665E
:102CFC004803F60E613557B986C11D9EE1F898114F
:102D0C0069D98E949B1E87E9CE5528DF8CA1890D3D
:102D1C00BFE6426841992D0FB054BB16FE23000844
:102D2C001824000844240008582400082A24000809
:102D3C006C24000878240008A6240008BA24000893
:102D4C00CE240008EC240008E22400089EE6C0FA19
:102D5C00CBE8D06E39DA87FF43BF3A4CE510AFF2BF
:102D6C00015518E84194FCDF6BAE17CF67E6096A92
:102D7C0085AE67BB72F36E3C3AF54FA57F520E5190
:102D8C008C68059BABD9831F19CDE05B982F8A42C9
:102D9C0091443771CFFBC0B5A5DBB5E95BC25639A1
:102DAC00F111F159A4823F92D55E1CAB98AA07D8B9
:102DBC00015B8312BE853124C37D0C55745DBE72DC
:102DCC00FEB1DE80A706DC9B74F19BC1C1699BE45C
:102DDC008647BEEFC69DC10FCCA10C246F2CE92DEC
:102DEC00AA84744ADCA9B05CDA88F97652513E9810
:102DFC006DC631A8C82703B0C77F59BFF30BE0C617
:102E0C004791A7D55163CA0667292914850AB727A4
:102E1C0038211B2EFC6D2C4D130D385354730A6541
:102E2C00BB0A6A762EC9C281852C7292A1E8BFA218
:102E3C004B661AA8708B4BC2A3516CC719E892D180
:102E4C00240699D685350EF470A06A1016C1A41903
:102E5C00086C371E4C774827B5BCB034B30C1C3902
:102E6C004AAAD84E4FCA9C5BF36F2E68EE828F74C1
:102E7C006F63A5781478C8840802C78CFAFFBE90DB
:102E8C00EB6C50A4F7A3F9BEF27871C600000000F9
:102E9C0000000000010203040607080900000000FE
:102EAC00010203040C0D0A0A2020202023232323D3
:102EBC0023232323232323232323232323232323D6
:102ECC002323232323232323232323230D0A2020FB
:102EDC00202023232323204772654861636B2053F2
:102EEC006563726574204B656570657220232323BE
:102EFC0023230D0A202020202323232323232323D1
:102F0C002323232323232323232323232323232385
:102F1C0023232323232323230D0A200D0A202020DF
:102F2C00202020202020202020202020202E3D3D4D
:102F3C002E0D0A20202020202020202020202020A0
:102F4C00205F2F5F5F5F5F5C5F0D0A2020202020D9
:102F5C0020205F2E2C2D2D2722207C7C5E207C7C3B
:102F6C002022607A2E5F0D0A2020202020202F5F47
:102F7C002F5E205F5F5F5C7C7C20207C7C205F2F41
:102F8C006F5C2022602D2E5F0D0A202020205F2FE9
:102F9C0020205D2E204C5F7C207C7C202E7C7C2095
:102FAC00205C5F2F5F20202E205F602D2D2E5F0D6B
:102FBC000A2020202F5F7E3720205F202E20222009
:102FCC007C7C2E207C7C202F5D205C205D2E20289C
:102FDC005F2920202E2022602D2D2E0D0A20207CF2
:102FEC005F5F377E2E285F295F205B5D7C2B2D2D4C
:102FFC002B7C2F5F5F5F5F545F5F5F5F5F5F5F5F27
:10300C005F5F5F5F5F4C7C0D0A20207C5F5F7C20E4
:10301C00205F5E285F29202F5E2020205F5F5C5F91
:10302C005F5F5F205F2020205F7C0D0A20207C5F8B
:10303C005F7C20285F297B5F29204A205D4B7B5FCA
:10304C005F204C5F5F5F205F2020205F5D0D0A20BA
:10305C00207C5F5F7C202E205F285F29205C7620FF
:10306C00202020202F5F5F5F5F5F5F5F5F5F5F7C73
:10307C005F5F5F5F5F5F5F5F0D0A20206C5F5F6C5F
:10308C005F20285F292E205B5D7C2B2D2B2D3C5C3B
:10309C005E2020204C20202E205F2020202D202D53
:1030AC002D2D4C7C0D0A2020205C5F5F5C202020A5
:1030BC00205F5F2E207C7C5E6C20205C595D202F75
:1030CC005F5D2020285F29202E20205F2C2D2D27AE
:1030DC000D0A20202020205C7E5F5D20204C5F7C30
:1030EC00207C7C202E5C202E5C5C2F7E2E202020D1
:1030FC00205F2C2D2D27220D0A2020202020205C43
:10310C005F5C202E205F5F2F7C7C20207C5C20204D
:10311C005C602D2B2D3C27220D0A20202020202006
:10312C00202022602D2D2D2E5F7C4A5F5F4C7C5819
:10313C00206F7E7E7C5B5C5C20202020224B6565B2
:10314C007020796F75722073656372657473206972
:10315C006E20612070726F76656E207368697022C4
:10316C000D0A20202020202020202020202020207C
:10317C00205C5F5F5F5F2F205C5F5F5F7C5B2F2F4E
:10318C000D0A20202020202020202020202020205C
:10319C002020602D2D27202020602D2D2B2D270D5C
:1031AC000A200D0A00000000474831387B53542D8B
:1031BC004C494E4B6F72424F4F544C4F4144455209
:1031CC0064756D70414C4C7D0000000047485345C0
:1031DC0043524554000000000D0A0A4E6F742069DA
:1031EC006D706C656D656E746564207965742028EE
:1031FC00616E642049207361696420746F206E6F66
:10320C007420777269746520696E20666C617368CE
:10321C002C20746F206E6F7420627265616B207449
:10322C0068652067616D6521290D0A000D0A202053
:10323C005F5F5F5F5F5F5F5F20202020202020208A
:10324C0020202020202020205F5F5F205F5F5F20F8
:10325C002020202020202020202020202020205F23
:10326C005F202020202020200D0A202F20205F5FAF
:10327C005F5F5F2F5F5F5F5F5F5F2020205F5F5F3F
:10328C005F20202F2020207C2020205C5F5F5F5F50
:10329C005F202020205F5F5F5F207C20207C205FF0
:1032AC005F2020200D0A2F2020205C20205F5F5CF7
:1032BC005F20205F5F205C5F2F205F5F205C2F20F2
:1032CC002020207E202020205C5F5F20205C205F5F
:1032DC002F205F5F5F5C7C20207C2F202F20202004
:1032EC000D0A5C202020205C5F5C20205C20207C70
:1032FC00205C2F5C20205F5F5F2F5C2020202059FA
:10330C00202020202F2F205F5F205C5C20205C5F22
:10331C005F5F7C202020203C202020200D0A205C98
:10332C005F5F5F5F5F5F20202F5F5F7C202020202E
:10333C005C5F5F5F20203E5C5F5F5F7C5F20202FC7
:10334C00285F5F5F5F20202F5C5F5F5F20203E5F08
:10335C005F7C5F205C2020200D0A20202020202074
:10336C0020205C2F20202020202020202020202006
:10337C005C2F202020202020205C2F2020202020AB
:10338C00205C2F20202020205C2F20202020205C5F
:10339C002F2020200D0A5F5F5F5F5F5F5F5F5F5FC5
:1033AC002020202020202020202020202020202011
:1033BC005F5F202020202020202E5F5F5F202020B8
:1033CC0020202020202020202020202020202020F1
:1033DC000D0A5C5F5F5F5F5F5F2020205C5F5F5F5B
:1033EC005F5F202020205F5F5F5F207C20207C209F
:1033FC005F5F205F5F7C205F2F5F5F5F5F2020201F
:10340C005F5F5F5F5F5F5F5F5F5F5F200D0A207CC8
:10341C00202020207C20205F2F5C5F5F20205C2000
:10342C005F2F205F5F5F5C7C20207C2F202F2F2064
:10343C005F5F207C2F20205F205C202F20205F20CE
:10344C005C5F20205F5F205C0D0A207C2020202008
:10345C007C2020205C202F205F5F205C5C20205C87
:10346C005F5F5F7C202020203C2F202F5F2F2028A7
:10347C0020203C5F3E207C20203C5F3E20292020E9
:10348C007C205C2F0D0A207C5F5F5F5F5F5F2020DC
:10349C002F285F5F5F5F20202F5C5F5F5F20203EE7
:1034AC005F5F7C5F205C5F5F5F5F207C5C5F5F5F6A
:1034BC005F2F205C5F5F5F5F2F7C5F5F7C20202035
:1034CC000D0A20202020202020205C2F20202020CE
:1034DC0020205C2F20202020205C2F20202020204A
:1034EC005C2F202020205C2F20202020202020203A
:1034FC002020202020202020202020200D0A000029
:10350C000D0A596F7520656E746572656420696E5D
:10351C00206D616E6167656D656E74206D6F64659D
:10352C002C2072656164206361726566756C6C79C0
:10353C0020696E737472756374696F6E732E0D0AE5
:10354C002D312D2044756D7020666C6173682E0DC5
:10355C000A2D322D20577269746520666C61736870
:10356C002E0D0A0D0A43686F6963653A200000004E
:10357C000D0A464C415348204552524F523A204670
:10358C0061696C656420746F206572617365206677
:10359C006C617368000000000D0A464C41534820D2
:1035AC004552524F523A204661696C656420746FE3
:1035BC002070726F6772616D20666C6173680000B9
:1035CC000D0A4552524F5220464C4153483A204224
:1035DC00616420666C6173682077726974696E67C8
:1035EC00000000000C0D0A456E746572206120709D
:1035FC00617373776F72643A200000000D0A526594
:10360C00706561742070617373776F72643A2020F7
:10361C00000000000D0A0A50617373776F7264200A
:10362C006D69736D61746368206F7220746F6F20A5
:10363C0073686F72742C20726573746172740000FD
:10364C000D0A0A50617373776F7264207365742C62
:10365C00207265626F6F74696E6700000D0A5265A7
:10366C00626F6F740D0A00000D0A205F202020206D
:10367C002020205F5F5F2020202020202020202081
:10368C0020205F5F5F5F20202020202020205F5FB4
:10369C00200D0A7C207C20202020202F20285F2930
:1036AC005F5F5F20205F5F5F20202F205F5F205CCB
:1036BC005F5F20205F5F2F202F5F0D0A7C207C2016
:1036CC002F7C202F202F202F205F5F205C2F205F4E
:1036DC00205C2F202F202F202F202F202F202F2039
:1036EC005F5F2F0D0A7C207C2F207C2F202F202F1A
:1036FC00202F5F2F202F20205F5F2F202F5F2F2068
:10370C002F202F5F2F202F202F5F20200D0A7C5F72
:10371C005F2F7C5F5F2F5F2F202E5F5F5F2F5C5FC3
:10372C005F5F2F5C5F5F5F5F2F5C5F5F2C5F2F5C69
:10373C005F5F2F202045766572797468696E670D1E
:10374C000A20202020202020202F5F2F2020202026
:10375C00202020202020202020202020202020205D
:10376C0020202020202020200D0A00000D0A446F6C
:10377C006E650D0A496E203130207365636F6E647F
:10378C007320746865206465766963652077696C5D
:10379C006C207265626F6F740D0A0D0A3130000077
:1037AC000C0D0A456E74657220796F757220736505
:1037BC006372657420686572652E20557020746F75
:1037CC00203531322062797465732063616E20621A
:1037DC00652073746F7265642E0D0A0A0000000078
:1037EC000D0A0A596F7572207365637265742077C0
:1037FC0061732073746F7265642073756363657392
:10380C007366756C6C7900000C0D0A546865207336
:10381C0065637265742073746F726520696E2079AC
:10382C006F757220646576696365206973203A0D43
:10383C000A0A00000D0A0A507265737320454E5433
:10384C00455220746F20636F6E74696E756500004D
:10385C00322E3030000000000D0A2E2E2E2E2E2E71
:10386C002E2E2E2E2E2E2E2E2E2E2E2E2E2E2E2E6C
:10387C002E2E2E2E2E2E2E2E2E2E2E2E2E2E2E2E5C
:10388C002E0D0A2E2E2E2E2E2E2E2E2E2E2E2E2E91
:10389C002E4F4F4F4F6F2E2E2E2E2E2E2E2E2E2E77
:1038AC002E2E2E2E2E2E2E2E2E2E0D0A2E2E2E2E71
:1038BC002E2E2E2E2E2E2E2E6F4F4F4F4F4F4F6FD4
:1038CC002E2E2E2E2E2E2E2E2E2E2E2E2E2E2E2E0C
:1038DC002E2E2E0D0A2E2E2E2E2E2E2E2E2E2E2E41
:1038EC002E6F4F4F4F4F4F4F4F2E2E2E2E2E2E2EC4
:1038FC002E2E2E2E2E2E2E2E2E2E2E2E0D0A2E2E21
:10390C002E2E2E2E2E2E2E2E2E2E6F4F4F4F4F4FE5
:10391C004F4F4F4F4F4F4F2E2E2E2E2E2E2E2E2ED4
:10392C002E2E2E2E2E0D0A2E2E2E2E2E2E2E2E2EF0
:10393C002E4F4F4F4F4F4F4F4F4F4F4F4F4F4F4FAC
:10394C004F4F4F4F2E2E2E2E2E2E2E2E2E2E0D0A4C
:10395C002E2E2E2E2E2E2E2E4F4F4F4F4F4F4F4F73
:10396C004F4F4F4F4F4F4F4F4F4F4F4F4F4F4F2E7C
:10397C002E2E2E2E2E2E2E0D0A2E2E2E2E2E2E2EA0
:10398C004F4F4F4F4F4F4F4F4F4F4F4F4F4F4F4F3B
:10399C004F4F4F4F4F4F4F4F4F6F2E2E2E2E2E2ED1
:1039AC000D0A2E2E2E2E2E4F4F4F4F4F4F4F4F4F47
:1039BC004F4F4F4F4F4F4F4F4F4F4F4F4F4F4F4F0B
:1039CC004F4F4F4F2E2E2E2E2E0D0A2E2E2E2E4FAB
:1039DC004F4F4F4F4F4F4F4F4F4F4F4F4F4F4F4FEB
:1039EC006F4F6F4F6F2E2E6F6F4F6F4F4F4F2E2E9F
:1039FC002E2E0D0A2E2E2E6F4F4F4F4F4F4F4F4FD7
:103A0C004F4F2E6F4F4F4F4F4F4F4F4F4F4F4F4FBB
:103A1C004F4F4F4F4F4F4F6F2E2E2E0D0A2E2E2ED7
:103A2C004F4F4F4F4F4F2E6F4F4F4F4F4F4F4F4F9B
:103A3C004F4F4F4F4F4F4F4F4F4F4F4F4F4F4F4F8A
:103A4C004F4F2E2E0D0A2E2E4F4F4F2E6F4F4F4F86
:103A5C004F4F4F4F4F4F4F4F4F6F2E2E6F4F2E2EAE
:103A6C002E2E2E2E4F6F2E2E4F4F4F2E2E0D0A2EEA
:103A7C002E4F4F4F4F4F4F4F4F4F4F4F2E4F4F4F8C
:103A8C004F4F4F4F4F4F2E2E2E2E2E2E2E2E4F4F42
:103A9C004F4F4F4F2E2E0D0A2E4F4F4F4F4F4F4F14
:103AAC002E2E2E2E2E2E2E4F4F4F4F4F4F4F2E2E43
:103ABC002E2E2E2E2E2E2E2E4F4F4F4F4F4F2E0D75
:103ACC000A2E6F4F4F6F2E4F4F2E2E2E2E2E2E2E28
:103ADC004F4F4F4F4F4F4F2E2E2E2E2E2E2E2E2E13
:103AEC002E4F4F4F4F4F4F2E0D0A2E2E2E4F4F4F06
:103AFC004F4F2E2E2E2E2E2E2E2E4F4F4F4F4F4FD2
:103B0C002E2E2E2E2E2E2E2E2E2E4F4F4F4F4F4F03
:103B1C002E0D0A2E2E4F4F4F4F4F4F2E2E2E2E2E38
:103B2C002E2E6F4F4F4F4F4F4F2E2E2E2E2E2E2EA2
:103B3C002E2E2E4F4F4F4F4F6F2E0D0A2E2E6F4F96
:103B4C004F4F4F4F6F2E2E2E2E2E2E4F4F4F4F4F1F
:103B5C004F4F4F2E2E2E2E2E2E2E2E6F4F4F4F4F51
:103B6C004F2E2E0D0A2E2E2E4F4F4F4F4F4F4F2EA6
:103B7C002E2E2E4F4F4F4F4F4F4F4F4F4F2E2E2E0F
:103B8C002E2E2E4F4F4F4F4F4F4F2E2E0D0A2E2EA7
:103B9C002E2E4F4F4F4F4F4F4F4F4F4F4F4F4F4F6B
:103BAC004F4F4F4F4F4F4F4F2E2E4F4F4F4F4F4F5B
:103BBC004F4F2E2E2E0D0A2E2E2E2E4F4F4F4F4F77
:103BCC004F4F4F4F4F4F4F4F4F4F4F4F4F4F4F4FF9
:103BDC004F4F4F4F4F4F4F4F4F4F2E2E2E2E0D0AF4
:103BEC002E2E2E2E2E4F4F4F4F4F4F4F4F4F4F4F7E
:103BFC004F4F4F4F4F4F4F4F4F4F4F4F4F4F4F4FC9
:103C0C004F4F4F2E2E2E2E0D0A2E2E2E2E4F4F4F47
:103C1C004F4F4F4F4F4F4F4F4F4F4F4F4F4F4F4FA8
:103C2C004F4F4F4F4F4F4F4F4F4F4F4F4F2E2E2EFB
:103C3C000D0A2E2E2E2E4F4F4F4F4F4F4F4F4F4F93
:103C4C004F4F4F4F4F4F4F4F4F4F4F4F4F4F4F4F78
:103C5C004F4F4F4F4F4F2E2E2E0D0A2E2E2E2E4FD6
:103C6C004F4F4F4F4F4F4F4F4F4F4F4F4F4F4F4F58
:103C7C004F4F4F4F4F4F4F4F4F4F4F4F4F4F2E2E8A
:103C8C002E2E0D0A2E2E2E2E2E4F4F4F4F4F4F4FA6
:103C9C004F4F4F4F4F4F4F4F4F4F4F4F4F4F4F4F28
:103CAC004F4F4F4F4F4F4F2E2E2E2E0D0A2E2E2E86
:103CBC002E2E2E4F4F4F4F4F4F4F6F2E4F4F4F4F6C
:103CCC004F4F4F4F4F4F2E2E4F4F4F4F4F4F4F2E5B
:103CDC002E2E2E2E0D0A2E2E2E2E2E2E2E2E4F4FFB
:103CEC004F6F2E2E2E2E4F4F4F4F4F4F4F4F2E2E7E
:103CFC002E2E2E2E2E2E2E2E2E2E2E2E2E0D0A2E1D
:103D0C002E2E2E2E2E2E2E2E2E2E2E2E2E2E2E2EC7
:103D1C006F4F4F4F4F2E2E2E2E2E2E2E2E2E2E2EF2
:103D2C002E2E2E2E2E2E0D0A2E2E2E2E2E2E2E2EEC
:103D3C002E2E2E2E2E2E2E2E2E2E2E2E2E2E2E2E97
:103D4C002E2E2E2E2E2E2E2E2E2E2E2E2E2E2E0DA8
:103D5C000A0000000D0A2A2A2A2A2A2A2A2A2A2A92
:103D6C002A2A2A2A2A2A2A2A2A2A2A2A2A2A2A2AA7
:103D7C002A2A2A2A2A2A2A2A2A2A2A2A2A2A2A2A97
:103D8C002A2A2A2A2A2A2A2A2A2A2A2A2A2A2A2A87
:103D9C002A2A2A2A2A2A2A2A2A2A2A2A2A2A2A2A77
:103DAC002A2A2A2A2A0D0A2A2A2A2A2A2A2A2A2AA4
:103DBC002A2A2A2A2A2A2A2A2A2A2A2A2A2A2A2A57
:103DCC002A2A2A204772654861636B205365637207
:103DDC006574204B6565706572202A2A2A2A2A2A66
:103DEC002A2A2A2A2A2A2A2A2A2A2A2A2A2A2A2A27
:103DFC002A2A2A2A2A2A0D0A2A2A2A2A2A2A2A2A54
:103E0C002A2A2A2A2A2A2A2A2A2A2A2A2A2A2A2A06
:103E1C002A2A2A2A2A2A2A2A2A2A2A2A2A2A2A2AF6
:103E2C002A2A2A2A2A2A2A2A2A2A2A2A2A2A2A2AE6
:103E3C002A2A2A2A2A2A2A2A2A2A2A2A2A2A2A2AD6
:103E4C002A2A2A2A2A2A2A0D0A0D0A2D2D2D2D2D31
:103E5C002D2D2D2D2D2D2D2D2D2D2D2D2D2D2D2D86
:103E6C002D2D2D2D2D2D2D2D2D2D2D2D2D2D2D2D76
:103E7C002D2D2D2D2D2D2D2D2D2D2D2D2D2D2D2D66
:103E8C002D2D2D2D2D2D2D2D2D2D2D2D2D2D2D2D56
:103E9C002D2D2D2D2D2D2D2D2D2D0D0A20202020BD
:103EAC002020202020202020202020202020202006
:103EBC002020202020202020202047656E65726164
:103ECC006C20496E666F726D6174696F6E0D0A2D90
:103EDC002D2D2D2D2D2D2D2D2D2D2D2D2D2D2D2D06
:103EEC002D2D2D2D2D2D2D2D2D2D2D2D2D2D2D2DF6
:103EFC002D2D2D2D2D2D2D2D2D2D2D2D2D2D2D2DE6
:103F0C002D2D2D2D2D2D2D2D2D2D2D2D2D2D2D2DD5
:103F1C002D2D2D2D2D2D2D2D2D2D2D2D2D2D0D0A08
:103F2C00547970652E2E2E2E2E2E2E2E2E2E2E2EBB
:103F3C002E2E2E2E2E3A205574696C6974790D0A2A
:103F4C00506C6174666F726D2E2E2E2E2E2E2E2EB0
:103F5C002E2E2E2E2E3A2053544D33320D0A0D0A8E
:103F6C002D2D2D2D2D2D2D2D2D2D2D2D2D2D2D2D75
:103F7C002D2D2D2D2D2D2D2D2D2D2D2D2D2D2D2D65
:103F8C002D2D2D2D2D2D2D2D2D2D2D2D2D2D2D2D55
:103F9C002D2D2D2D2D2D2D2D2D2D2D2D2D2D2D2D45
:103FAC002D2D2D2D2D2D2D2D2D2D2D2D2D2D2D0D55
:103FBC000A2020202020202020202020202020200B
:103FCC0020202020202020202020202020202020E5
:103FDC00202052656C65617365204E6F7465730D9E
:103FEC000A2D2D2D2D2D2D2D2D2D2D2D2D2D2D2D18
:103FFC002D2D2D2D2D2D2D2D2D2D2D2D2D2D2D2DE5
:10400C002D2D2D2D2D2D2D2D2D2D2D2D2D2D2D2DD4
:10401C002D2D2D2D2D2D2D2D2D2D2D2D2D2D2D2DC4
:10402C002D2D2D2D2D2D2D2D2D2D2D2D2D2D2D2DB4
:10403C000D0A56657273696F6E2000000D0A50618F
:10404C007373776F7264206D69736D61746368202C
:10405C006F7220746F6F2073686F72742C2072658E
:10406C0073746172740000000D0A0A5061737377E7
:10407C006F726420736574000C0D0A2A2A2A20536F
:10408C006563726574204B65657065722069732079
:10409C00656D707479202A2A2A0D0A0A2D312D207B
:1040AC0053657420612070617373776F72642E0D89
:1040BC000A2D322D2047656E657261746520676F1D
:1040CC006F642070617373776F72642E0D0A2D33D9
:1040DC002D2050726F6475637420696E666F726DFB
:1040EC006174696F6E2E0D0A0D0A43686F69636502
:1040FC003A2000000C0D0A2A2A2A205365637265A7
:10410C0074204B6565706572206C6F636B65642001
:10411C002A2A2A0D0A0A2D312D20456E746572202B
:10412C007468652070617373776F72642E0D0A2D3D
:10413C00322D204C6F73742070617373776F7264BF
:10414C002C207769706520616C6C2E0D0A2D332D37
:10415C002047656E657261746520676F6F642070AF
:10416C00617373776F72642E0D0A2D342D2050728B
:10417C006F6475637420696E666F726D6174696FBC
:10418C006E2E0D0A0D0A43686F6963653A200000B4
:10419C000C0D0A2A2A2A20536563726574204B651C
:1041AC006570657220756E6C6F636B6564202A2A6E
:1041BC002A0D0A0A2D312D204368616E6765207027
:1041CC00617373776F72642E0D0A2D322D20526538
:1041DC007472696576652073656372657420696EA7
:1041EC00666F726D6174696F6E2E0D0A2D332D2002
:1041FC005365742073656372657420696E666F72A3
:10420C006D6174696F6E2E0D0A2D342D2050726FF6
:10421C006475637420696E666F726D6174696F6E1C
:10422C002E0D0A0D0A43686F6963653A2000000081
:10423C0068747470733A2F2F7777772E796F757443
:10424C007562652E636F6D2F77617463683F763D81
:10425C0057507A4D7869476430696F205468697398
:10426C0020636F6465206973206120666C61672030
:10427C00686F6C6465722C20696D706F7373696202
:10428C006C6520746F2072656163682E20425457F0
:10429C002C20796F757220666C616720666F7220B6
:1042AC006C6576656C203320697320474831387B08
:1042BC00546865726573416C77415953416261630F
:1042CC006B444F4F522E2E2E7D2E00002E2E2F5330
:1042DC0072632F6D61696E2E630000000D0A5072BF
:1042EC0065737320454E54455220746F207374616E
:0442FC0072740000D8
:04430000E9000008C8
:04430400C1000008EC
:1043080029DCA12CEDEF11A1DA357D80A22BB28238
:104318007F177CE85735F5FFF54446DC01D4C3C563
:10432800007C00080C0D0A456E746572207468657F
:104338002070617373776F72643A20000C0D0A481D
:10434800656C7065722066756E6374696F6E207433
:104358006F2067656E6572617465206120676F6F95
:10436800642070617373776F72642E0D0A0A506C43
:104378006561736520656E74657220382072616EA0
:10438800646F6D206368617273206D61783A2000F4
:104398000D0A0A47656E6572617465642070617301
:0C43A80073776F72643A200000127A00F4
:0400000508002A09BC
:00000001FF
