:020000040800F2
:1000000000500020DD27000875270008772700082A
:10001000792700087B2700087D27000800000000E2
:100020000000000000000000000000007F27000822
:1000300081270008000000008327000885270008AA
:10004000252800082528000825280008252800085C
:10005000252800082528000825280008252800084C
:10006000252800082528000825280008252800083C
:10007000252800082528000825280008252800082C
:10008000252800082528000825280008252800081C
:10009000252800082528000825280008252800080C
:1000A00025280008252800082528000825280008FC
:1000B00025280008252800082528000825280008EC
:1000C00025280008252800082528000825280008DC
:1000D00025280008252800082528000825280008CC
:1000E0002528000825280008252800080000000011
:1000F0000000000000000000000000000000000000
:0C01000000000000000000005FF808F1A3
:10010C0010B5054C237833B9044B13B10448AFF345
:10011C0000800123237010BDB800002000000000F7
:10012C00B428000808B5034B1BB103490348AFF3CF
:10013C00008008BD00000000BC000020B4280008AE
:10014C00034613F8012B002AFBD1181A013870470B
:10015C0010B504460E4B18784FF47A73B3FBF0F3DA
:10016C000C4A1068B0FBF3F000F094F868B90F2C4F
:10017C0001D901200AE0002221464FF0FF3000F0A7
:10018C0055F8034B5C60002000E0012010BD00BF5F
:10019C0000000020B000002008B5074A136843F0A7
:1001AC0010031360032000F02FF80020FFF7D0FF9E
:1001BC0002F05CFA002008BD00200240034A1168DE
:1001CC00034B1B780B441360704700BFE800002002
:1001DC0000000020014B1868704700BFE8000020A9
:1001EC0038B50446FFF7F6FF0546B4F1FF3F02D0E1
:1001FC00044B1B781C44FFF7EDFF401BA042FAD3C5
:10020C0038BD00BF00000020074AD36823F4E06328
:10021C001B041B0C000200F4E060184340F0BF60AC
:10022C0040F40030D060704700ED00E030B4174B64
:10023C00DB68C3F30223C3F10704042C28BF042496
:10024C001D1D062D18D9033B4FF0FF3505FA04F49C
:10025C0021EA0401994005FA03F322EA0303194346
:10026C0000280BDB0901C9B200F1604000F56140C8
:10027C0080F8001330BC70470023E5E700F00F0056
:10028C000901C9B2024B1954F4E700BF00ED00E0BC
:10029C0014ED00E00138B0F1807F0AD2064B5860B3
:1002AC00064AF02182F823100020986007221A6079
:1002BC0070470120704700BF10E000E000ED00E047
:1002CC00042805D0054A136823F004031360704713
:1002DC00024A136843F004031360704710E000E017
:1002EC00704708B5FFF7FCFF08BD0000044B002267
:1002FC00DA61044A136943F001031361018070470A
:10030C00F0000020002002401A4BDB6813F0100FA5
:10031C0027D0194AD36943F00203D3611023154A3D
:10032C00D26812F0040F06D01349CA6942F00102D8
:10033C00CA6143F004030F4AD26912F0010F09D0CD
:10034C000D49CA6942F00402CA610A49CA6922F01D
:10035C000102CA6140F20112934204D0054AD360F3
:10036C0070470023DBE7034AD36923F00103D36111
:10037C00704700BF00200240F00000200A4B1B69B0
:10038C0013F0800F0DD0084B084A5A6002F18832E6
:10039C005A601B6913F0800F01D0012070470020B8
:1003AC0070470020704700BF0020024023016745C2
:1003BC00034A136943F0800313610020704700BFA8
:1003CC000020024038B50446FFF704FF0546174BE2
:1003DC00DB6813F0010F0AD0B4F1FF3FF7D00CB378
:1003EC00FFF7F8FE401BA042F1D9032019E00F4B98
:1003FC00DB6813F0200F02D00C4B2022DA600B4B81
:10040C00DB6813F0100F09D1084BDB6913F0010FF7
:10041C0004D1064BDB6813F0040F05D0FFF774FF13
:10042C00012038BD0320FCE70020FAE70020024041
:10043C002DE9F843234C247E012C41D01E469046D6
:10044C000F4604461F4B01221A764CF25030FFF730
:10045C00B9FF034670BB012C29D0022C24D04FF0DD
:10046C00040900244C4525D22101C1F12002A1F13F
:10047C00200328FA01F106FA02F2114326FA03F3DB
:10048C00194389B207EB4400FFF730FF4CF25030B0
:10049C00FFF798FF0C4B1D6925F001051D61034604
:1004AC0040B90134E4B2DDE74FF00209D9E74FF06F
:1004BC000109D6E7034A002111761846BDE8F883F6
:1004CC000223FAE7F000002000200240064B002235
:1004DC00DA61064B1A6942F004021A611A6942F099
:1004EC0040021A61704700BFF0000020002002405B
:1004FC00064B0022DA61064B1A6942F002021A61BD
:10050C0058611A6942F040021A617047F0000020ED
:10051C0000200240264B1B7E012B46D070B50E46A8
:10052C000446234B01221A760368022B20D04CF28E
:10053C005030FFF747FF90BB4FF0FF333360A56897
:10054C000122E168A36803EB8123AB4228D928463A
:10055C00FFF7CEFF4CF25030FFF734FF154A13690A
:10056C0023F0020313610246B8B905F58065E8E78C
:10057C004CF25030FFF726FF08B1012210E00120A9
:10058C00FFF7A4FF4CF25030FFF71CFF024609495D
:10059C000B6923F004030B6102E0356000E00122DB
:1005AC00034B00211976104670BD0222104670478D
:1005BC00F000002000200240F0B482B00026354646
:1005CC00A1E0002C59D0012C00D1CE68FF2B68D8AB
:1005DC008446FF2B68D8AC00DCF800200F27A7401E
:1005EC0022EA070206FA04F42243CCF800204A68F7
:1005FC0012F0805F00F086805E4A946944F001043A
:10060C009461926902F001020192019AAC08A71C54
:10061C00594A52F8272005F00307BF004FF00F0C82
:10062C000CFA07FC22EA0C0C544A904242D002F518
:10063C00806290427FD002F5806290427DD002F5BC
:10064C008062904234D0042235E04D4FBC4214D02D
:10065C000BD94C4FBC4210D007F58037BC420CD0A4
:10066C00A7F58017BC42B1D107E0A7F58017BC42B3
:10067C0003D007F58037BC42A8D18C687CB1012C23
:10068C0008D042610826A1E7CE6808369EE7CE68FE
:10069C000C369BE70261082698E7002696E70426AD
:1006AC0094E700F1040C94E7A5F10804A40093E787
:1006BC00032200E00022BA4042EA0C0202342E4F20
:1006CC0047F824204A6812F4803F38D02E4C226818
:1006DC001A4322604A6812F4003F36D02A4C6268F2
:1006EC001A4362604A6812F4801F34D0264CA26808
:1006FC001A43A2604A6812F4001F32D0224CE268FE
:10070C001343E36001350F2D31D80122AA400B6849
:10071C0013409A42F6D14C68122CB8D095D8022CC2
:10072C00B2D07FF64EAF032CB7D0112C7FF44EAF66
:10073C00CE6804364AE70122BDE70222BBE7124C21
:10074C00226822EA03022260C4E70F4C626822EAA4
:10075C0003026260C6E70C4CA26822EA0302A260A4
:10076C00C8E7094CE26822EA0303E360CAE702B077
:10077C00F0BC70470010024000000140000801402E
:10078C0000002110000031100004014012B90904CE
:10079C00016170470161704782B0084B1B68084AC1
:1007AC00A2FB03235B0A00FB03F0019000BF019B3B
:1007BC005A1E0192002BF9D102B07047B0000020F4
:1007CC00D34D621070B582B00446036813F0010F6C
:1007DC002CD0AB4B5B6803F00C03042B1DD0A84B47
:1007EC005B6803F00C03082B12D06368B3F5803FF1
:1007FC0041D0002B55D103F1804303F504331A6823
:10080C0022F480321A601A6822F480221A6037E0CF
:10081C009B4B5B6813F4803FE7D0994B1B6813F438
:10082C00003F03D06368002B00F0AE81236813F007
:10083C00020F76D0924B5B6813F00C0F5FD0904B8D
:10084C005B6803F00C03082B54D02369002B00F0D9
:10085C008A808C4B01221A60FFF7BCFC0546884B42
:10086C001B6813F0020F75D1FFF7B4FC401B022874
:10087C00F5D903208BE1824A136843F4803313606B
:10088C00636843B3FFF7A6FC05467D4B1B6813F466
:10089C00003FCBD1FFF79EFC401B6428F5D9032009
:1008AC0075E1B3F5A02F09D0754B1A6822F480328C
:1008BC001A601A6822F480221A60E1E703F180437F
:1008CC00A3F53C331A6842F480221A601A6842F489
:1008DC0080321A60D4E7FFF77DFC0546684B1B6835
:1008EC0013F4003FA2D0FFF775FC401B6428F5D928
:1008FC0003204CE1624B5B6813F4803FA5D1604B45
:10090C001B6813F0020F04D02369012B01D00120C6
:10091C003DE15B4A136823F0F803616943EAC103C4
:10092C001360236813F0080F32D0A369002B5BD03F
:10093C00554B01221A60FFF74DFC0546504B5B6A84
:10094C0013F0020F21D1FFF745FC401B0228F5D90B
:10095C0003201CE14A4A136823F0F803616943EA57
:10096C00C1031360DDE7474B00221A60FFF732FC2E
:10097C000546434B1B6813F0020FD2D0FFF72AFC3D
:10098C00401B0228F5D9032001E10120FFF704FFE9
:10099C00236813F0040F00F09780394BDB6913F0D8
:1009AC00805F33D1364BDA6942F08052DA61DB6911
:1009BC0003F080530193019B0125344B1B6813F406
:1009CC00807F25D0E368012B36D0002B4CD103F16E
:1009DC00804303F504331A6A22F001021A621A6A80
:1009EC0022F004021A622CE0274B00221A60FFF757
:1009FC00F1FB0546224B5B6A13F0020FC8D0FFF7E0
:100A0C00E9FB401B0228F5D90320C0E00025D4E700
:100A1C001E4A136843F480731360FFF7DBFB064632
:100A2C001A4B1B6813F4807FCCD1FFF7D3FB801BD0
:100A3C006428F5D90320AAE0114A136A43F0010394
:100A4C001362E36873B3FFF7C5FB06460C4B1B6AD6
:100A5C0013F0020F37D1FFF7BDFB801B41F2883337
:100A6C009842F3D9032092E0052B11D0044B1A6A5B
:100A7C0022F001021A621A6A22F004021A62E0E7FA
:100A8C0000100240000042428004424200700040CC
:100A9C00414B1A6A42F004021A621A6A42F00102CD
:100AAC001A62CEE7FFF796FB06463B4B1B6A13F028
:100ABC00020F08D0FFF78EFB801B41F2883398425F
:100ACC00F3D9032063E0E5B9E369002B5ED0324A29
:100ADC00526802F00C02082A5BD0022B17D02F4B65
:100AEC0000221A60FFF776FB04462B4B1B6813F0B1
:100AFC00007F47D0FFF76EFB001B0228F5D90320BF
:100B0C0045E0254AD36923F08053D361DCE7234BBE
:100B1C0000221A60FFF75EFB05461F4B1B6813F0A3
:100B2C00007F06D0FFF756FB401B0228F5D90320A7
:100B3C002DE0236AB3F5803F1AD017494B6823F494
:100B4C007413226A606A024313434B60134B0122F5
:100B5C001A60FFF73FFB04460F4B1B6813F0007F36
:100B6C000ED1FFF737FB001B0228F5D903200EE04E
:100B7C00094A536823F40033A1680B435360DCE744
:100B8C00002004E0002002E0012000E0002002B080
:100B9C0070BD0120FBE700BF001002406000424224
:100BAC0010B487B0164C94E80F000DF1180C0CE93A
:100BBC000F00238AADF80430124B5B6803F00C0273
:100BCC00082A1AD1C3F38342624412F8102C13F48E
:100BDC00803F05D10C4800FB02F007B010BC7047F9
:100BEC00084B5B68C3F34043634413F8143C074859
:100BFC0000FB02F0B0FBF3F0EFE70448EDE700BFB9
:100C0C00CC2800080010024000093D0000127A00B8
:100C1C00594B1B6803F007038B420CD2564A1368DE
:100C2C0023F007030B431360136803F007038B4295
:100C3C0001D00120704770B5036813F0020F06D085
:100C4C004E4A536823F0F0038468234353600C46E8
:100C5C000546036813F0010F52D04368012B23D0D3
:100C6C00022B28D0454A126812F0020F00F0828045
:100C7C0042494A6822F0030213434B60FFF7AAFA79
:100C8C0006466B68012B1DD0022B2AD03B4B5B68B0
:100C9C0013F00C0F34D0FFF79DFA801B41F2883310
:100CAC009842F3D9032064E0344A126812F4003FEE
:100CBC00DED101205DE0314A126812F0007FD7D1FD
:100CCC00012056E02D4B5B6803F00C03042B17D06E
:100CDC00FFF780FA801B41F288339842F2D9032047
:100CEC0047E0264B5B6803F00C03082B08D0FFF79A
:100CFC0071FA801B41F288339842F2D9032038E014
:100D0C001D4B1B6803F00703A3420CD91A4A136846
:100D1C0023F0070323431360136803F00703A34274
:100D2C0001D0012025E02B6813F0040F06D0134AE4
:100D3C00536823F4E063E9680B4353602B6813F0AA
:100D4C00080F07D00D4A536823F46053296943EA0E
:100D5C00C1035360FFF724FF084B5B68C3F3031315
:100D6C00074AD35CD840074B18600020FFF7F0F916
:100D7C00002070BD0120FCE7002002400010024062
:100D8C002C2C0008B0000020014B1868704700BFE5
:100D9C00B000002008B5FFF7F7FF044B5B68C3F306
:100DAC000223034AD35CD84008BD00BF00100240A8
:100DBC003C2C000808B5FFF7E7FF044B5B68C3F356
:100DCC00C223034AD35CD84008BD00BF00100240C8
:100DDC003C2C00082DE9F84305460268136923F4FE
:100DEC004053C1680B431361836802691343426922
:100DFC0013430168CA6822F4B05222F00C02134368
:100E0C00CB600268536923F4407381690B435361CF
:100E1C000268594B9A4257D0FFF7BCFF00EB800099
:100E2C0000EB80006C68A400B0FBF4F4534FA7FBFC
:100E3C00043464092601FFF7ADFF00EB800000EBE2
:100E4C0080006C68A400B0FBF4F9FFF7A3FF00EB83
:100E5C00800000EB80006C68A400B0FBF4F4A7FBEE
:100E6C00043464094FF0640808FB149424013234F0
:100E7C00A7FB0434640904F0F0043444FFF78AFF40
:100E8C0000EB800000EB80006E68B600B0FBF6F65D
:100E9C00FFF780FF00EB800000EB80006B689B008D
:100EAC00B0FBF3F0A7FB0030400908FB10684FEAD9
:100EBC00081808F13208A7FB0837C7F343172B684B
:100ECC0027449F60BDE8F883FFF774FF00EB8000B8
:100EDC0000EB80006C68A400B0FBF4F4274FA7FB78
:100EEC00043464092601FFF765FF00EB800000EB7A
:100EFC0080006C68A400B0FBF4F9FFF75BFF00EB1B
:100F0C00800000EB80006C68A400B0FBF4F4A7FB3D
:100F1C00043464094FF0640808FB1494240132343F
:100F2C00A7FB0434640904F0F0043444FFF742FFD7
:100F3C0000EB800000EB80006E68B600B0FBF6F6AC
:100F4C00FFF738FF00EB800000EB80006B689B0024
:100F5C00B0FBF3F0A7FB0030400908FB10684FEA28
:100F6C00081808F13208A7FB0837C7F343172B689A
:100F7C0027449F60A6E700BF003801401F85EB5156
:100F8C002DE9F04105460F4616469846069C2B68FF
:100F9C001B6837EA03030CBF01230023B3421DD1A6
:100FAC00B4F1FF3FF3D02CB1FFF714F9A0EB08001C
:100FBC00A042ECD92A68D36823F4D073D3602A6892
:100FCC00536923F001035361202385F8393085F8E8
:100FDC003A30002385F83830032000E00020BDE8CB
:100FEC00F08158B310B5044690F839300BB3242374
:100FFC0084F839302268D36823F40053D360204638
:10100C00FFF7E8FE2268136923F49043136122680A
:10101C00536923F02A0353612268D36843F40053C5
:10102C00D3600020E063202384F8393084F83A3010
:10103C0010BD80F8383001F069FBD8E7012070470B
:10104C002DE9F04182B01E4690F83930DBB2202BEE
:10105C0055D104460D469046002955D0002A55D04E
:10106C0090F83830012B53D0012380F8383000230E
:10107C00C363212380F83930FFF7ACF80746A4F896
:10108C002480A4F8268010E000963B4600228021A4
:10109C002046FFF775FF00283CD12B882268C3F34C
:1010AC00080353602369C3B90235E38C9BB2B3B117
:1010BC00E38C013B9BB2E384A368B3F5805FE3D080
:1010CC0000963B46002280212046FFF759FF18BBB3
:1010DC002A7823685A600135E7E70135E5E7009681
:1010EC003B46002240212046FFF74AFF0346A8B9A1
:1010FC00202284F83920002284F8382000E00223D2
:10110C00184602B0BDE8F0810123F9E70123F7E7A7
:10111C000223F5E70323F3E70323F1E70323EFE7C8
:10112C002DE9F04182B01E4690F83A30DBB2202B0C
:10113C005AD104460D469046002959D0002A59D060
:10114C0090F83830012B57D0012380F83830002329
:10115C00C363222380F83A30FFF73CF80746A4F823
:10116C002C80A4F82E801DE000963B460022202106
:10117C002046FFF705FF002840D1236933B92368C7
:10118C005B68C3F3080325F8023B0BE023685B683C
:10119C00DBB225F8013B05E023685B6803F07F03B5
:1011AC002B700135E38D9BB2BBB1E38D013B9BB240
:1011BC00E385A368B3F5805FD6D000963B4600224A
:1011CC0020212046FFF7DCFED0B92369002BE3D1A8
:1011DC0023685B682B700135E4E7202384F83A30F0
:1011EC00002084F8380000E0022002B0BDE8F08155
:1011FC000120FAE70120F8E70220F6E70320F4E7E4
:10120C000320F2E7F0B482B000220EE0930011F854
:10121C00224000F822405C1C0D5D05559C1C0D5DA8
:10122C0005550333CC5CC4540132072AEED908238C
:10123C0021E0042F49D0990003F18042083A10F8BC
:10124C0022409DF804506C4000F8234000EB8202D1
:10125C0054789DF805604D1C7440445594789DF865
:10126C0006608D1C74404455D2789DF807400331BC
:10127C006240425401333B2B3DD803F18042013A8A
:10128C0010F822108DF8041000EB820256788DF8BD
:10129C00056095788DF80650D4788DF8074013F0DA
:1012AC000707C6D1154A965D555D8DF80550145D3E
:1012BC008DF80640515C8DF8071002EBD30292F8C2
:1012CC00002172408DF80420B3E79DF804100B4AFE
:1012DC00515C8DF804109DF80510515C8DF80510CB
:1012EC009DF80610515C8DF806109DF80710525CA5
:1012FC008DF807209FE702B0F0BC7047E02800088B
:10130C00F0B400250FE005EB800403EB8404145DBE
:10131C0001EB8506F75C7C40F4540133DBB2032B04
:10132C00F1D90135EDB2032D01D80023F7E7F0BC5C
:10133C00704700000022032A18D80023032B12D870
:10134C0030B400EB83018C5C094D2C5D8C54013363
:10135C00DBB2032BF5D90132D2B2032A01D8002318
:10136C00F7E730BC70470132D2B2E4E7704700BFF8
:10137C00E0280008437842794270427A4271427BFD
:10138C00427243738378827A827083728379827B10
:10139C0082718373C378C27BC270C27AC273C27902
:1013AC00C272C3717047C3095A00134403EBC303E1
:1013BC0083EA4000C0B270472DE9F0478146002611
:1013CC002EE019F826A009EB8604607880EA0A0062
:1013DC00A378E57843405D40FFF7E5FF68408AEA73
:1013EC00000009F82600677894F8028087EA080064
:1013FC00FFF7D9FF684047406770E77888EA070035
:10140C00FFF7D1FF684088EA000884F8028087EA79
:10141C000A00FFF7C8FF68407840E0700136F6B26A
:10142C00032ECED9BDE8F0872DE9F04F8BB001909B
:10143C000025AAE0019B13F825B003EB850A9AF866
:10144C0001709AF8021000919AF803605846FFF761
:10145C00AAFF0290FFF7A7FF0390FFF7A4FF044633
:10146C0008973846FFF79FFF0746FFF79CFF04904D
:10147C00FFF799FF81460098FFF795FF0590FFF75E
:10148C0092FF0690FFF78FFF80463046FFF78BFFE9
:10149C000990FFF788FF0790FFF785FF0299039BE0
:1014AC004B40DBB26340DBB2089987EA0102D2B24F
:1014BC0089EA0202D2B25340069A9446009A9646A2
:1014CC008CEA0202D2B288EA0202D2B2534080EA1B
:1014DC000602D2B25340019A02F8253084EA0B037B
:1014EC00DBB2049A5740FFB289EA0707FFB25F40AC
:1014FC00059B9C468CEA0E03DBB288EA0303DBB245
:10150C005F40079B7340DBB24340DBB25F408AF81D
:10151C000170039F87EA0B03DBB26340DBB289EAFD
:10152C000102D2B25340059F069A7A40D2B288EAA1
:10153C000202D2B25340099F7E40F6B24640F6B248
:10154C0073408AF80230029E86EA0B0B5FFA8BFB23
:10155C0084EA0B04E4B2049A82EA0103DBB289EA5E
:10156C0003095FFA89F984EA090488EA0E085FFA2C
:10157C0088F884EA0808079B7B40DBB25840C0B26D
:10158C0088EA00008AF803000135032D7FF752AF7B
:10159C000BB0BDE8F08F0000002103291AD80023FE
:1015AC00032B14D830B400EB8304655C0A4A2A443C
:1015BC0092F80C2162540133DBB2032BF3D90131C5
:1015CC00C9B2032901D80023F7E730BC70470131B9
:1015DC00C9B2E2E7704700BFE0280008437B427ABB
:1015EC004273427942724278427143708378827AB4
:1015FC00827083728379827B82718373C378C279A0
:10160C00C270C27AC271C27BC272C373704770B5AA
:10161C0005460E460A4601460020FFF771FE0124DE
:10162C000FE02846FFF786FE2846FFF7A3FE284664
:10163C00FFF7C2FE324629462046FFF761FE013411
:10164C00E4B20D2CEDD92846FFF774FE2846FFF7BF
:10165C0091FE324629460E20FFF752FE70BD70B542
:10166C0005460E460A4601460E20FFF749FE0D249C
:10167C000FE02846FFF7B2FF2846FFF78DFF3246F2
:10168C0029462046FFF73CFE2846FFF7CDFE013CDD
:10169C00E4B2002CEDD12846FFF7A0FF2846FFF757
:1016AC007BFF324629460020FFF72AFE70BD08B5A5
:1016BC00FFF7A8FD08BD08B50B4601461846FFF715
:1016CC00A6FF08BD08B50B4601461846FFF7C7FF35
:1016DC0008BD000010B588B0184B9A6942F0100292
:1016EC009A619A6902F010020192019A9A6942F089
:1016FC0020029A619A6902F020020292029A9A6977
:10170C0042F004029A619B6903F004030393039B68
:10171C000B4C01224FF400512046FFF737F84FF4E1
:10172C00005304930123059300230693022307938C
:10173C0004A92046FEF740FF08B010BD001002407F
:10174C000010014000B583B002A901F8010D64231B
:10175C0001220348FFF774FC03B05DF804FB00BFE3
:10176C000002002070B505460E460024B4420EDA85
:10177C000D4B012229190D48FFF7D2FC2B5D0D2BC7
:10178C0005D02A20FFF7DEFF013424B2EEE7631EFA
:10179C00EA5C0D2A04D0013E0023AB55204670BDF7
:1017AC000022EA54F7E700BF809698000002002060
:1017BC0070B505460E460024B4420DDA0C4B0122DE
:1017CC0029190C48FFF7ACFC285D0D2804D0FFF755
:1017DC00B9FF013424B2EFE7631EEA5C0D2A04D092
:1017EC00013E0023AB55204670BD0022EA54F7E7BA
:1017FC00809698000002002000B583B0C823012217
:10180C000DF107010448FFF78BFC0028F6D19DF978
:10181C00070003B05DF804FB0002002010B504467D
:10182C00FEF78EFC034B82B221460348FFF708FCFF
:10183C0010BD00BFA08601000002002000B5ADF570
:10184C00437D40F20132054901A801F01AF801A8C4
:10185C00FFF7E4FF0DF5437D5DF804FB442C000815
:10186C0030B58BB001AC0E4D0FCD0FC40FCD0FC4E6
:10187C002B6823700B4C01A92046FFF718FF0A4D6B
:10188C0029462046FFF71EFF05F110012046FFF701
:10189C0019FFF0220021204600F0FEFF0BB030BDF6
:1018AC00482F0008100100200800002008B508226D
:1018BC000449054B186A00F0D5FF08B9012008BD92
:1018CC000020FCE76C2F00080800002030B5ADF5B7
:1018DC00537D40F2D3221E491DA800F0D2FF6E2288
:1018EC001C4901A800F0CDFF0C20FFF72BFF1DA811
:1018FC00FFF794FF01A8FFF791FFFFF77DFF312859
:10190C0010D03228F6D13220FFF71CFF4FF4FA70BA
:10191C00FEF766FC1048FFF781FF4FF47A60FEF784
:10192C005FFCE7E73120FFF70DFF4FF4FA70FEF78D
:10193C0057FC00244FF0006305E05D1C1878FFF79E
:10194C0001FF01342B46B4F5803FF6D3FEE700BF10
:10195C00CC2F0008A0320008782F000830B591B0C9
:10196C006C46164D0FCD0FC495E80F0084E80F00A0
:10197C004FF4FA70FEF734FC0024B4F5007F1BD250
:10198C0004F128010E4D29440E4B012202310E4860
:10199C00FFF7C6FB621C05F12A0108A800F090FDB8
:1019AC00202269460DEB020000F05CFF10B10134FF
:1019BC00A4B2E2E7FFF78AFF11B030BDEC2A0008B1
:1019CC006402002080969800000200202DE9F0416E
:1019DC0082B005460F46002602AC44F8046DFEF7B3
:1019EC00CDFC20480660204B83600123C360214658
:1019FC00FEF790FD38B11D48FFF710FF4FF4FA6069
:101A0C00FEF7EEFBF7E72A68A8460026164CBE4206
:101A1C0015D2174B9C4212D8002321460220FEF708
:101A2C0007FD20B9043458F8042F0436EFE71148A9
:101A3C00FFF7F4FE4FF4FA60FEF7D2FBF7E7FEF780
:101A4C00B7FC3A462946084800F00CFF38B10A4862
:101A5C00FFF7E4FE4FF4FA60FEF7C2FBF7E702B0C3
:101A6C00BDE8F081D4000020007C00081033000891
:101A7C00FF7F0008383300086033000870B5B8B039
:101A8C0018AC374D0FCD0FC495E8030044F8040B88
:101A9C00218012AC334D0FCD0FC495E8030044F8F0
:101AAC00040B217007AC304D0FCD0FC40FCD0FC4FC
:101ABC0095E8070003C424F8022B120C22706C4624
:101ACC002A4D0FCD0FC495E8070003C424F8022B50
:101ADC00120C227006E007A8FFF7A0FE40F6B83003
:101AEC00FEF77EFB18A8FFF799FE32212BA8FFF713
:101AFC0039FE84B212A8FFF791FE32211EA8FFF71F
:101B0C0031FE80B2022CE6D98442E4D1254622462D
:101B1C001EA92BA800F0A6FE0028DCD16846FFF712
:101B2C007DFE40F6B830FEF75BFB114C4FF40B76A4
:101B3C0032460021204600F0AFFE0E4B03CB206056
:101B4C0061602A462BA904F1080000F0B9FC31466B
:101B5C002046FFF73BFF084B1B68984738B070BD19
:101B6C00843300089C330008B4330008E0330008C9
:101B7C00640200206C2F00080400000830B5CFB0C0
:101B8C0040F2031222490DA800F07BFE6C46214D59
:101B9C000FCD0FC40FCD0FC40FCD0FC42B6824F87D
:101BAC00023B1B0C23700C20FFF7CCFD0DA8FFF79C
:101BBC0035FE194A002304E01849116004331BB2A6
:101BCC0004329BB2B3F50B7FF6D34FF40B71124872
:101BDC00FFF7FCFE6846FFF721FE09240EE02020EB
:101BEC00FFF7B0FDE4B204F13000C0B2FFF7AAFD7C
:101BFC004FF47A70FEF7F4FA013C64B2002CEEDA82
:101C0C000748FFF70BFE074B1B6898474FB030BDDA
:101C1C00083400080C35000864020020EDDAEBFEF5
:101C2C00FC3300080400000870B59AB00AAC2D4DC6
:101C3C000FCD0FC40FCD0FC40FCD0FC495E80F00FF
:101C4C0007C423706C46284D0FCD0FC40FCD0FC4A5
:101C5C0095E8030044F8040B24F8021B090C2170CE
:101C6C000AA8FFF7DBFD214C4FF40B72204B196ACD
:101C7C00204600F006FE04F12A054FF400763246A9
:101C8C000021284600F008FE31462846FFF790FD5B
:101C9C00208504F108011748FFF709FD002109E030
:101CAC0009012831114B194402311248FFF703FD89
:101CBC00611C09B28CB21F2CF2D90C4C4FF40B7175
:101CCC002046FFF783FE4FF40B720021204600F0F4
:101CDC00E3FD6846FFF7A2FD40F6B830FEF780FA48
:101CEC001AB070BD40350008803500086402002031
:101CFC00080000201001002030B593B007AC2B4D2C
:101D0C000FCD0FC40FCD0FC495E8070003C424F802
:101D1C00022B120C22706C46254D0FCD0FC495E88A
:101D2C00070003C424F8022B120C227007A8FFF73B
:101D3C0075FD204C4FF40B721F4B196A204600F0B6
:101D4C00A0FD04F108011D48FFF7B1FC002109E0DA
:101D5C0009012831174B194402311848FFF7B2FC1E
:101D6C00611C09B28CB21F2CF2D9002407E0114B74
:101D7C00234493F82A00FFF7E5FC013424B20D4B01
:101D8C001B8D9C42F3DB4FF4007200210C4800F0D9
:101D9C0083FD40F6B830FEF723FA6846FFF73EFDA8
:101DAC00FFF72AFD0D28FBD113B030BDA835000874
:101DBC00D435000864020020080000201001002027
:101DCC008E02002000B5ADF2EC7D40F2FA421049D3
:101DDC00BBA800F056FD40F2E7220E4901A800F026
:101DEC0050FD0C20FFF7AEFCBBA8FFF717FD01A8B8
:101DFC00FFF714FD0848FFF711FD0848FFF70EFD2B
:101E0C00FFF7FAFC0D28FBD10DF2EC7D5DF804FB1D
:101E1C00F8350008F43A0008F0350008D43500080D
:101E2C0010B58EB0194B00221A701948FFF7F6FC4A
:101E3C00164C2178174B012201A801441648FFF7D4
:101E4C006FF923785A1CD2B222700EA90B4413F8E6
:101E5C00343C0D2BECD1013A0A44002302F8343CFB
:101E6C0001A8FEF76DF90D4C024601A9204600F0C1
:101E7C0027FB0B4B196A20220831204600F0F2FC9C
:101E8C0010B901200EB010BD0020FBE7600200204D
:101E9C002C000020809698000002002040020020B8
:101EAC000800002030B585B0404B00221A74404821
:101EBC00FFF7B4FC3D4C217C3E4B012201A80144B0
:101ECC003D48FFF72DF9237C04AA134413F80C0C9E
:101EDC00FFF738FC237C5A1C227404AA134413F811
:101EEC000C3C0D2BE6D1354B1A78531E04A90B4430
:101EFC00002403F80C4C324D01A9284600F0E0FAFE
:101F0C002B680293FEF766F90190082201A9284676
:101F1C0000F0D6FA2B48FFF781FC22E004F10C020A
:101F2C00294B1344187A294BA3FB0023DB0803EB42
:101F3C0083035A00801A3030C0B2FFF703FC0EE066
:101F4C000C32214B1A44137A2148A0FB0320C00801
:101F5C001A2202FB10306130C0B2FFF7F3FB0134E0
:101F6C00E4B20B2C19D82246174B23441B7A13F0DE
:101F7C00030FD3D013F0040FE2D10C32124B1A44DE
:101F8C00137A1348A0FB0320C0081A2202FB10305E
:101F9C004130C0B2FFF7D6FBE1E70E48FFF73EFC3D
:101FAC00FFF72AFC0D28FBD105B030BDD400002072
:101FBC00440000208096980000020020600200205F
:101FCC006C0200209800002064020020CDCCCCCC08
:101FDC004FECC44ED435000830B5B7B030AC474DDB
:101FEC000FCD0FC495E8030044F8040B21802AACF4
:101FFC00434D0FCD0FC495E8030044F8040B21703A
:10200C001FAC404D0FCD0FC40FCD0FC495E807008A
:10201C0003C422803C4B1BAC0FCB84E80F003B4C21
:10202C004FF40B723A4B196A204600F02AFC04F16B
:10203C0008013848FFF73BFB002109E00901283172
:10204C00324B194402313348FFF73CFB611C09B297
:10205C008CB21F2CF2D906E01FA8FFF7DFFB40F66D
:10206C00B830FEF7BDF830A8FFF7D8FB32210EA828
:10207C00FFF778FB84B22AA8FFF7D0FB322101A826
:10208C00FFF770FB80B2022CE6D98442E4D12546DE
:10209C00224601A90EA800F0E5FB0028DCD11E4C5D
:1020AC002A460EA9204600F00BFA21461948FFF7E4
:1020BC00FEFA002109E009012831144B19440231C0
:1020CC001448FFF7F8FA611C09B28CB21F2CF2D934
:1020DC000E4C4FF40B712046FFF778FC4FF40B724B
:1020EC000021204600F0D8FB1BA8FFF797FB40F619
:1020FC00B830FEF775F837B030BD00BF8433000838
:10210C009C330008DC3D0008083E000864020020F7
:10211C0008000020100100206C02002000B5A1B0C6
:10212C007B22214901A800F0ACFB0CE03120FFF729
:10213C0009FB4FF4FA70FEF753F8FFF79FFC4FF4CE
:10214C00FA60FEF74DF801A8FFF768FBFFF754FBA8
:10215C0031380528F7D801A353F820F039210008AD
:10216C008121000895210008532100085321000803
:10217C00A92100083220FFF7E5FA4FF4FA70FEF7B8
:10218C002FF8FFF78FFEDEE73320FFF7DBFA4FF473
:10219C00FA70FEF725F8FFF715FED4E73620FFF7A7
:1021AC00D1FAFFF7DBFBCEE7183E000810B5D0B034
:1021BC009B22524929A800F064FB9E22504901A899
:1021CC0000F05FFB14E03120FFF7BCFA4FF4FA701B
:1021DC00FEF706F8FFF724FE50B1012444E032204C
:1021EC00FFF7B0FA4FF4FA70FDF7FAFFFFF7C6FCF1
:1021FC0029A8FFF713FBFFF7FFFA31380528F7D8AA
:10220C0001A353F820F000BFD3210008EB210008F4
:10221C002D22000841220008FD210008552200084B
:10222C003320FFF78FFA4FF4FA70FDF7D9FFFFF761
:10223C0039FEDDE73420FFF785FA4FF4FA70FDF72D
:10224C00CFFFFFF7BFFDD3E73620FFF77BFAFFF791
:10225C0085FBCDE73120FFF775FA4FF4FA70FDF7E7
:10226C00BFFFFFF7B9FE002401A8FFF7D7FAFFF76D
:10227C00C3FA3138052832D801A353F820F000BF37
:10228C0061220008A5220008B9220008CD2200080E
:10229C00EB220008E12200083220FFF753FA4FF43A
:1022AC00FA70FDF79DFFFFF727FDDCE73320FFF702
:1022BC0049FA4FF4FA70FDF793FFFFF7B5FCD2E73C
:1022CC003420FFF73FFA4FF4FA70FDF789FFFFF760
:1022DC0079FDC8E73620FFF735FAFFF73FFB013CE5
:1022EC00032CC0D801A353F824F000BF6F220008C0
:1022FC00B3220008C7220008DB220008943E000825
:10230C00303F0008FEE7000008B50B480B4B03609C
:10231C004FF41653436000238360C36003610C22A7
:10232C0042618361C361FEF75CFE00B908BD40F2F7
:10233C005D410348FFF7E6FF000200200038014032
:10234C00D03F000800B591B0012206924FF48033C3
:10235C000793002108910A9202220D920E934FF4DA
:10236C00E0130F9306A8FEF72DFA08BB0F23019379
:10237C0002210291002303934FF48062049205938F
:10238C0001A8FEF745FCC0B9FEF7FEFC0D4BA3FB04
:10239C0000308009FDF77EFF0420FDF791FF00223D
:1023AC0011464FF0FF30FDF741FF11B05DF804FB13
:1023BC0040F232410448FFF7A5FF4FF48861024810
:1023CC00FFF7A0FFD34D6210D03F000808B5FDF712
:1023DC00E3FEFFF7B7FFFFF77DF9FFF795FFFFF778
:1023EC003FFAFFF72BFA0748FFF718FAFFF704FA42
:1023FC000D28FBD1FFF75AFA08B9FFF78FFEFFF74C
:10240C00D5FE00BFE03F00080160426082600023FF
:10241C00C36003617047F8B50B69002B4ED14A6855
:10242C003F2A26D80D460446096800F02AFA6B6844
:10243C00E718C3F14002296819442960002169603A
:10244C00E96831B98022E254C3F13F020123EB6009
:10245C001F44072A2CD9A2F10806AC683246002189
:10246C00384600F019FABA19E300D371640906234F
:10247C0019E00B6803F140021F685E689D68DC6818
:10248C00076046608560C460103310309342F3D10E
:10249C000B6840330B604B68403B4B6001200EE0F7
:1024AC00D454240A013B002BFADA0120286106E0FF
:1024BC000021384600F0F0F9012000E00020F8BDC2
:1024CC002DE9F047E6B082460F4694465EAD664E67
:1024DC000FCE0FC596E80F0085E80F00624639460F
:1024EC0049A8FFF791FF91E0107853781B0443EA59
:1024FC000063907843EA0023D078034309A840F89E
:10250C002130043201310F29EEDD102320E0A3F13C
:10251C000F0209A951F822504FEAB54282EAF5128E
:10252C0082EAD5059A1E51F822204FEAF24080EA41
:10253C00724080EA9220A3F1100251F822202A4422
:10254C00DD1F51F825502A44024441F82320013361
:10255C003F2BDCDD002308E066AA02EB830252F875
:10256C00201C01AA42F823100133072BF4DD0020B4
:10257C003AE005994FEAF12383EAB11383EA7162D9
:10258C00069D01EA0503079E26EA01075F40089BAA
:10259C0013443B44344A02EB8002126A134409AAE6
:1025AC0052F820201344019C4FEA743282EAB402A0
:1025BC0082EAB452DDF808E0DDF80C808EEA0807F8
:1025CC0027400EEA080987EA09073A440896079556
:1025DC000691049919440591CDF81080CDF80CE0C2
:1025EC0002941344019301303F28C2DD00230BE019
:1025FC0001AA52F8230066AA02EB830151F8202CA1
:10260C00024441F8202C0133072BF1DD49A94EA8D7
:10261C00FFF701FF024640B14FF48072002109A878
:10262C0000F03AF94EAA00216DE70346072A17DCA1
:10263C0066A901EB820151F8201C581C0D0E0AF8FA
:10264C0003509D1CC1F307460AF80060D81CC1F367
:10265C0007260AF805600AF8001004330132E5E792
:10266C0066B0BDE8F08700BF0C2B000800B583B046
:10267C00244B9A6942F001029A619A6902F00102B4
:10268C000092009ADA6942F08052DA61DB6903F059
:10269C0080530193019B0320FDF7B6FD00221146E8
:1026AC006FF00B00FDF7C2FD002211466FF00A001F
:1026BC00FDF7BCFD002211466FF00900FDF7B6FDD9
:1026CC00002211466FF00400FDF7B0FD0022114608
:1026DC006FF00300FDF7AAFD002211466FF0010018
:1026EC00FDF7A4FD002211464FF0FF30FDF79EFDD3
:1026FC00054A536823F0E06343F00073536003B062
:10270C005DF804FB00100240000001400268144B0D
:10271C009A4200D0704710B586B003F558439A69B9
:10272C0042F480429A619B6903F480430193019BBC
:10273C004FF4007302930223039303230593094C74
:10274C0002A92046FDF738FF4FF480630293002363
:10275C000393049302A92046FDF72EFF06B010BD8B
:10276C0000380140000801407047FEE7FEE7FEE735
:10277C00FEE770477047704708B5FDF71FFDFDF782
:10278C00B0FD08BD0F4B1A6842F001021A6059687F
:10279C000D4A0A405A601A6822F0847222F4803280
:1027AC001A601A6822F480221A605A6822F4FE0217
:1027BC005A604FF41F029A60044B4FF000629A600B
:1027CC00704700BF001002400000FFF800ED00E071
:1027DC00002103E00B4B5B58435004310A480B4B70
:1027EC0042189A42F6D30A4A02E0002342F8043B0C
:1027FC00084B9A42F9D3FFF7C5FF00F00FF8FFF72B
:10280C00E5FD70470040000800000020B4000020E7
:10281C00B800002090040020FEE7000070B50025F1
:10282C000C4E0D4CA41BA410A54209D100F03CF891
:10283C0000250A4E0A4CA41BA410A54205D170BD5C
:10284C0056F8253098470135EEE756F8253098476D
:10285C000135F2E7F83F0008F83F0008F83F0008A0
:10286C00FC3F000830B50024A24201D1002007E053
:10287C00035D01340D1915F8015CAB42F4D0581B03
:10288C0030BD10B5431E0A44914200D110BD11F861
:10289C00014B03F8014FF7E703460244934200D182
:1028AC00704703F8011BF9E7F8B500BFF8BC08BC8A
:1028BC009E467047F8B500BFF8BC08BC9E467047F2
:1028CC0002030405060708090A0B0C0D0E0F101065
:1028DC0001020000637C777BF26B6FC53001672BC4
:1028EC00FED7AB76CA82C97DFA5947F0ADD4A2AFF8
:1028FC009CA472C0B7FD9326363FF7CC34A5E5F106
:10290C0071D8311504C723C31896059A071280E2B3
:10291C00EB27B27509832C1A1B6E5AA0523BD6B307
:10292C0029E32F8453D100ED20FCB15B6ACBBE3977
:10293C004A4C58CFD0EFAAFB434D338545F9027F63
:10294C00503C9FA851A3408F929D38F5BCB6DA211C
:10295C0010FFF3D2CD0C13EC5F974417C4A77E3D48
:10296C00645D197360814FDC222A908846EEB8149E
:10297C00DE5E0BDBE0323A0A4906245CC2D3AC6261
:10298C009195E479E7C8376D8DD54EA96C56F4EA6C
:10299C00657AAE08BA78252E1CA6B4C6E8DD741F7D
:1029AC004BBD8B8A703EB5664803F60E613557B940
:1029BC0086C11D9EE1F8981169D98E949B1E87E9FA
:1029CC00CE5528DF8CA1890DBFE6426841992D0FA9
:1029DC00B054BB168D01020408102040801B360039
:1029EC0052096AD53036A538BF40A39E81F3D7FB78
:1029FC007CE339829B2FFF87348E4344C4DEE9CBC2
:102A0C00547B9432A6C2233DEE4C950B42FAC34E36
:102A1C00082EA16628D924B2765BA2496D8BD125EC
:102A2C0072F8F66486689816D4A45CCC5D65B69290
:102A3C006C704850FDEDB9DA5E154657A78D9D8434
:102A4C0090D8AB008CBCD30AF7E45805B8B3450654
:102A5C00D02C1E8FCA3F0F02C1AFBD0301138A6B6E
:102A6C003A9111414F67DCEA97F2CFCEF0B4E6739E
:102A7C0096AC7422E7AD3585E2F937E81C75DF6E4C
:102A8C0047F11A711D29C5896FB7620EAA18BE1BB2
:102A9C00FC563E4BC6D279209ADBC0FE78CD5AF458
:102AAC001FDDA8338807C731B11210592780EC5F9E
:102ABC0060517FA919B54A0D2DE57A9F93C99CEFFA
:102ACC00A0E03B4DAE2AF5B0C8EBBB3C83539961FB
:102ADC00172B047EBA77D626E169146355210C7D39
:102AEC009EE6C0FACBE8D06E39DA87FF43BF3A4C8A
:102AFC00E510AFF2015518E84194FCDF6BAE17CF2F
:102B0C0067E6096A85AE67BB72F36E3C3AF54FA572
:102B1C007F520E518C68059BABD9831F19CDE05B9E
:102B2C00982F8A4291443771CFFBC0B5A5DBB5E92C
:102B3C005BC25639F111F159A4823F92D55E1CABA0
:102B4C0098AA07D8015B8312BE853124C37D0C552E
:102B5C00745DBE72FEB1DE80A706DC9B74F19BC176
:102B6C00C1699BE48647BEEFC69DC10FCCA10C2466
:102B7C006F2CE92DAA84744ADCA9B05CDA88F9764A
:102B8C0052513E986DC631A8C82703B0C77F59BFB4
:102B9C00F30BE0C64791A7D55163CA0667292914E0
:102BAC00850AB72738211B2EFC6D2C4D130D38537D
:102BBC0054730A65BB0A6A762EC9C281852C72923F
:102BCC00A1E8BFA24B661AA8708B4BC2A3516CC76D
:102BDC0019E892D1240699D685350EF470A06A10A6
:102BEC0016C1A419086C371E4C774827B5BCB034F5
:102BFC00B30C1C394AAAD84E4FCA9C5BF36F2E6893
:102C0C00EE828F746F63A5781478C8840802C78C21
:102C1C00FAFFBE90EB6C50A4F7A3F9BEF27871C624
:102C2C000000000000000000010203040607080970
:102C3C0000000000010203040C0D0A0A20202020D1
:102C4C002323232323232323232323232323232348
:102C5C002323232323232323232323232323232338
:102C6C000D0A20202020232323232047726548614E
:102C7C00636B20536563726574204B656570657278
:102C8C002023232323230D0A202020202323232346
:102C9C0023232323232323232323232323232323F8
:102CAC002323232323232323232323230D0A200D30
:102CBC000A2020202020202020202020202020201E
:102CCC00202E3D3D2E0D0A202020202020202020CB
:102CDC0020202020205F2F5F5F5F5F5C5F0D0A204C
:102CEC002020202020205F2E2C2D2D2722207C7CA4
:102CFC005E207C7C2022607A2E5F0D0A2020202012
:102D0C0020202F5F2F5E205F5F5F5C7C7C20207C0F
:102D1C007C205F2F6F5C2022602D2E5F0D0A2020FF
:102D2C0020205F2F20205D2E204C5F7C207C7C207F
:102D3C002E7C7C20205C5F2F5F20202E205F602D5E
:102D4C002D2E5F0D0A2020202F5F7E3720205F2044
:102D5C002E2022207C7C2E207C7C202F5D205C2051
:102D6C005D2E20285F2920202E2022602D2D2E0D57
:102D7C000A20207C5F5F377E2E285F295F205B5DF9
:102D8C007C2B2D2D2B7C2F5F5F5F5F545F5F5F5F14
:102D9C005F5F5F5F5F5F5F5F5F4C7C0D0A20207C35
:102DAC005F5F7C20205F5E285F29202F5E20202023
:102DBC005F5F5C5F5F5F5F205F2020205F7C0D0AA0
:102DCC0020207C5F5F7C20285F297B5F29204A20A4
:102DDC005D4B7B5F5F204C5F5F5F205F2020205F3F
:102DEC005D0D0A20207C5F5F7C202E205F285F29F0
:102DFC00205C7620202020202F5F5F5F5F5F5F5F6D
:102E0C005F5F5F7C5F5F5F5F5F5F5F5F0D0A2020CE
:102E1C006C5F5F6C5F20285F292E205B5D7C2B2D07
:102E2C002B2D3C5C5E2020204C20202E205F20206F
:102E3C00202D202D2D2D4C7C0D0A2020205C5F5F39
:102E4C005C202020205F5F2E207C7C5E6C20205C30
:102E5C00595D202F5F5D2020285F29202E20205FC8
:102E6C002C2D2D270D0A20202020205C7E5F5D203C
:102E7C00204C5F7C207C7C202E5C202E5C5C2F7E8A
:102E8C002E202020205F2C2D2D27220D0A202020E3
:102E9C002020205C5F5C202E205F5F2F7C7C20201C
:102EAC007C5C20205C602D2B2D3C27220D0A2020E1
:102EBC0020202020202022602D2D2D2E5F7C4A5F8B
:102ECC005F4C7C58206F7E7E7C5B5C5C20202020DD
:102EDC00224B65657020796F75722073656372651E
:102EEC00747320696E20612070726F76656E20732A
:102EFC00686970220D0A202020202020202020200C
:102F0C0020202020205C5F5F5F5F2F205C5F5F5F75
:102F1C007C5B2F2F0D0A2020202020202020202019
:102F2C00202020202020602D2D27202020602D2DDA
:102F3C002B2D270D0A200D0A0000000047483138C0
:102F4C007B53542D4C494E4B6F72424F4F544C4F48
:102F5C004144455264756D70414C4C7D000000003D
:102F6C004748534543524554000000000D0A0A4E91
:102F7C006F7420696D706C656D656E746564207915
:102F8C0065742028616E6420492073616964207423
:102F9C006F206E6F7420777269746520696E20667D
:102FAC006C6173682C20746F206E6F742062726574
:102FBC00616B207468652067616D6521290D0A00BD
:102FCC000D0A20205F5F5F5F5F5F5F5F2020202026
:102FDC002020202020202020202020205F5F5F2028
:102FEC005F5F5F2020202020202020202020202018
:102FFC002020205F5F202020202020200D0A202F61
:10300C0020205F5F5F5F5F2F5F5F5F5F5F5F2020F0
:10301C00205F5F5F5F20202F2020207C2020205C01
:10302C005F5F5F5F5F202020205F5F5F5F207C2001
:10303C00207C205F5F2020200D0A2F2020205C2088
:10304C00205F5F5C5F20205F5F205C5F2F205F5FF5
:10305C00205C2F202020207E202020205C5F5F2001
:10306C00205C205F2F205F5F5F5C7C20207C2F200A
:10307C002F2020200D0A5C202020205C5F5C20206B
:10308C005C20207C205C2F5C20205F5F5F2F5C200D
:10309C0020202059202020202F2F205F5F205C5CD7
:1030AC0020205C5F5F5F7C202020203C20202020A3
:1030BC000D0A205C5F5F5F5F5F5F20202F5F5F7C8E
:1030CC00202020205C5F5F5F20203E5C5F5F5F7C88
:1030DC005F20202F285F5F5F5F20202F5C5F5F5F8A
:1030EC0020203E5F5F7C5F205C2020200D0A20208A
:1030FC002020202020205C2F202020202020202079
:10310C00202020205C2F202020202020205C2F201D
:10311C0020202020205C2F20202020205C2F20200D
:10312C002020205C2F2020200D0A5F5F5F5F5F5FF7
:10313C005F5F5F5F20202020202020202020202087
:10314C00202020205F5F202020202020202E5F5F69
:10315C005F20202020202020202020202020202024
:10316C00202020200D0A5C5F5F5F5F5F5F202020C6
:10317C005C5F5F5F5F5F202020205F5F5F5F207C74
:10318C0020207C205F5F205F5F7C205F2F5F5F5F74
:10319C005F2020205F5F5F5F5F5F5F5F5F5F5F202F
:1031AC000D0A207C202020207C20205F2F5C5F5F7C
:1031BC0020205C205F2F205F5F5F5C7C20207C2FB9
:1031CC00202F2F205F5F207C2F20205F205C202F62
:1031DC0020205F205C5F20205F5F205C0D0A207C3C
:1031EC00202020207C2020205C202F205F5F205C72
:1031FC005C20205C5F5F5F7C202020203C2F202FF8
:10320C005F2F202820203C5F3E207C20203C5F3E0E
:10321C00202920207C205C2F0D0A207C5F5F5F5FC3
:10322C005F5F20202F285F5F5F5F20202F5C5F5F38
:10323C005F20203E5F5F7C5F205C5F5F5F5F207C78
:10324C005C5F5F5F5F2F205C5F5F5F5F2F7C5F5F0A
:10325C007C2020200D0A20202020202020205C2FE4
:10326C002020202020205C2F20202020205C2F20BC
:10327C00202020205C2F202020205C2F20202020AC
:10328C002020202020202020202020202020202032
:10329C000D0A00000D0A596F7520656E7465726514
:1032AC006420696E206D616E6167656D656E74205A
:1032BC006D6F64652C207265616420636172656654
:1032CC00756C6C7920696E737472756374696F6E4A
:1032DC00732E0D0A2D312D2044756D7020666C6196
:1032EC0073682E0D0A2D322D205772697465206675
:1032FC006C6173682E0D0A0D0A43686F6963653A39
:10330C00200000000D0A464C415348204552524FB4
:10331C00523A204661696C656420746F2065726155
:10332C00736520666C617368000000000D0A464CE2
:10333C00415348204552524F523A204661696C65C0
:10334C006420746F2070726F6772616D20666C619F
:10335C00736800000D0A4552524F5220464C41539F
:10336C00483A2042616420666C6173682077726908
:10337C0074696E67000000000C0D0A456E7465726E
:10338C0020612070617373776F72643A20000000C3
:10339C000D0A5265706561742070617373776F727A
:1033AC00643A2020000000000D0A0A506173737704
:1033BC006F7264206D69736D61746368206F722025
:1033CC00746F6F2073686F72742C207265737461E4
:1033DC00727400000D0A0A50617373776F72642067
:1033EC007365742C207265626F6F74696E67000070
:1033FC000D0A5265626F6F740D0A00000D0A205F92
:10340C00202020202020205F5F5F202020202020F3
:10341C002020202020205F5F5F5F202020202020A4
:10342C0020205F5F200D0A7C207C20202020202F74
:10343C0020285F295F5F5F20205F5F5F20202F20A7
:10344C005F5F205C5F5F20205F5F2F202F5F0D0A86
:10345C007C207C202F7C202F202F202F205F5F2092
:10346C005C2F205F205C2F202F202F202F202F203F
:10347C002F202F205F5F2F0D0A7C207C2F207C2F8C
:10348C00202F202F202F5F2F202F20205F5F2F2019
:10349C002F5F2F202F202F5F2F202F202F5F2020FA
:1034AC000D0A7C5F5F2F7C5F5F2F5F2F202E5F5F8D
:1034BC005F2F5C5F5F5F2F5C5F5F5F5F2F5C5F5FA9
:1034CC002C5F2F5C5F5F2F202045766572797468C6
:1034DC00696E670D0A20202020202020202F5F2FCE
:1034EC0020202020202020202020202020202020D0
:1034FC002020202020202020202020200D0A000029
:10350C000D0A446F6E650D0A496E203130207365CB
:10351C00636F6E6473207468652064657669636597
:10352C002077696C6C207265626F6F740D0A0D0ADE
:10353C00313000000C0D0A456E74657220796F7580
:10354C00722073656372657420686572652E2055F0
:10355C007020746F2035313220627974657320636A
:10356C00616E2062652073746F7265642E0D0A0A99
:10357C00000000000D0A0A596F75722073656372A2
:10358C006574207761732073746F72656420737532
:10359C00636365737366756C6C7900000C0D0A546B
:1035AC006865207365637265742073746F7265202F
:1035BC00696E20796F757220646576696365206920
:1035CC0073203A0D0A0A00000D0A0A5072657373D3
:1035DC0020454E54455220746F20636F6E74696E93
:1035EC0075650000312E3030000000000D0A2E2EC3
:1035FC002E2E2E2E2E2E2E2E2E2E2E2E2E2E2E2EDF
:10360C002E2E2E2E2E2E2E2E2E2E2E2E2E2E2E2ECE
:10361C002E2E2E2E2E0D0A2E2E2E2E2E2E2E2E2E03
:10362C002E2E2E2E2E4F4F4F4F6F2E2E2E2E2E2EE9
:10363C002E2E2E2E2E2E2E2E2E2E2E2E2E2E0D0AE3
:10364C002E2E2E2E2E2E2E2E2E2E2E2E6F4F4F4FEA
:10365C004F4F4F6F2E2E2E2E2E2E2E2E2E2E2E2EDA
:10366C002E2E2E2E2E2E2E0D0A2E2E2E2E2E2E2EB3
:10367C002E2E2E2E2E6F4F4F4F4F4F4F4F2E2E2E36
:10368C002E2E2E2E2E2E2E2E2E2E2E2E2E2E2E2E4E
:10369C000D0A2E2E2E2E2E2E2E2E2E2E2E2E6F4F21
:1036AC004F4F4F4F4F4F4F4F4F4F4F2E2E2E2E2EC3
:1036BC002E2E2E2E2E2E2E2E2E0D0A2E2E2E2E2E63
:1036CC002E2E2E2E2E4F4F4F4F4F4F4F4F4F4F4FA3
:1036DC004F4F4F4F4F4F4F4F2E2E2E2E2E2E2E2EF6
:1036EC002E2E0D0A2E2E2E2E2E2E2E2E4F4F4F4FAF
:1036FC004F4F4F4F4F4F4F4F4F4F4F4F4F4F4F4FCE
:10370C004F4F4F2E2E2E2E2E2E2E2E0D0A2E2E2EAF
:10371C002E2E2E2E4F4F4F4F4F4F4F4F4F4F4F4F31
:10372C004F4F4F4F4F4F4F4F4F4F4F4F4F6F2E2EBF
:10373C002E2E2E2E0D0A2E2E2E2E2E4F4F4F4F4F3D
:10374C004F4F4F4F4F4F4F4F4F4F4F4F4F4F4F4F7D
:10375C004F4F4F4F4F4F4F4F2E2E2E2E2E0D0A2EBA
:10376C002E2E2E4F4F4F4F4F4F4F4F4F4F4F4F4FC0
:10377C004F4F4F4F6F4F6F4F6F2E2E6F6F4F6F4FCF
:10378C004F4F2E2E2E2E0D0A2E2E2E6F4F4F4F4F8B
:10379C004F4F4F4F4F4F2E6F4F4F4F4F4F4F4F4F2E
:1037AC004F4F4F4F4F4F4F4F4F4F4F6F2E2E2E0DA2
:1037BC000A2E2E2E4F4F4F4F4F4F2E6F4F4F4F4FB6
:1037CC004F4F4F4F4F4F4F4F4F4F4F4F4F4F4F4FFD
:1037DC004F4F4F4F4F4F2E2E0D0A2E2E4F4F4F2E19
:1037EC006F4F4F4F4F4F4F4F4F4F4F4F4F6F2E2EDF
:1037FC006F4F2E2E2E2E2E2E4F6F2E2E4F4F4F2EB6
:10380C002E0D0A2E2E4F4F4F4F4F4F4F4F4F4F4FA6
:10381C002E4F4F4F4F4F4F4F4F4F2E2E2E2E2E2E93
:10382C002E2E4F4F4F4F4F4F2E2E0D0A2E4F4F4FC8
:10383C004F4F4F4F2E2E2E2E2E2E2E4F4F4F4F4F73
:10384C004F4F2E2E2E2E2E2E2E2E2E2E4F4F4F4FC6
:10385C004F4F2E0D0A2E6F4F4F6F2E4F4F2E2E2E79
:10386C002E2E2E2E4F4F4F4F4F4F4F2E2E2E2E2E85
:10387C002E2E2E2E2E4F4F4F4F4F4F2E0D0A2E2EDB
:10388C002E4F4F4F4F4F2E2E2E2E2E2E2E2E4F4F65
:10389C004F4F4F4F2E2E2E2E2E2E2E2E2E2E4F4F76
:1038AC004F4F4F4F2E0D0A2E2E4F4F4F4F4F4F2E27
:1038BC002E2E2E2E2E2E6F4F4F4F4F4F4F2E2E2E15
:1038CC002E2E2E2E2E2E2E4F4F4F4F4F6F2E0D0A6B
:1038DC002E2E6F4F4F4F4F4F6F2E2E2E2E2E2E4FB4
:1038EC004F4F4F4F4F4F4F2E2E2E2E2E2E2E2E6FC4
:1038FC004F4F4F4F4F2E2E0D0A2E2E2E4F4F4F4FF8
:10390C004F4F4F2E2E2E2E4F4F4F4F4F4F4F4F4F3F
:10391C004F2E2E2E2E2E2E4F4F4F4F4F4F4F2E2EB3
:10392C000D0A2E2E2E2E4F4F4F4F4F4F4F4F4F4FA6
:10393C004F4F4F4F4F4F4F4F4F4F4F4F2E2E4F4FCD
:10394C004F4F4F4F4F4F2E2E2E0D0A2E2E2E2E4FE9
:10395C004F4F4F4F4F4F4F4F4F4F4F4F4F4F4F4F6B
:10396C004F4F4F4F4F4F4F4F4F4F4F4F4F4F2E2E9D
:10397C002E2E0D0A2E2E2E2E2E4F4F4F4F4F4F4FB9
:10398C004F4F4F4F4F4F4F4F4F4F4F4F4F4F4F4F3B
:10399C004F4F4F4F4F4F4F2E2E2E2E0D0A2E2E2E99
:1039AC002E4F4F4F4F4F4F4F4F4F4F4F4F4F4F4F3C
:1039BC004F4F4F4F4F4F4F4F4F4F4F4F4F4F4F4F0B
:1039CC004F2E2E2E0D0A2E2E2E2E4F4F4F4F4F4F69
:1039DC004F4F4F4F4F4F4F4F4F4F4F4F4F4F4F4FEB
:1039EC004F4F4F4F4F4F4F4F4F4F2E2E2E0D0A2EE6
:1039FC002E2E2E4F4F4F4F4F4F4F4F4F4F4F4F4F2E
:103A0C004F4F4F4F4F4F4F4F4F4F4F4F4F4F4F4FBA
:103A1C004F4F2E2E2E2E0D0A2E2E2E2E2E4F4F4F5A
:103A2C004F4F4F4F4F4F4F4F4F4F4F4F4F4F4F4F9A
:103A3C004F4F4F4F4F4F4F4F4F4F4F2E2E2E2E0D50
:103A4C000A2E2E2E2E2E2E4F4F4F4F4F4F4F6F2E86
:103A5C004F4F4F4F4F4F4F4F4F4F2E2E4F4F4F4FAC
:103A6C004F4F4F2E2E2E2E2E0D0A2E2E2E2E2E2E4C
:103A7C002E2E4F4F4F6F2E2E2E2E4F4F4F4F4F4FF0
:103A8C004F4F2E2E2E2E2E2E2E2E2E2E2E2E2E2E08
:103A9C002E0D0A2E2E2E2E2E2E2E2E2E2E2E2E2E7F
:103AAC002E2E2E2E6F4F4F4F4F2E2E2E2E2E2E2E65
:103ABC002E2E2E2E2E2E2E2E2E2E0D0A2E2E2E2E5F
:103ACC002E2E2E2E2E2E2E2E2E2E2E2E2E2E2E2E0A
:103ADC002E2E2E2E2E2E2E2E2E2E2E2E2E2E2E2EFA
:103AEC002E2E2E0D0A0000000D0A2A2A2A2A2A2A16
:103AFC002A2A2A2A2A2A2A2A2A2A2A2A2A2A2A2A1A
:103B0C002A2A2A2A2A2A2A2A2A2A2A2A2A2A2A2A09
:103B1C002A2A2A2A2A2A2A2A2A2A2A2A2A2A2A2AF9
:103B2C002A2A2A2A2A2A2A2A2A2A2A2A2A2A2A2AE9
:103B3C002A2A2A2A2A2A2A2A2A0D0A2A2A2A2A2A16
:103B4C002A2A2A2A2A2A2A2A2A2A2A2A2A2A2A2AC9
:103B5C002A2A2A2A2A2A2A204772654861636B205E
:103B6C00536563726574204B6565706572202A2AF3
:103B7C002A2A2A2A2A2A2A2A2A2A2A2A2A2A2A2A99
:103B8C002A2A2A2A2A2A2A2A2A2A0D0A2A2A2A2AC6
:103B9C002A2A2A2A2A2A2A2A2A2A2A2A2A2A2A2A79
:103BAC002A2A2A2A2A2A2A2A2A2A2A2A2A2A2A2A69
:103BBC002A2A2A2A2A2A2A2A2A2A2A2A2A2A2A2A59
:103BCC002A2A2A2A2A2A2A2A2A2A2A2A2A2A2A2A49
:103BDC002A2A2A2A2A2A2A2A2A2A2A0D0A0D0A2DB0
:103BEC002D2D2D2D2D2D2D2D2D2D2D2D2D2D2D2DF9
:103BFC002D2D2D2D2D2D2D2D2D2D2D2D2D2D2D2DE9
:103C0C002D2D2D2D2D2D2D2D2D2D2D2D2D2D2D2DD8
:103C1C002D2D2D2D2D2D2D2D2D2D2D2D2D2D2D2DC8
:103C2C002D2D2D2D2D2D2D2D2D2D2D2D2D2D0D0AFB
:103C3C002020202020202020202020202020202078
:103C4C0020202020202020202020202020204765FC
:103C5C006E6572616C20496E666F726D6174696F0E
:103C6C006E0D0A2D2D2D2D2D2D2D2D2D2D2D2D2D7A
:103C7C002D2D2D2D2D2D2D2D2D2D2D2D2D2D2D2D68
:103C8C002D2D2D2D2D2D2D2D2D2D2D2D2D2D2D2D58
:103C9C002D2D2D2D2D2D2D2D2D2D2D2D2D2D2D2D48
:103CAC002D2D2D2D2D2D2D2D2D2D2D2D2D2D2D2D38
:103CBC002D2D0D0A547970652E2E2E2E2E2E2E2E75
:103CCC002E2E2E2E2E2E2E2E2E3A205574696C69E9
:103CDC0074790D0A506C6174666F726D2E2E2E2ED7
:103CEC002E2E2E2E2E2E2E2E2E3A2053544D333277
:103CFC000D0A0D0A2D2D2D2D2D2D2D2D2D2D2D2D6E
:103D0C002D2D2D2D2D2D2D2D2D2D2D2D2D2D2D2DD7
:103D1C002D2D2D2D2D2D2D2D2D2D2D2D2D2D2D2DC7
:103D2C002D2D2D2D2D2D2D2D2D2D2D2D2D2D2D2DB7
:103D3C002D2D2D2D2D2D2D2D2D2D2D2D2D2D2D2DA7
:103D4C002D2D2D0D0A202020202020202020202069
:103D5C002020202020202020202020202020202057
:103D6C0020202020202052656C65617365204E6FE9
:103D7C007465730D0A2D2D2D2D2D2D2D2D2D2D2DE5
:103D8C002D2D2D2D2D2D2D2D2D2D2D2D2D2D2D2D57
:103D9C002D2D2D2D2D2D2D2D2D2D2D2D2D2D2D2D47
:103DAC002D2D2D2D2D2D2D2D2D2D2D2D2D2D2D2D37
:103DBC002D2D2D2D2D2D2D2D2D2D2D2D2D2D2D2D27
:103DCC002D2D2D2D0D0A56657273696F6E20000016
:103DDC000D0A50617373776F7264206D69736D6136
:103DEC00746368206F7220746F6F2073686F7274C5
:103DFC002C20726573746172740000000D0A0A50F5
:103E0C00617373776F726420736574000C0D0A2AEA
:103E1C002A2A20536563726574204B656570657240
:103E2C0020697320656D707479202A2A2A0D0A0A7C
:103E3C002D312D2053657420612070617373776F61
:103E4C0072642E0D0A2D322D2047656E65726174D9
:103E5C006520676F6F642070617373776F72642E67
:103E6C000D0A2D332D2050726F6475637420696EAA
:103E7C00666F726D6174696F6E2E0D0A0D0A436860
:103E8C006F6963653A2000000C0D0A2A2A2A205318
:103E9C006563726574204B6565706572206C6F6329
:103EAC006B6564202A2A2A0D0A0A2D312D20456EB5
:103EBC00746572207468652070617373776F7264B7
:103ECC002E0D0A2D322D204C6F737420706173737C
:103EDC00776F72642C207769706520616C6C2E0D85
:103EEC000A2D332D2047656E657261746520676FEE
:103EFC006F642070617373776F72642E0D0A2D34AA
:103F0C002D2050726F6475637420696E666F726DCC
:103F1C006174696F6E2E0D0A0D0A43686F696365D3
:103F2C003A2000000C0D0A2A2A2A20536563726578
:103F3C0074204B656570657220756E6C6F636B6574
:103F4C0064202A2A2A0D0A0A2D312D204368616E1D
:103F5C0067652070617373776F72642E0D0A2D3252
:103F6C002D20526574726965766520736563726580
:103F7C007420696E666F726D6174696F6E2E0D0AB6
:103F8C002D332D205365742073656372657420691D
:103F9C006E666F726D6174696F6E2E0D0A2D342D05
:103FAC002050726F6475637420696E666F726D61F8
:103FBC0074696F6E2E0D0A0D0A43686F6963653A5A
:103FCC00200000002E2E2F5372632F6D61696E2E10
:103FDC00630000000D0A507265737320454E544502
:0C3FEC005220746F207374617274000026
:043FF800310100088B
:043FFC000D010008AB
:10400000010000001000000029DCA12CEDEF11A13F
:10401000DA357D80A22BB2827F177CE85735F5FF19
:10402000F54446DC01D4C3C5007C00080C0D0A45EC
:104030006E746572207468652070617373776F7237
:10404000643A20000C0D0A48656C70657220667534
:104050006E6374696F6E20746F2067656E65726140
:104060007465206120676F6F642070617373776F70
:1040700072642E0D0A0A506C6561736520656E745A
:10408000657220382072616E646F6D2063686172A2
:1040900073206D61783A20000D0A0A47656E6572DB
:1040A000617465642070617373776F72643A200085
:0440B00000A24A041C
:04000005080027DDEB
:00000001FF
